:020000040800F2
:10000000008001206D7A0008BD7A0008196500089B
:100010001F650008256500082B650008000000002A
:100020000000000000000000000000002132000875
:10003000BD7A000800000000BB320008CB32000887
:10004000BD7A0008BD7A0008BD7A0008BD7A0008B4
:10005000BD7A0008BD7A0008BD7A0008BD7A0008A4
:10006000BD7A0008BD7A0008BD7A0008BD7A000894
:10007000BD7A0008BD7A0008BD7A0008BD7A000884
:10008000BD7A0008BD7A0008BD7A000800000000B3
:10009000000000000000000000000000BD7A000821
:1000A000BD7A0008BD7A0008BD7A0008BD7A000854
:1000B000BD7A0008BD7A0008BD7A0008BD7A000844
:1000C000BD7A0008BD7A0008BD7A0008BD7A000834
:1000D000BD7A0008BD7A0008BD7A00080000000063
:1000E000BD7A0008BD7A0008BD7A00080000000053
:1000F000000000000000000000000000BD7A0008C1
:1001000000000000BD7A0008BD7A0008BD7A000832
:1001100000000000000000000000000000000000DF
:10012000BD7A0008BD7A0008BD7A0008BD7A0008D3
:10013000BD7A000800000000000000000000000080
:10014000000000000000000000000000BD7A000870
:10015000BD7A0008BD7A0008BD7A0008BD7A0008A3
:10016000BD7A0008BD7A0008000000000000000011
:10017000000000000000000000000000000000007F
:1001800000000000BD7A0008000000000000000030
:10019000BD7A000810B5054C237833B9044B13B170
:1001A0000448AFF300800123237010BD400D0020F0
:1001B00000000000A462010808B5034B1BB103490D
:1001C0000348AFF3008008BD00000000440D00208C
:1001D000A4620108A3F5803A704700BF174B002BBB
:1001E00008BF134B9D46FFF7F5FF00218B460F46D6
:1001F0001348144A121A0DF069F80E4B002B00D068
:1002000098470D4B002B00D0984700200021040098
:100210000D000D48002802D00C4807F01BF90CF027
:1002200091FB2000290004F0D5FC07F00FFB00BF74
:100230000000080000000000314B00080080012091
:10024000400D0020403800205574000800000000D8
:1002500030B5C360039B0361049B43610025059B8C
:100260000570C0E90112836130BD7047F0B589B0F7
:1002700000230446154608460DF1030252498DF845
:1002800003300DF05DF9514B1B78002B40F092804C
:100290009DF803601E2E00F28F804D4BF340DB076C
:1002A00040F18A802670002E33D14A4F3B78002BD4
:1002B0002FD049493246284606F068FC4749A068D5
:1002C00001AA02F0ABFD322007F0C0FB4349606990
:1002D00001AA02F031FB322007F0B8FB3F49A069C8
:1002E00001AA02F025FE322007F0B0FB3B49E0688E
:1002F00001AA00F0AFF9322007F0A8FB37492069C6
:1003000001AA02F09BFE364960683E7001AA02F025
:1003100057FA9DF803200F2A01D01E2A4AD12D4EEC
:1003200033780F2B2FD02C49284606F02FFC2D496F
:10033000E06801AA00F0B4F90F2333702A4B1B7850
:1003400023B92A49A06801AA02F068FD284B1B784E
:1003500023B92649206901AA02F070FE254B1B78BB
:1003600023B92249606901AA02F0E6FA224B1B7800
:1003700023B91E49A06901AA02F0DAFD1F4960688D
:1003800001AA02F01DFA9DF803701E2F12D13378D6
:100390001E2B0FD010493A46284606F0F7FB1149AC
:1003A000E068377001AA00F07BF91549606801AA7E
:1003B00002F006FA09B0F0BD1249284609B0BDE8BE
:1003C000F0400DF031B900BFDA3B01085C0D0020B0
:1003D00001800040610D0020DC3C0108C84E01088E
:1003E000DD4101085C3B01085E0D0020623B010815
:1003F000600D00205D0D00205F0D00208349010885
:10040000603B0108643B010810B5034B03600446E0
:1004100002F060FE204610BD083C010810B50446FD
:10042000FFF7F2FF2046402107F048FA204610BDB2
:1004300030B590F82830013B89B00446032B1AD818
:10044000DFE803F0021B5469406A216B03684942EC
:100450001B68984740F2231300930423ADF80C3037
:100460000025236B8DF80E5001936946E06900F07A
:100470007BFC84F8285009B030BD006A616B0368CA
:100480001B689847636B002B0FDD012384F838301D
:100490004FF49473049304230025ADF81C30636B70
:1004A0008DF80E50059304A9E0E703D0012384F8EA
:1004B0003930EDE794F839206AB994F83830002BD8
:1004C000E6D0206A002384F8383003686FF03101E9
:1004D0001B689847DCE7206A84F8393003681E21DE
:1004E0001B689847636B002BE7D0D1E7006A616B0C
:1004F00003681B689847606A03689B68984740F2E6
:1005000041130493002501238DF80E50ADF81C30E3
:100510008DF81430C7E7C18D828D438D0A44934214
:100520001BDB406A036800211B689847206A036848
:1005300000211B689847002384F828304FF4A372E9
:100540008DF80E30E0690492012304A9ADF81C3047
:100550008DF8143000F008FC8DE70B4443858AE7E2
:1005600038B50446154602F0A7FD094B2360049BED
:10057000E361059B2362069B63620023C4E90C339D
:1005800084F828306385A385E5852387204638BD18
:10059000083C010873B505461446084601AA1049EF
:1005A0000CF0CEFF0128064618D10E4B1B781E2BEF
:1005B00012D1686A019903685B68984730B90A49A3
:1005C000204602B0BDE870400DF02EB8019B85F8C2
:1005D00028602B6302B070BD0449F1E70449EFE7DE
:1005E000DC3C0108610D0020713B0108993B0108CA
:1005F000643B010837B505461446084601AA104970
:100600000CF09EFF012819D10E4B1B781E2B13D125
:10061000286A019903685B68984730B90A492046FF
:1006200003B0BDE830400CF0FFBF022385F828304E
:10063000019B6B6303B030BD0449F0E70449EEE76A
:10064000DC3C0108610D0020AD3B0108993B01082D
:10065000643B010837B504461546084601AA0D4912
:100660000CF06EFF012813D1206A019903685B68C2
:10067000984730B90849284603B0BDE830400CF02F
:10068000D3BF032384F82830019B636303B030BDDC
:100690000249F0E7DC3C0108AD3B0108643B01087E
:1006A00030B587B00DF10F030093044605AB084643
:1006B0001546214904AA0CF043FF204B1B781E2B42
:1006C00006D01F49284607B0BDE830400CF0ACBF4B
:1006D000C0B29DF80F10A18503282AD1049A02F513
:1006E000FA73B3F57A7F24D8059B03F1E800B0F5DF
:1006F000E87F1ED800912846124906F047FA0023E9
:1007000063859DF80F30206A059903EB830303EBA3
:1007100083039B00A385042384F8283003681B68A7
:100720009847606A0499036849421B68984707B074
:1007300030BD0549C6E700BFD43B0108610D00206C
:10074000993B0108DF3B0108E83B01082DE9F34133
:10075000DFF8F080C568C8F8000000248DF802407A
:100760008DF80340ADF804400DF103020123072189
:10077000407AA8470546D8F800000DF10202066944
:10078000407A21460123B0472844C5B2D8F800007A
:100790009DF80230037001230469407A0DF10202D2
:1007A0001946A0472844C4B2D8F800009DF802308A
:1007B000056943710DF1020201230221407AA84725
:1007C0002044C7B2D8F800009DF802300469837154
:1007D0000DF1020201230321407AA0473844C6B23A
:1007E000D8F800009DF802300469C3710DF10202CF
:1007F00001230621407AA0473044C5B2D8F8000052
:100800009DF802300469037201AA02230421407A90
:10081000A0472844C4B2D8F80000BDF804300569E8
:1008200043800DF1020201230721407AA847D8F83E
:1008300000309DF802201A71204440B202B0BDE899
:10084000F08100BF640D00201346074A30B41468DD
:1008500034B1E5680A46AC460146607A30BC604770
:100860006FF07E0030BC7047640D002073B5124DF0
:100870000446286800238DF80730B0B10669407A35
:1008800001230DF107020721B04788B928688DF8C8
:100890000740C668407A01230DF107020721B047DF
:1008A00008B92B681C7102B070BD6FF07E00FAE7CA
:1008B0004FF0FF30F7E700BF640D002037B5114C53
:1008C000236805460020ADF80400C3B11B795BB96D
:1008D000206802230469407A01AA1A21A047BDF8C2
:1008E00004302B8003B030BDFFF7C0FF0028EFD0ED
:1008F00023681B79002BEBD04FF0FF30F2E76FF04D
:100900007E00EFE7640D002037B5114C23680546E3
:100910000020ADF80400C3B11B795BB92068022345
:100920000469407A01AA1C21A047BDF804302B803D
:1009300003B030BDFFF79AFF0028EFD023681B7982
:10094000002BEBD04FF0FF30F2E76FF07E00EFE7C7
:10095000640D002037B5114C236805460020ADF822
:100960000400C3B11B795BB9206802230469407A93
:1009700001AA1E21A047BDF804302B8003B030BD72
:10098000FFF774FF0028EFD023681B79002BEBD012
:100990004FF0FF30F2E76FF07E00EFE7640D0020CC
:1009A00037B5114C236805460020ADF80400C3B1EB
:1009B0001B795BB9206802230469407A01AA2821C7
:1009C000A047BDF804302B8003B030BDFFF74EFFC9
:1009D0000028EFD023681B79002BEBD04FF0FF30BD
:1009E000F2E76FF07E00EFE7640D002037B5114CA1
:1009F000236805460020ADF80400C3B11B795BB93C
:100A0000206802230469407A01AA2A21A047BDF880
:100A100004302B8003B030BDFFF728FF0028EFD053
:100A200023681B79002BEBD04FF0FF30F2E76FF01B
:100A30007E00EFE7640D002037B5114C23680546B2
:100A40000020ADF80400C3B11B795BB92068022314
:100A50000469407A01AA2C21A047BDF804302B80FC
:100A600003B030BDFFF702FF0028EFD023681B79E9
:100A7000002BEBD04FF0FF30F2E76FF07E00EFE796
:100A8000640D002037B5134C2368054600208DF80F
:100A90000700DBB11B7973B9206801230469407A30
:100AA0000DF107023B21A0479DF80730C3F38003F7
:100AB0002B7003B030BDFFF7D9FE0028ECD02368BF
:100AC0001B79002BE8D04FF0FF30F2E76FF07E008B
:100AD000EFE700BF640D002037B5134C23680546CF
:100AE00000208DF80700DBB11B7973B92068012362
:100AF0000469407A0DF107023D21A0479DF80730B7
:100B000003F00F032B7003B030BDFFF7AFFE0028DA
:100B1000ECD023681B79002BE8D04FF0FF30F2E7D0
:100B20006FF07E00EFE700BF640D002073B52F4D1E
:100B300000238DF806308DF807302B680646002B11
:100B40004ED00DF10700FFF7C7FF00284BD12B68EF
:100B50001C69587A9DF8073003BB01230DF106028A
:100B60003D21A0470446B0B99DF80630286823F01F
:100B70000F0306F00F061E438DF80660C468407A26
:100B800001230DF106023D21A0472B6804465B6955
:100B90004FF416709847204602B070BD01230DF146
:100BA00006023D21A047044680B99DF80630012287
:100BB00023F00F030DF106013D208DF80630FFF7FD
:100BC00043FE2B6804465B6914209847002EE2D050
:100BD000286801230469407A0DF106023D21C0E72F
:100BE0006FF07E04D7E74FF0FF34D4E7640D0020A8
:100BF00073B5224E00238DF806308DF80730336828
:100C00000546002B37D00DF10700FFF765FF58B1FF
:100C10004FF0FF349DF8070018B1FFF787FF20441D
:100C200044B2204602B070BD9DF80730F3B9306879
:100C300001230469407A0DF106023B21A0470446D6
:100C40000028E7D19DF806303068AD0023F004039A
:100C500005F004051D43C4688DF80650407A012351
:100C60000DF106023B21A0470446D3E7FFF75EFFE4
:100C70000028CDD1DBE76FF07E04D2E7640D0020C1
:100C800073B5224E00238DF806308DF80730336897
:100C90000546002B36D00DF10700FFF71DFF58B1B8
:100CA0004FF0FF349DF8070018B1FFF73FFF2044D5
:100CB00044B2204602B070BD9DF80730EBB93068F1
:100CC00001230469407A0DF106023E21A047044643
:100CD0000028E7D19DF8063005F0030023F0030358
:100CE00018438DF8060030680123C468407A0DF17E
:100CF00006023E21A0470446D4E7FFF717FF00286D
:100D0000CED1DCE76FF07E04D3E700BF640D002096
:100D1000016070477047000038B50446006800F075
:100D2000C3FB0546012006F091FE206803222B211B
:100D300000F042FA20682C21032200F03DFA2068DE
:100D4000002100F098FB10B1064806F05FFA206819
:100D500000F076FC012006F079FEB5FA85F0400936
:100D600038BD00BF183C01081FB50446019100685A
:100D70000DF10F0100F0CCFB019A9DF80F102068D7
:100D800000F036FB9DF80F10206800F0A7FA04B0C1
:100D900010BD37B504460068019100F04EFC10F01C
:100DA0000105019A0DD02068612100F018FC20682F
:100DB000002301222C2100F014FA0025284603B05C
:100DC00030BD83070AD52068712100F008FC206837
:100DD0002B4602222C2100F004FAEFE70425EDE770
:100DE00008B5006800F029FC10F0030F14BF0320C1
:100DF000042008BD38B504467CB1E068FFF7FAFF6F
:100E0000236AA5681BB19B6804F11400984720462B
:100E1000242106F053FD2C46EEE738BDCB68C360B5
:100E20000BB15B68184770472DE9F0410546242057
:100E30000E4606F02FFD2B690361044605F11401EF
:100E40001430FFF7EBFF2B78E86823700023C4E928
:100E50000233666018B12146FFF7E6FFE060AE6836
:100E600027464FF00008CEB1242006F013FD336969
:100E70000361054606F114011430FFF7CFFF337804
:100E80002B70C5E90288BD606F60F06818B1294613
:100E9000FFF7CAFFE860B6682F46E4E72046BDE8E2
:100EA000F0810000F8B5044615461E4601220023D5
:100EB0000F4602F001F9164B236004F124010023D0
:100EC000C4E90A31A868E761C4E90C1384F8243046
:100ED00080B1FFF7A9FF024613469268002AFBD1B2
:100EE000E36202461346D268002AFBD123636B6992
:100EF0006363A062002384F83830314604F13C007B
:100F000004F068F903480CF0BBFA2046F8BD00BFB6
:100F1000C03C0108213C0108F0B5031D8268184659
:100F20004AB117690E68D2E90245B7422ABF104696
:100F30002A462246F4E7834204D0096802699142B6
:100F400038BF1846F0BD0000C36810B52BB905497D
:100F500005484FF4FD7205F039FFBDE810401B68ED
:100F6000184700BF863C0108913C010870B5B8B035
:100F7000044604A9C069FFF70CFF0546F8B90499B7
:100F80005F4805F0EDFD049B982B1AD194F838309A
:100F90000133DBB2012B84F8383002D9594B0122DE
:100FA0001A70992318930423ADF86C3000238DF840
:100FB0006E30E069049B199318A9FFF7D5FE38B08D
:100FC00070BD9DF81C3084F83850012B29D19DF854
:100FD00014204D480292114605F0C2FD049B18935F
:100FE00018A904F12000FFF797FF029A4749064627
:100FF00008A805F0CBFD04F124039E4211D07C2209
:10100000294619A818950CF061F918AA08A906F143
:101010001400FFF799FF9DF8603013B118A805F090
:101020009FFD9DF81C30042B28D1059A364802926A
:10103000114605F095FD049B189318A904F12000B2
:10104000FFF76AFF029A3149054608A805F09EFDA0
:1010500004F124039D4211D000217C2219A818918B
:101060000CF034F918AA08A905F11400FFF76CFF79
:101070009DF8603013B118A805F072FD9DF81C3082
:10108000062B8ED1BDF914601F48314605F068FD6E
:10109000BDF916201C480392314605F061FDBDF9EB
:1010A000183019480293194605F05AFD0499189111
:1010B00004F1200018A9FFF72FFFDDE902320546F1
:1010C0001349009608A805F061FD04F124039D4230
:1010D0003FF467AF00217C2219A818910CF0F6F8B4
:1010E00018AA08A905F11400FFF72EFF9DF860303B
:1010F000002B3FF456AF18A805F032FD51E700BFB2
:101100009D3C01085C0D0020AD3C0108DC3C010861
:10111000D43B010810B50446C069FFF761FE0428FE
:1011200004D02046BDE81040FFF720BF10BD0000EE
:1011300010B5074B044640F83C3B04F025F8A06A84
:10114000FFF758FE204601F0C5FF204610BD00BF46
:10115000C03C010810B50446FFF7EAFF2046902185
:1011600006F0ACFB204610BD38B50346044643F8F4
:10117000041B154618461C2200210CF0A7F829462E
:1011800004F0D3FE2146044805F0EAFC2946034852
:1011900005F0E6FC204638BDD03C0108DF3C0108E4
:1011A000436802691B0413607047006808B5036850
:1011B0009B689847C0B208BD70B504460E46022130
:1011C0001546FFF7EDFFFFF7F0FF31462046FFF72A
:1011D000ECFF29462046FFF7E8FFE36862681A60E3
:1011E00070BDF8B504460F46052116461D46FFF7AB
:1011F000D7FFFFF7DAFF39462046FFF7D6FF314623
:101200002046FFF7D2FF29462046FFF7CEFFE368CE
:1012100062681A60F8BD00002DE9F043064685B00B
:101220002A480D4605F09CFC294A0024A0460134BA
:101230006300B2FBF3F393FBF5F7791F14293ED853
:1012400093FBF7F3AB423AD17C1E032394FBF3F4F8
:10125000651C05EB4403FB1A022B14BFA146A946EB
:1012600005EB09032344FB1A012B18BF2546012374
:10127000CDE90153CDF8009023463A464146154842
:1012800005F06EFC5FFA88F230462A21FFF794FFE2
:1012900009F1FF39621E42EAC90262F07F0230465C
:1012A000D2B22921FFF788FF6B1E3046DBB207223E
:1012B0002821FFF796FF002005B0BDE8F083082C39
:1012C000B4D1054805F04CFCA046BDE7EA3C010856
:1012D00000127A00F83C0108483D01080139082352
:1012E0001A46C9B2FFF77DBFF8B505460F46022181
:1012F00014461E46FFF754FFFFF757FF39462846AE
:10130000FFF753FF2644B44205D014F8011B2846CA
:10131000FFF74BFFF7E7EB686A681A60F8BD012A30
:1013200037B59CB2DDB21AD1C3F30742240A8DF857
:10133000064002F01C0402F0030202EBC40242F079
:1013400008025B0D8DF807508DF805208DF80430EC
:1013500004230DEB0302FFF7C7FF03B030BD0023EA
:10136000E4086D018DF804408DF805508DF80730C4
:101370008DF80630ECE7002310B51A46202104460C
:10138000FFF7CDFF00231A4620462421FFF7C7FFB1
:101390000023194620460122FFF7C1FF00231A4609
:1013A00020460421FFF7BBFF20460023012208212D
:1013B000FFF7B5FF00231A4620461021FFF7AFFFC5
:1013C00000231A4620461421FFF7A9FF00231A46DE
:1013D00020461821FFF7A3FF204600226021FFF7D7
:1013E000EBFE20460022BDE810407021FFF7E4BE6E
:1013F000F8B5177B15460C46053106463B460432C8
:10140000C9B2FFF771FF2B686A7B21463046FFF7B0
:1014100086FFAB7B012B08BF47F04007211D3A46F2
:101420003046C9B2BDE8F840FFF7C6BE10B5044665
:10143000C021FFF7B5FEFFF7B8FEE36862681A60E7
:10144000BDE81040012006F001BB0021FFF7ADBE52
:1014500038B504460D460321FFF7A2FEFFF7A5FEAF
:1014600029462046FFF7A1FE2046FFF7EEFFE3687E
:1014700062681A6038BD38B50C460F210546FFF783
:10148000E7FF00F01F0040EA04020F212846FFF7A3
:1014900093FE0F212846FFF7DBFF00F0E000001B62
:1014A00018BF012038BD0000C368426870B504460B
:1014B0001A600E46FFF7BAFF80212046FFF7DBFFD8
:1014C0000128054605D11148211D05F049FB284694
:1014D00070BD31462046FFF79FFE10F0FF05F6D1A4
:1014E0002046FFF748FF2046042364226021FFF7CF
:1014F00078FE2B46204660227021FFF772FE0423FF
:1015000007220F212046FFF76CFEE0E7543D01085B
:101510002DE9F341104B1A889B788DF80630002393
:1015200080460E46ADF804200B7001AD032415F87B
:10153000017B40463946FFF78BFF10F0080004D1CD
:101540000137377002B0BDE8F081013C14F0FF04B0
:10155000EDD10220F6E700BF6B3D0108F8B5054666
:101560000F46032114461E46FFF71AFEFFF71DFE25
:1015700039462846FFF719FE2644B44205D02846CE
:10158000FFF763FF04F8010BF7E7EB686A681A607E
:10159000F8BD37B51C46002313702360042315469D
:1015A0000DEB0302FFF7DAFF9DF805109DF804200C
:1015B0004B0903EBC2030A0723600ED501F00301B8
:1015C00001EB83019DF806209DF8073003EB022311
:1015D00003EB0141012321602B7003B030BDF8B54E
:1015E00013460D4614460D320646FFF7D2FF691E1C
:1015F000C9B23046FFF72CFF291D0746C9B2304655
:10160000FFF726FFC7F3C007A773691D00F00F0798
:101610003B46221DC9B23046FFF7A0FF2773F8BD35
:1016200010B50446FFF7BCFDFFF7BFFD2046FFF7EE
:101630000CFFE36862681A6010BDA021FFF7F0BFDD
:1016400070B51C210446FFF703FF1D210546204607
:10165000FFF7FEFE2D2106462046FFF7F9FE044661
:101660001D4805F07DFA29461C4805F079FA3146F7
:101670001B4805F075FA21461A4805F071FA310643
:1016800001D42A0602D5184805F06AFA230602D5C5
:1016900016480BF0F5FE660602D5154805F060FA0F
:1016A000A50602D5134805F05BFAE00602D51248FC
:1016B00005F056FA610702D5104805F051FAA20765
:1016C00002D50F480BF0DCFEE30704D5BDE87040FF
:1016D0000C4805F045BA70BD6F3D01088A3D010810
:1016E000A93D0108C83D0108DC3D0108F73D01089E
:1016F000123E0108ED3D01082E3E0108463E01085C
:101700005F3E0108763E010870470B6803604B6836
:1017100043608B6883607047C3680BB19B68184750
:101720007047036B8B4205DC406B8842B4BF0020DE
:101730000120704700207047018D07EE901AF8EEE7
:10174000677A043017EE901A03F078BD2DE9F04166
:1017500005461E46184B45F8043B044617462846E6
:1017600003F0CAFDC4E90C7640F2D353134E23852F
:101770004FF014086623A385314684F82A8064223A
:1017800004F138000BF08CFC6422B11804F19C00C9
:101790000BF086FC642206F1C80104F580700BF0A2
:1017A0007FFC4146284603F057FD2846218D03F073
:1017B0006FFD2046BDE8F081C43F0108903E01085E
:1017C00010B5044B044640F8043B03F0B3FD20463B
:1017D00010BD00BFC43F0108F0B510688842DDE9C4
:1017E000055722DB1868884202DCB5F90000F0BD1D
:1017F0000124BC4219DA53F824608E424FEA840077
:1018000010DC04F18044013C53F8242055F8247086
:101810002B58B01ADB1B93FBF0F3881A13FB0070F4
:1018200000B2E4E70134E4B2E3E707F180400138B5
:1018300052F820408C4202DC35F92000D7E753F8FB
:1018400020308B42F8DA0124BC4213DA52F824002B
:1018500088424FEA84030ADB04F18044013CEB58E0
:1018600055F8247052F82420DB1B801AD3E701348A
:10187000E4B2E9E74FF0FF30B9E737B51923019338
:1018800000F580730D46009300F1380200F19C03CF
:1018900049420446FFF7A0FF6421A085684390FBFE
:1018A000F1F0218D0144201D03B0BDE8304003F06C
:1018B000EFBC436B8B4205DC806B8842B4BF0020D9
:1018C00001207047002070472DE9F04105461E4673
:1018D000214B45F8043B04462846904603F00CFD96
:1018E0001E4BA36240F26D73C4E90C381C4BA66317
:1018F00093E80700142704F13C0684F82C7086E86E
:10190000070003F10C0207CA04F1480686E8070045
:1019100003F1180207CA243304F1540686E80700CD
:1019200093E8070004F1600686E807003946284678
:1019300003F092FC4FF47A71284603F0A9FC0A20C8
:1019400006F084F8A16A6423284691FBF3F103F0C2
:101950009FFC2046BDE8F081084001087953020051
:10196000D03F010810B5044B044640F8043B03F097
:10197000E1FC204610BD00BF084001082DE9F04100
:1019800019689142DDE906C4DDE9085631DBDCF86F
:101990000010914204DC236803602B68436023E05D
:1019A0000121B14225DA5CF8218090454FEA810798
:1019B0001CDC01F1804101395CF8213054F821E050
:1019C00055F82110A8EB0306D21AE359A3EB0E0336
:1019D00093FBF6F302FB03E4EB595B1A93FBF6F37C
:1019E00002FB0312C0E90042BDE8F0810131C9B237
:1019F000D7E706F18041013953F82170974205DCA1
:101A000054F82130036055F82130C7E75CF82170A5
:101A10009742F5DA0121B1421CDA53F821E09645EC
:101A20004FEA810713DB01F18041013953F821307E
:101A300054F821C055F82110AEEB0306D21AE35931
:101A4000A3EB0C0393FBF6F302FB03C4C4E70131E1
:101A5000C9B2E0E74FF0FF3303609FE7036B806A92
:101A600059434FF47A7391FBF3F1642390FBF3F045
:101A70000844704730B587B00323039300F1600337
:101A8000029300F15403019300F1480304460D460C
:101A900000930A4600F13C03014604A8FFF76EFFDD
:101AA000049B2363059BA36229462046FFF7D6FFCC
:101AB0000146201D07B0BDE8304003F0E9BB00003F
:101AC00010B5034B0360044603F0D6FE204610BD5C
:101AD000D4460108A0F1E400F2E700BF70B4D0E9F9
:101AE00001340568661005EB6400E40744BFAC5997
:101AF000E35870BC184770B4D0E90134056866102B
:101B000005EB6400E40744BFAC59E35870BC1847C8
:101B100070B4D0E901340568661005EB6400E40791
:101B200044BFAC59E35870BC184770B4D0E90134D5
:101B30000568661005EB6400E40744BFAC59E35840
:101B400070BC184770B4D0E901340568661005EB25
:101B50006400E40744BFAC59E35870BC184770B444
:101B6000D0E901340568661005EB6400E40744BF62
:101B7000AC59E35870BC18472DE9F04105462420C4
:101B80000E4605F087FE2B690361044605F114013A
:101B90001430FFF743F92B78E86823700023C4E979
:101BA0000233666018B12146FFF7E6FFE060AE68D9
:101BB00027464FF00008CEB1242005F06BFE3369B4
:101BC0000361054606F114011430FFF727F9337855
:101BD0002B70C5E90288BD606F60F06818B12946B6
:101BE000FFF7CAFFE860B6682F46E4E72046BDE885
:101BF000F08138B504466CB1E068FFF7FAFF04F1F4
:101C00001400A568FFF788FD2046242105F056FE44
:101C10002C46F0E738BD10B504468068FFF7E9FFB1
:101C2000204610BD38B50E490E4C0F480F4DFFF73A
:101C300073F80F480BF024FC20460BF021FC2846DB
:101C40000BF01EFC0B480BF01BFC28460BF018FC9D
:101C500020460BF015FC08480BF012FC002038BDA4
:101C600020A1070014400108680D0020274001084A
:101C7000104001083A4001081240010838B5FFF74A
:101C8000D1FF60B9064D074C2B7823B1C82005F071
:101C9000DDFE07F0EFFB204601F0B2FAF4E738BDB5
:101CA0005C0D0020D812002010B586B004466846AE
:101CB00080E80C0006A800E90C00039110E9070079
:101CC000034BE36084E80700204606B010BD00BF68
:101CD0008C400108F8B58B68164604460D1D01229C
:101CE00063B11D693268D3E90270954288BF012251
:101CF0001D4696BF00223B460346F1E792B1CA68F3
:101D0000AA4203D1C4E900352046F8BD284609F0AF
:101D100095FF336802699A424FF00003F2D3C4E999
:101D20000003F1E72846F4E72DE9F04F4FF4E133E3
:101D3000E3B003220221BF48BF4FDFF89CA3DFF8C6
:101D40009C83BE4DDFF898B304F074F8BC4ABD49DB
:101D5000B84805F07DFB4FF0FF3300931E221D2392
:101D60001F21B94803F022FCB54AB849B64805F02E
:101D70006FFB1C22B449B648FFF7F6F9B449384660
:101D800035ACFEF7C5FFAE4AB249384605F060FBF8
:101D90001C22002120460BF099FAA146052120467D
:101DA00004F0C3F8B9E80F006E460FC699E80700C3
:101DB000002386E807004FF4FA72A74800F06CFD94
:101DC000A6499F4AA44805F043FB002341F288320C
:101DD000A34800F0DFFCA349994AA14805F038FB6D
:101DE00019231822CDE9013200970023962250468C
:101DF00000F0BCFF924A9C49504605F029FB4FF485
:101E0000FA739A4A13214046FFF7A0FC8C4A98497E
:101E1000404605F01DFBFA236FF0F9021521284614
:101E2000FFF752FD9349864A284605F011FBCDE99C
:101E300001580023009732228F48904DFEF790FB07
:101E40008F497F4A8C4805F003FB0023009741F23D
:101E500088328C4801F0E2F8794A8B49894805F0CC
:101E6000F7FA1C22002120460BF030FA0DF1B808D9
:101E70000921204604F059F81C22002140460BF0AD
:101E800025FA0821404604F049F8CDE90787A6461F
:101E9000BEE80F00EC46ACE80F0099E8070000230D
:101EA00086E80700C822284600F024FD404603F0DB
:101EB000D1FF634A7549284605F0CAFA1C22002161
:101EC00020460BF003FA0A21204604F027F80023ED
:101ED0003222CDE90047584601F014F8204603F0BD
:101EE000B9FF574A6A49584605F0B2FA654B5C4952
:101EF0000093CDE9015B604B66485246FEF7A8F9B6
:101F00004F4A65496348002705F0A2FA634B3697AC
:101F1000359394E80C0058494046FFF7C5FE4FF44E
:101F20008573414636A83593FEF778FF5C4B5249DE
:101F3000CDE9263726AA0CCA2AA8FFF7B5FE40F23B
:101F40000F132AA93BA83A93FEF768FF554B4A495D
:101F50000DF18809C9E9003726A899E80C00FFF7B8
:101F6000A3FE40F2051326A940A83F93FEF756FFB3
:101F70004D4B41491EAEC6E90037484696E80C0075
:101F8000FFF792FE4FF48A730DEB0300494644932A
:101F9000FEF744FF454BF360454BC6F800A0C6E989
:101FA0000137314640F237134AA84993FEF736FF0E
:101FB000404B1D93404B374A1A92CDE91B371AA963
:101FC0004FF480734FA84E93FEF728FF3B4B1993B5
:101FD0003B4B1695CDE9173716A94FF49E7354A8BD
:101FE0005393FEF71BFF374B1593374BCDF848B093
:101FF000CDE9133712A94FF49F7359A85893FEF7F0
:102000000DFF324B11931F4B0E93314B314DCDE9E8
:102010000F370EA94FF499735EA85D93FEF7FEFE8D
:102020002B1DC5E9033309232F71AF606F610A933C
:1020300036AF57E020100020680D00206C12002001
:1020400098010020C11A00084C1300203D560008DA
:1020500028130020150D0008B80D00207128000875
:10206000700D002075220008912A00080CFEFFFF69
:10207000C117000865190008E00F0020980E002025
:1020800009040008B80F00209D2F0008C52800088B
:10209000892E0008980F00206B02000895050008A3
:1020A000F505000855060008A10600088040010853
:1020B0001D2E0008744001086D02000868400108E8
:1020C000392900085C400108312F00085040010800
:1020D0003D300008800E0020F80E0020081100207E
:1020E000580F00206B692BB12A6957F8043C11691D
:1020F00099420AD33A1F29460CA8FFF7EBFDDDE908
:102100000C3222B3002B40F08C80474B9A4200F0F7
:10211000888057F8041C136999422CBF4FF0000ABD
:102120004FF0010A24200B9205F0B4FB57F8043C51
:102130000361834639461430FEF770FE3A4B0B9A22
:102140005946504609F094FD6B6901336B610A9B57
:10215000013B07F114070A93C4D162AF143F3D1D40
:102160002846FFF7D9FAA742F8D10EA8FFF7D4FA0C
:1021700012A8FFF7D1FA16A8FFF7CEFA1AA8FFF7B0
:10218000CBFA3046FFF7C8FA4846FFF7C5FA26A84B
:10219000FFF7C2FA254E2AA8FFF7BEFA4046FFF71E
:1021A000BBFA234A2349304605F052F9B0680023B0
:1021B000CDE93735CDE939538DF8D83088B1294686
:1021C000FFF7DAFC03461A469B68002BFBD13892D6
:1021D00003461A46DB68002BFBD1736939923A93A8
:1021E00037902023224614491448FEF75BFE3798A7
:1021F000FFF7FFFC0E4A1249104805F029F9114B70
:1022000011491248D3E90023CDE90023082200F048
:10221000C3FF074A0E490D4863B0BDE8F04F05F013
:1022200017B94FF0010A7DE7840E0020800E0020D0
:1022300098010020171C0008680D0020F00D0020F8
:1022400031110008984001089C010020D81200209C
:102250004D31000810B50446FFF732FC2046E82156
:1022600005F02CFB204610BDA0F1E400F2E7FFF7DB
:102270005BBD000010B5054B044640F81C3B03F065
:1022800059F8204600F026FF204610BDA84001085E
:1022900010B50446FFF7EEFF2046482105F00EFB7F
:1022A000204610BD437E37B50446002B6ED090F813
:1022B0004430012B40F08F8190F840301C2B00F20D
:1022C0007F81DFE813F01D0042006500EC0065002F
:1022D00083008C00A70028010001A700BA00C200FB
:1022E000D4006500EC00D400DC00E400EC00000148
:1022F000140114016500280128013C014F0162010D
:1023000090F8423093B904F11C004FF4FD61019044
:1023100002F0B0FF4FF47D71019802F0B9FF012384
:1023200084F84230002384F841302FE090F84130A7
:10233000092B40F2218200211C3002F0A9FF00236A
:1023400084F8413084F842301BE090F8422090F845
:102350004130002A40F010820B2B40F20D8204F134
:102360001C004FF47D71019002F084FF4FF4FD7169
:10237000019802F08DFF012384F84230002384F895
:10238000413094F84030013384F8403003B030BD20
:1023900090F8422090F841305AB1092B40F2EC817C
:1023A000002104F11C0002F073FF002384F8423086
:1023B000E5E70B2B40F2E08104F11C0040F24751AD
:1023C000019002F057FF40F2A321D1E790F842209C
:1023D00090F841300AB10B2BE0E7132B67E090F83F
:1023E000425090F841300DB10E2BD7E7182B40F238
:1023F000C3811C304FF4EF61019002F03BFF4FF4BA
:102400006F71019802F044FF012384F8423084F890
:102410004150B6E790F8422090F84130002ABCD1F4
:102420000B2B40F2A98104F11C0040F2BB3101905A
:1024300002F020FF40F2DD119AE790F8422090F878
:102440004130002AC7D1132B6DE090F8425090F82C
:102450004130002DC8D1182B40F28E811C304FF432
:10246000FD61019002F006FF4FF47D71C9E790F81D
:10247000422090F84130002A3FF46EAF8DE790F88B
:10248000422090F84130002AA5D1132B92E790F812
:10249000422090F84130002AA6D1182B07E090F88E
:1024A000422090F84130002A7FF477AF0B2B40F2A6
:1024B000638104F11C0040F24761019002F0DAFEF2
:1024C00040F2233154E790F8422090F84130002A3E
:1024D0007FF463AF0B2B40F24F8104F11C0040F2FC
:1024E000ED51019002F0C6FE40F2F62140E790F86F
:1024F000422090F84130002A7FF44FAF0B2B40F27E
:102500003B8104F11C004FF4B361019002F0B2FE74
:102510004FF433712CE790F8422090F84130002AB4
:102520007FF43BAF0B2B40F2278104F11C0040F2FB
:10253000FB41019002F09EFE40F27D2118E790F8E9
:10254000425090F84130002D7FF427AF0B2B40F222
:1025500013811C3040F2B341019002F08BFE40F237
:1025600059214EE790F8425090F84130002D7FF409
:1025700014AF0B2B40F200811C304FF48E610190A0
:1025800002F078FE4FF40E713BE790F8425090F85D
:102590004130002D7FF401AF0B2B40F2ED801C3059
:1025A0004FF47D71019002F065FE01984FF4FD71CA
:1025B00002F06EFE0123A4F8405084F84230E5E6B4
:1025C0000021A0F8401080F842101C3003B0BDE894
:1025D000304002F05DBE022B6DD190F84030042BEC
:1025E0003FF6D4AEDFE803F003122130490094F83F
:1025F0004230002B40F0B88004F11C0040F6E86146
:10260000019002F037FE40F2747185E694F8423092
:10261000002B40F0A98004F11C0040F649510190C4
:1026200002F028FE40F2A46176E694F84230002BD6
:1026300040F09A8004F11C0040F6D631019002F07F
:1026400019FE40F2EB5167E690F842304BB904F1C5
:102650001C0040F6F711019002F00CFE40F2FB4125
:102660005AE694F84130092B40F28680002104F1AB
:102670001C0002F00DFE002364E604F11C000221A0
:102680000025019002F0F6FD0198012102F000FE04
:102690000198A4F8405084F84250294602F0F8FD11
:1026A00084F8445041F28831204600F014FD41F294
:1026B000883363836AE6032B45D190F84030062BBC
:1026C0003FF664AE01A252F823F000BF2B260008AB
:1026D0000D260008EF250008E9260008132700084A
:1026E0002D2700087B26000890F84250002DB8D115
:1026F0001C304FF47D61019002F0BCFD4FF4FD6190
:10270000019802F0C5FD012384F8423084F841505D
:102710003CE690F84250002DA3D11C3041F2C1118B
:10272000019002F0A7FD4FF40E61E9E790F84250E6
:10273000002D96D11C3041F2EE31019002F09AFD4D
:1027400040F6F711DCE7042B7FF420AE90F8401040
:1027500001290CD0022911D000297FF417AE90F87E
:102760004230002B3FF473AF94F8413015E690F8F7
:102770004230002BF8D1C6E50133D4E51C3001907E
:1027800002F078FD0198012102F082FD002384F817
:10279000443087E770B504461646002500F08CFCEF
:1027A000064B236065766683172104F11C0002F056
:1027B000A3FD256484F84450204670BDA84001085C
:1027C000F0B585B0044615460846002721498DF826
:1027D0000F700DF10F020AF0B3FEC6B2012E32D116
:1027E0009DF80F201B49D31B18BF01236376284691
:1027F00004F0CCF99DF80F3084F844309BB904F113
:102800001C000221019002F035FD0198314602F0D2
:102810003FFD41F28831204600F05DFC41F28833F3
:10282000638305B0F0BD013B032BFAD82046276433
:102830000A2100F050FC0A236383394604F11C008E
:1028400002F026FDEDE70449284605B0BDE8F0405A
:102850000AF0EABEDA3B0108643B0108036A1A6821
:10286000C3691A4216BF826A426A1B04136070472A
:1028700010B5034B0360044600F02CFC204610BD4D
:10288000C040010810B50446FFF7F2FF204638218A
:1028900005F014F8204610BD70B50646344600F029
:1028A0000BFC04AD064B44F81C3B0FCD0FC495E860
:1028B000070084E80700736AF2691A60304670BD49
:1028C000C040010810B5054B044640F8383B03F002
:1028D000C1FA204600F0FEFB204610BDF040010882
:1028E00010B50446FFF7EEFF2046602104F0E6FF36
:1028F000204610BD70B50646344600F0DDFB04AD41
:102900000C4B44F81C3B0FCD0FC495E807000B9D02
:1029100084E807000FCD06F138040FC495E80700DE
:1029200084E807000C9BF365B26AF3691B0413602B
:10293000304670BDF040010837B500230546144607
:1029400008460DF1070211498DF807300AF0F8FD2D
:10295000C0B2012817D10E4B1B780F2B01D01E2BB4
:102960000FD19DF807300B4A0B49003B18BF0123DC
:1029700085F858301370204603B0BDE830400AF0A7
:1029800053BE0649F7E70649F5E700BFDA3B010801
:10299000610D00205D0D0020623B0108D040010860
:1029A000643B01080000000030B5436AC2691A6048
:1029B000044689B00A2004F0C9FFE369A26A1B0437
:1029C000136002A803F06FF902A803F0DDF8D4E960
:1029D0000E310A681A42FCD002A803F041F9D4E98A
:1029E0000E310A681A42FCD102A9684603F01EF9AA
:1029F000009D02A803F0FBF8284610F041FB0BA352
:102A0000D3E9002310F0B6FB074B002210F0B2FB15
:102A100010F060FE63288ABF63236065636502A8C7
:102A200003F0A8F809B030BD0000E03F006F81045A
:102A3000C58FA13F1FB590F85830044683B1FFF70A
:102A4000B3FF4FF48F7300930423ADF80C300023D1
:102A50008DF80E30E06D636D01936946FEF784F9E1
:102A600004B010BD064B8362064BC362064B036382
:102A7000522380F825304FF4967004F0E7BF00BF72
:102A8000D52A0008152B00088D2A000804F0DEBFA7
:102A900038B5094B094D036004460220FEF7F0F8F3
:102AA000286820B10368DB68984700232B60204624
:102AB00000F010FB204638BD44410108C01300203F
:102AC00010B50446FFF7E4FF2046602104F0F6FE4F
:102AD000204610BD30B585B0054608468DF8080083
:102AE00011460DF109001A461C460AF0D9FA0022D7
:102AF00007480092631CDBB202AA2946006802F074
:102B00003DFA003818BF0120404205B030BD00BF7B
:102B1000C01300202DE9F04186B015460027DFF8EC
:102B200054808DF80F101A46CDE9047704468DF8CD
:102B30001010284604A91E460AF0B2FAD8F8000080
:102B4000009701230DF10F02214602F017FA70B928
:102B500000903346D8F800002A46214602F02DFAAC
:102B6000C01B18BF0120404206B0BDE8F0814FF005
:102B7000FF30F9E7C01300202DE9F04190F8343020
:102B800092B00446002B00F0CF8000230BA8ADF8D4
:102B90002C30ADF82E30ADF83030ADF83230ADF825
:102BA0003430ADF83630FDF789FE002840F0BC80A7
:102BB0000DF12E00FDF7CEFE002840F0B5800CA8E8
:102BC000FDF7A2FE002840F0AF800DF13200BDF904
:102BD0002C60BDF92E50BDF93070FDF7E1FE0028E4
:102BE00040F0A2800DA8FDF701FF002840F09C8076
:102BF0000DF13600FDF720FF002840F09580BDF96B
:102C00003220BDF93430BDF9361002EB8202520099
:102C100002F16E0003EB8303DC284FEA430300F26A
:102C2000868003F16E00DC2800F2818094F8483041
:102C30000133DBB20A2B84F8483005D10023C4E904
:102C40000F33636484F848304FF47A7316FB03F64D
:102C500015FB03F540F21913002E4FF47A720E9310
:102C60004FF0080317FB02F7B8BF0F36ADF844303A
:102C7000002D4FF00003B8BF0F358DF84630002F00
:102C8000E36BA06B0F93B8BF0F37236C10930EA9A3
:102C9000FEF76AF847F30F184FF47A70D4E90FC7BC
:102CA00098FBF0F1646C94FBF0FE00FB118212B211
:102CB00000FB1E44002AB8BF5242002CB8BF644239
:102CC000CDE907E497FBF0F400FB1477002FB8BFC1
:102CD0007F42CDE905479CFBF0F700FB17C4002CB1
:102CE000B8BF644246F30F1645F30F15CDE90374E0
:102CF00096FBF0F495FBF0F300FB146636B200FB94
:102D00001350002E00B2B8BF76420028B8BF404230
:102D100080B2B6B224B200900296134801941BB25E
:102D200092B209B203F01CFF12B0BDE8F081B4F812
:102D300050E0E06B4FF47A7C02FB0EF292FBFCF267
:102D40000244206CE26303FB0EF393FBFCF20244AB
:102D500022640EFB01F30A225343626C93FBFCF3E3
:102D60001344636400236DE70041010873B5044612
:102D70001D46164600F0A0F9254B2360069B002156
:102D8000962EC4E90E3175F10003C4E91011C4E9AF
:102D9000146584F8341084F8481007D29621204630
:102DA00000F099F996220023C4E914234FF48470AB
:102DB00004F070FDBDF92020BDF91C10054602F09D
:102DC000A7F9144B14491D60284602F0C4F84FF4CB
:102DD000967004F03BFE2046FFF744FE04F11C0011
:102DE000FDF7B4FC0020FDF74BFF0C20FDF79EFE25
:102DF00000250DF107008DF80750FDF743FE9DF803
:102E0000073013B12846FDF7F3FE204602B070BD2F
:102E100044410108C0130020801A060037B5002382
:102E20000546144608460DF1070211498DF8073092
:102E30000AF086FBC0B2012817D10E4B1B780F2B6E
:102E400001D01E2B0FD19DF807300B4A0B49003BD8
:102E500018BF012385F834301370204603B0BDE855
:102E600030400AF0E1BB0649F7E70649F5E700BF45
:102E7000DA3B0108610D00205E0D0020623B010875
:102E8000D0400108643B010810B5054B044640F8EA
:102E9000203B02F0DFFF204600F01CF9204610BD69
:102EA0006841010810B50446FFF7EEFF20464021B7
:102EB00004F004FD204610BD1FB590F83D300446D7
:102EC000E3B1436A1A68036A1A4240F21D1214BF42
:102ED000012300230092012280F83C30ADF80C2041
:102EE000C0698DF80430002269468DF80E20FDF788
:102EF0003BFF94F83C10024803F032FE04B010BDD2
:102F00005841010870B5064600F0D6F8074B049DFD
:102F10003360059BF3610FCD06F120040FC495E8E3
:102F2000070084E80700304670BD00BF6841010813
:102F300037B500230546144608460DF1070211492E
:102F40008DF807300AF0FCFAC0B2012817D10E4BF9
:102F50001B780F2B01D01E2B0FD19DF807300B4A89
:102F60000B49003B18BF012385F83D301370204604
:102F700003B0BDE830400AF057BB0649F7E7064901
:102F8000F5E700BFDA3B0108610D00205F0D00206E
:102F9000623B0108D0400108643B010810B5034BB7
:102FA0000360044600F096F8204610BD80410108F9
:102FB00010B50446FFF7F2FF2046282104F07EFCFE
:102FC000204610BD10B590F8203090B0044613B3E1
:102FD00009A803F049FE01A804F072FC099A0C9BB1
:102FE000E06942F210714A43B2FBF3F2029BADF882
:102FF00018204B430399B3FBF1F340F22D110591D7
:103000000421ADF8201000218DF8221005A9ADF89B
:103010001A30FDF7A9FE10B010BD000010B504462F
:1030200000F04AF8044B2360029BE361002384F81C
:103030002030204610BD00BF8041010837B5002375
:103040000546144608460DF1070211498DF8073070
:103050000AF076FAC0B2012817D10E4B1B780F2B5D
:1030600001D01E2B0FD19DF807300B4A0B49003BB6
:1030700018BF012385F820301370204603B0BDE847
:1030800030400AF0D1BA0649F7E70649F5E700BF34
:10309000DA3B0108610D0020600D0020623B010851
:1030A000D0400108643B0108027E22B1036800227F
:1030B000DB6802761847704710B5C0E9022300228A
:1030C0000023C0E90423024C04600023037610BDF2
:1030D0009841010870470023C36000220023C0E923
:1030E000042381607047D0E9043210B5D0E9024171
:1030F000013342F10002A342C0E9043272EB010342
:1031000005DB00230022C0E904230123037610BD60
:1031100038B504460025227AEBB29A4206D9626895
:1031200052F82300FFF7DFFF0135F4E738BD10B494
:10313000D0E901320168541001EB6200D20748BFA8
:103140000A595DF8044B48BFD358184738B50546AF
:103150000A4B45F8103B0446284602F0AFFC084BEA
:103160002361284602F0AAFC04F13800FEF7D4FAE5
:10317000284602F0CDFD204638BD00BFCC410108F5
:10318000BC46010810B50446FFF7E0FF2046502179
:1031900004F094FB204610BD2DE9FF41144B027250
:1031A00000F11007C0E9003104463846DDE90A683D
:1031B000154602F0CFFC0F4B03930F4B01930023F6
:1031C00002934FF47A73A6FB032603FB0863694658
:1031D0003846009402F09FFC6846FEF79DFA2946A7
:1031E000064803F0BDFC204604B0BDE8F08100BFF6
:1031F000CC410108B841010811310008A84101087B
:1032000038B504460025227AEBB29A4207D96268A3
:1032100052F8230003689B6898470135F3E738BDEF
:103220001EF0040F0CBFEFF30880EFF309808169F3
:1032300011F8021C002932D101B590E80F10E047C7
:10324000BDE800508CE80300244B93E8060091424F
:1032500008BF70471A6041B91EF0100F10D1204B03
:10326000186820F0010018600AE02CE9F00F1EF049
:10327000100F08BF2CED108A81F822E0C1F838C089
:10328000906B92F8221061F0FF0E1EF0100F08BF35
:10329000B0EC108AB0E8F00F80F309887047114A4B
:1032A00013689942FAD801B552F821C00FC8E04717
:1032B000BDE80050CCF80000704701B500F012FFE7
:1032C000BDE80140EFF3098CBEE701B500F0CEFE8A
:1032D000BDE80140EFF3098CB6E70000D001002003
:1032E00034EF00E09C42010808B5014630B96FF0A8
:1032F000030000F02AF86FF0030008BD132001F06E
:1033000091FA30B94FF0FF3000F01FF84FF0FF3066
:10331000F3E70020F1E7000008B5EFF305832BB9D0
:10332000EFF3108313B9EFF3118333B16FF005009E
:1033300000F00BF86FF0050008BDDFF808C000DFF3
:10334000FAE700BFE932000870477047EFF31083D7
:103350002BB9EFF31180003818BF0120704701200E
:103360007047000008B5094B1A7A022A08D0032AD0
:103370000AD04FF0FF3001F013FD4FF0FF3002E0B4
:1033800003221A72002008BD0120FCE7BC010020C6
:1033900008B5094B1A7A022A0CD0032A03D102225B
:1033A0001A72012008BD4FF0FF3001F0F9FC4FF018
:1033B000FF30F7E70020F5E7BC01002070B5464C70
:1033C000237A012B00F0858033B14FF0FF3001F0FC
:1033D000E7FC4FF0FF3070BD404DD5E90B61EB6865
:1033E000E3652B8AA4F854303046AB68236400F0C0
:1033F00033F908B1C4F88060D5E90561304600F0C2
:103400002BF908B9D4F880606667D5E907613046C2
:1034100000F022F908B9D4F88060A667D5E90961FF
:10342000304600F019F908B9D4F88060E6676E6B91
:103430003EB1D6E902233168304600F077F9C4F88E
:103440008460AE6B3EB1D6E902233168304600F0AD
:103450006DF9C4F88860EE6B3EB1D6E9022331689D
:10346000304600F063F9C4F88C602E6C3EB1D6E9AA
:1034700002233168304600F059F9C4F890606E6C50
:103480003EB1D6E902233168304600F04FF9C4F866
:103490009460AE6C3EB1D6E902233168304600F04C
:1034A00045F9C4F89860EE6C3EB1D6E90223316864
:1034B000304600F03BF9C4F89C602D6D3DB1D5E974
:1034C00002232968284600F031F9C4F8A0500123EE
:1034D000237200207FE700BFBC0100202C420108BE
:1034E00070B5254D2B7A012B07D06FF0060001F047
:1034F00057FC4FF0FF34204670BD01F0D7F910B9EA
:103500004FF0FF30F3E71D4A1D4E1E497068FF2340
:1035100082F8223092F82230D26863F0FF03DB4356
:1035200014BFB3FA83F32023C3F12003C2F30222B2
:10353000934298BF531CFE2202FA03F30F4ADBB2F8
:10354000D37701F0B9FA04460028D9D101F0ECFA9A
:10355000286101F0D1FA0C4800F086FF00F0EAFF84
:103560003368DB074CBF0223032383F31488BFF3C4
:103570006F8F02232B72BEE7BC01002000ED00E03C
:103580002C420108CB320008D8010020704738B522
:1035900004460D46FFF7D8FE29462046BDE83840D0
:1035A00001F0C0BB08B5FFF7F1FFEFF3058333B1BE
:1035B0006FF0050001F0F4FB6FF0050008BDFFF7A8
:1035C000C5FE0028F4D1DFF808C000DFF6E700BF31
:1035D000BD33000808B5EFF3058333B16FF0050084
:1035E00001F0DEFB6FF0050008BDFFF7AFFE00281D
:1035F000F4D1DFF808C000DFF6E700BFE1340008CF
:1036000008B5EFF3058333B16FF0050001F0C8FB97
:103610006FF0050008BDFFF799FE0028F4D1DFF830
:1036200008C000DFF6E700BF6533000808B5EFF318
:10363000058333B16FF0050001F0B2FB6FF00500B8
:1036400008BDFFF783FE0028F4D1DFF808C000DFD3
:10365000F6E700BF9133000810B598B140EA0103C6
:1036600013F007030ED117290AD901600839102277
:103670000C18846042600B5081684A60C36001236B
:10368000184610BD0023FBE7F0B5034670B369B3DD
:1036900032F003002AD10F3121F0070103F10806AF
:1036A000344636686568301B25F00305401B8142AF
:1036B00003D930680028F3D1F0BD5F681D680F445E
:1036C0005F602B44083B5868874288BF5F6063682F
:1036D0000A431BB9626004F10800EDE723F003031D
:1036E000E018E650426020600830E5E70020E3E79C
:1036F00010B580B1C1B1A1F1080400F108030022A6
:10370000A34209D1596821F003044168091B4160B3
:103710003AB95A60012010BD19681A4621B10B460A
:10372000EEE71B681360F5E70846F4E730B5C0B173
:1037300089B1C2B1CBB10024C0E9014202FB01F45E
:103740001D190160C360436105611846013904D148
:10375000A21A99500121084630BD851805602846F7
:10376000F4E70146F7E71146F5E71946F3E710B528
:103770000346A8B100F1140252E8000F10B9BFF3DC
:103780002F8F04E0016842E8001404B1F4E738B177
:10379000043353E8002F511C43E8001404B1F8E748
:1037A00010BD30B5F0B1C3688B421BD803698B42A2
:1037B00018D900F114031A680A60BFF35F8F53E849
:1037C000002F0C689442F6D143E8001505B1F2E7EA
:1037D000043050E8003F5A1E40E8002101B1F8E7EC
:1037E000002030BD6FF00300FBE7EFF310832BB92F
:1037F000EFF31180003818BF012070470120704797
:10380000D1E9013223B19A608A681AB153607047D6
:10381000C262F9E7036370472DE9F84F884607460F
:1038200038B131B1B0FA80F3B1FA81F10B441F2BFA
:1038300006DC6FF00301002001F0C4FA002470E000
:1038400008F1030626F003060C3606FB00F9F2B178
:1038500094683CB1A30702D1D368332B05D86FF02D
:103860000801E8E7D368002BF9D1D2E90453D2F874
:1038700000A03DB115F0030B01D1994554D96FF06B
:103880000901D8E7002BFAD11CB19B460CE0924607
:103890001546274BD3F8A000D8B1FFF768FF0446C0
:1038A000A0B14FF0010B35BB214B0022D86F494628
:1038B000FFF7EAFE0546C0B9BBF1000F06D01C4B6E
:1038C000D3F8A000214658B1FFF76BFF6FF0040159
:1038D000B1E7D3F8800001223421FFF7D5FEDEE7FF
:1038E000D3F88000FFF704FFF0E74A46002109F013
:1038F000EDFC4BF0020BFA2323700023C4E909838B
:10390000C4E90B33A36032462B4684F802B0C4F8F6
:1039100004A0394604F10C00FFF708FF044B054AE8
:103920001A672046BDE8F88F002CE4D1B1E700BF4C
:10393000BC010020C539000810B500F1280353E888
:10394000002F12B9BFF32F8F04E0511E43E800147B
:1039500004B1F4E70AB9002010BDC06A01220028B2
:10396000F9D0811CD1E84F3FC1E8442F04B1F9E7F9
:10397000DBB2002BF0D08068F1E7036B30B5E3B128
:10398000CD780024DA78AA420FD31A46C1E901247F
:103990008AB19160A4B16160283050E8003F5A1CA0
:1039A00040E8002101B1F8E730BD5A681C46002A02
:1039B000ECD01346E6E7C162ECE7C1E90133C1622E
:1039C0000163E9E7F8B5877804468FB3C568014617
:1039D00000272846FFF714FF277005F10C04204646
:1039E000FFF7DFFEAB68002B48D02046FFF7BFFE95
:1039F0000446002842D0284600F036FD3A460646E6
:103A0000394600F0B9FE304600F08AFD6A6A8168E6
:103A1000064604F10C0009F043FBF9232370A7705C
:103A2000F368E37021462846BDE8F840FFF7A5BFDC
:103A30008568AB68002BF5D05B78832BF2D12846E4
:103A400000F012FD3A460646394600F095FE304633
:103A500000F066FD06466A6A806804F10C0109F010
:103A60001FFBF3680BB1E2781A7000232370214624
:103A700005F10C00BDE8F840FFF793BEF8BD00006B
:103A80002DE9F0410C4617469846054618B10378D3
:103A9000FA2B00D141B928466FF0030101F092F9E9
:103AA0006FF00300BDE8F0818368C3B15B78832BBE
:103AB00015D100F0D9FC01220646002100F05CFE81
:103AC000304600F02DFD06466A6A8068214609F0FE
:103AD000E7FAF0680028E5D007700020E2E705F17A
:103AE0000C00FFF744FE064670B121466A6A0C30AE
:103AF00009F0D6FA0024F9233370B470F770314618
:103B00002846FFF73AFFE8E7B8F1000F10D041462A
:103B1000932000F087FE40B1074B2846596900F01A
:103B200091FCEFF30983C3E902476FF00100B9E7A5
:103B30006FF00200B6E700BFBC0100202DE9F041A4
:103B40000F4615469846044618B10378FA2B00D163
:103B500041B920466FF0030101F034F96FF0030022
:103B6000BDE8F081FFF7E8FE064600283AD001469E
:103B70002046FFF745FE626A06F10C01384609F05F
:103B80008FFA0DB1F3782B70002504F10C07357016
:103B900031463846FFF705FEA3680BB90020DFE782
:103BA0003846FFF7E4FD06460028F7D0204600F02F
:103BB0005BFC29460746012200F0DEFD384600F096
:103BC000AFFC626A8168074606F10C0009F068FAEA
:103BD000F9233370B570FB68F37031462046FFF768
:103BE000CCFEDBE7B8F1000F10D04146832000F097
:103BF00019FE40B1074B2046596900F023FCEFF352
:103C00000983C3E902756FF00100A9E76FF00200B4
:103C1000A6E700BFBC01002008B5064B08219A6E3C
:103C2000D86EFFF7F9FD044BD864B0FA80F0400974
:103C3000404208BD2C420108BC0100202DE9F041A2
:103C400006460F4690461C46EFF305834BB196B9E6
:103C500030466FF0030101F0B5F86FF00300BDE8E6
:103C6000F081FFF7C2FD0028F1D1DFF84CC03046EB
:103C7000234600DFF3E73378FA2BE9D1002FE7D0B2
:103C8000002CE5D106F10C00FFF771FD054680B16F
:103C9000726A39460C3009F003FAF9232846C5E95F
:103CA00001762B70AC7085F8038000F063FA204633
:103CB000D5E76FF00200D2E7813A0008F8B5044674
:103CC0000F4616461D46EFF3058343B18CB92046D7
:103CD0006FF0030101F076F86FF00300F8BDFFF715
:103CE00084FD0028F2D1DFF848C020462B4600DFD3
:103CF000F4E72378FA2BEAD1002FE8D0002DE6D1A3
:103D00002046FFF719FE054670B100F10C01626A0A
:103D1000384609F0C5F90EB1EB7833702846EC60EF
:103D200000F028FA0020D9E76FF00200D6E700BFC4
:103D30003D3B0008EFF310832BB9EFF311800038FF
:103D400018BF0120704701207047000070B5A8B36C
:103D50008468D0E900566CB114F0030302D1C26844
:103D60001B2A1AD86FF00801002001F025F8002462
:103D7000204670BDC368002BF4D1124BD3F89400D9
:103D800030B9D3F8800001221C21FFF77DFC01E04F
:103D9000FFF7EDFC044660B10123F522A370002378
:103DA000C4E90233C4E904332270E6706560237607
:103DB000DEE76FF0040100F0FFFFD9E70546064695
:103DC000DBE700BFBC010020284B70B55D690446ED
:103DD0000E4635B96FF0070100F0EEFF4FF0FF30EF
:103DE00070BD10B10378F52B07D020466FF00301AA
:103DF00000F0E2FF6FF00300F2E7037E53B9C0E981
:103E00000353EB6A436103B11861EC62012323762B
:103E10000020E5E7C278D1070DD5C168A9420AD1D3
:103E2000FF2B06D16FF00F0100F0C6FF6FF002000C
:103E3000D6E70133EBE7002EF8D093070AD5E06808
:103E400095F9203090F920209A4203DA80F820304A
:103E500000F01CFB3146532000F0E4FC18B1294669
:103E6000204600F0EFFA6FF00100B9E7BC01002036
:103E70002E4B5A6970B5044632B96FF0070100F055
:103E80009BFF4FF0FF3070BD10B10378F52B07D0CA
:103E900020466FF0030100F08FFF6FF00300F2E7A0
:103EA000037E33B96FF00E0100F086FF6FF0020061
:103EB000E9E7C168914202D06FF00D01F4E7013BE0
:103EC000DBB2037613BB43690BB101691961216948
:103ED000F1B14B6192F92130D56ADDB982F8203019
:103EE000A36883B1204600F0BFFA06462A46294659
:103EF00000F042FCF36A6361C4E9036503B11C612D
:103F00000123F4622376002000F01CFB0020BAE7B6
:103F1000D362DFE7E978890706D5A96821B191F96D
:103F200020108B42B8BF0B466D69D6E7BC0100205C
:103F30002DE9F0410446002601270CB9BDE8F081C7
:103F4000E378D4F814801B0712D5A36826767BB1DA
:103F5000204600F089FA00220546114600F00CFCCC
:103F6000EB6A6361C4E9035603B11C61EC62277616
:103F70004446E2E710B4C3789B071DD5C06890F9AA
:103F80002120C36ADC78A40709D59C688C4208BF4D
:103F90008C6824B194F92040A242B8BF22465B69E4
:103FA000002BEFD190F92030934205D080F82020EB
:103FB0005DF8044B00F06ABA5DF8044B70470000EE
:103FC00008B50246EFF3058333B100206FF0050119
:103FD00000F0F2FE002008BDFFF7ACFE0028F4D18F
:103FE000DFF808C0104600DFF5E700BF4D3D0008D0
:103FF00008B50246EFF305833BB110466FF00501AB
:1040000000F0DAFE6FF0050008BDFFF793FE002810
:10401000F3D1DFF808C0104600DFF5E7C93D00081E
:1040200008B50246EFF305833BB110466FF005017A
:1040300000F0C2FE6FF0050008BDFFF77BFE002810
:10404000F3D1DFF808C0104600DFF5E7713E000845
:1040500010B5D0E85F3F5A1C914200D80022C0E85A
:10406000542F04B1F5E798B210BD000038B51C4CD0
:1040700000F056FDE3680133E36000F021FA002010
:1040800000F060FA236D03B19847226C32B3A36944
:10409000E16B994203D0D969E36301B9DA61DA6966
:1040A000C2B9237A022B19D1656ABDB1E36B95F9C8
:1040B000202093F920309A4210D1284600F0DDF9F3
:1040C000E06B00F0F5F9284600F034FA236CE56364
:1040D000EB6103E0013ADA61002AE2D038BD00BFAB
:1040E000BC01002070B5224C04F1560504F15A06BB
:1040F000B4F85410D5E85F3F13B9BFF32F8F04E035
:104100005A1EC5E8502F00B1F4E79BB25BB33046AE
:10411000FFF79EFFE36D53F8200020B30378F13BD7
:10412000082BE5D801A252F823F000BF5141000846
:10413000F140000857410008F1400008F140000834
:104140005B4100085F410008F1400008634100083E
:10415000236E9847CCE7636EFBE7A36EF9E7E36E47
:10416000F7E7236FF5E7BDE87040002000F0EAB9FB
:10417000BC01002070B5164C0546B4F8541004F18B
:104180005602D2E85F3F994202D8BFF32F8F04E076
:10419000581CC2E8560F06B1F3E79BB2994205D806
:1041A00029460220BDE87040FFF7F1B904F158003C
:1041B000FFF74EFFE36D43F82050637A23B9054BB8
:1041C0004FF080525A6070BD0123A372FBE700BF1D
:1041D000BC01002000ED00E0EFF310832BB9EFF3FA
:1041E0001180003818BF0120704701207047037804
:1041F000F12B00D07047C068F9E7000010B5C46922
:10420000621CD0E904310CD103B1596142691AB181
:1042100013610023436101E0074A13630023C36174
:1042200010BD1BB1DA6959612244DA614269002A82
:10423000EED1014AD362F1E7BC01002010B50A4A71
:1042400090F9201001234370536A1C321BB193F97B
:1042500020408C4205DCC0E90232906003B1D86096
:1042600010BD1A469B68F1E7BC010020014B58695C
:10427000704700BFBC01002028B10378F12B01D1A9
:10428000406B704700207047084B5A6A012022B9E2
:10429000DA6A2AB91B6B33B9704792680130F6E7C6
:1042A00012690130F5E71B690130F4E7BC01002019
:1042B00010B50023038083789A07044608D513F0CD
:1042C000100F016B0E4B0FD0D3F88400FFF769FA83
:1042D000A378DB0712D50A4BD3F88800214638B102
:1042E000BDE81040FFF75DBA586FFFF701FAEFE73E
:1042F000BDE81040D3F88000FFF7FAB910BD00BF49
:10430000BC01002008B500F063FDDFF810C000DF3D
:104310004FF0FF31002000F049FDFEE7E1470008C3
:104320000246B8B10378F12B14D10B4B1B6813F084
:10433000040010D0136B0949186888420AD1526BE7
:104340000420904200D370471958B1F1CC3F02D1FC
:104350000430F6E7002070472C420108A52E5AE2EF
:1043600010B570B109B3124A0346546943F8044BBF
:10437000546A012034B9D46A5CB9126B0AB1814223
:104380000ED810BD8142F6D043F8044B0130A4682A
:10439000F0E78142F1D943F8044B01302469EBE79F
:1043A00043F8042B01301269E8E70846E9E700BF4B
:1043B000BC010020C278D207034601D4FFF778BFC2
:1043C0000422054942700022C2604A6B826002B139
:1043D000D0604B63704700BFBC010020930710B54D
:1043E00002F0010422D400F1280384B153E8000F45
:1043F00000EA01028A4203D0BFF32F8F002005E0BC
:1044000020EA010243E8002404B1EFE710BD53E8BD
:10441000000F084203D1BFF32F8F002005E020EAF0
:10442000010243E8002404B1F1E7EFE7806A01EA02
:1044300000031CB18B4218BF0020E7E7002B08BF28
:104440000020E3E710B591F9202083681BB193F9B0
:104450002040944205DAC1E90230816003B1D9609D
:1044600010BD18469B68F1E783689A68826002B1C4
:10447000D0600022DA6018467047C2682AB18368AB
:10448000936003B1DA600023C360704710B504463F
:1044900064B12378F12B07D0FFF7EFFF01462046E8
:1044A000BDE81040FFF7CEBFE468F1E710BD0000A3
:1044B0000123014643700148FFF7C4BFD801002023
:1044C00038B5164DEC6A44B3E369013BE36123BBA5
:1044D0006378732B06D009D8532B0BD003F0DF037E
:1044E000432B0DD12046FFF782FE09E003F0EF03D6
:1044F000832BF6E72046FFF77AFE2146FFF73AFDC9
:104500002046FFF7BAFFFFF7D3FF246924B1E36920
:10451000002BDDD000236361EC6238BDBC010020BC
:1045200090F82230826B13F0100F0CBF6020202017
:104530001044704702234370014B9861704700BFDD
:10454000BC01002070B5124D04462E7A696990B9FD
:10455000022E0FD16C6A6CB194F9202091F92030B1
:104560009A4207DD2046FFF788FF0846FFF766FE00
:104570006670AC6170BD022E05D190F9202091F9D2
:1045800020309A42F1DC2046BDE87040FFF790BF32
:10459000BC0100202DE9F04F85B00391019028B9AE
:1045A0006FF0030100F002FC0024BEE0002A4AD0B4
:1045B000966846B1B00702D1D368432B06D86FF096
:1045C00008010020EEE7D368002BF8D1D2E90449B6
:1045D000976944B1610703D1B9F1000F40F0B18090
:1045E0006FF00A01EDE72FB1791E372903D96FF07B
:1045F0000B01E6E71827B9F1000F40F0A680D2E9D9
:1046000000B3029366BB564DD5F8880008B3FFF798
:10461000AEF8064600283DD04FF00108DFF840A173
:10462000002C42D1B9F1000F1DD14E4BDAF88400B5
:10463000D3F85490B8B1FFF79AF80546E0B148F0C6
:104640001008344623E093461446182791460292F8
:10465000D9E7D5F8800001224421FFF715F8D8E703
:104660004FF00008DAE7DAF8740022464946FFF70F
:104670000BF805460028E4D1B8F1000F13D0DAF8A2
:10468000885031464DB12846FFF78BF8002548F099
:10469000020864B96FF0040193E7DAF88000FFF7CD
:1046A00027F82C46F3E74546F1E72546344640F225
:1046B000F11222800022C4E90222C4E90422C4E9E2
:1046C0000622C4E90922C4E90B25A9F14002029B94
:1046D000E3702A44019BA2637FB2234AE363FD2176
:1046E00084F80280C4F804B084F8207084F8217043
:1046F0006184C4F834902A601A4A1268530718D4A7
:10470000A36B34221846002108F0E0FD174A4263EB
:10471000019A82634FF08072C263039A0262144B63
:10472000CAF860302046FFF70DFF204605B0BDE80F
:10473000F08F29F00302443ACC21281D08F0C6FD71
:10474000DEE7002F7FF450AF182719F0070F7FF432
:1047500047AF0849A9F1480088427FF650AF3FE7CC
:10476000BC0100202C420108A52E5AE20543000896
:104770009D470008B7FFFF7F38B505461446FFF791
:10478000CFFE01602846FFF739FD1CB1BDE8384077
:10479000FFF7D8BEBDE83840FFF78ABE10B54378B2
:1047A000332B04460CD1416A90F82320FFF716FE04
:1047B000014628B120460022BDE81040FFF7DCBFCB
:1047C00010BD10B50446806918B100221146FFF7EC
:1047D000D3FF6378232B02BFA36800229A6110BD28
:1047E00070B50F4C267A022E18D1636AB3B1656991
:1047F000E86AFFF79DFB2846FFF7E3FF04F11C0082
:10480000FFF732FE4670A061EFF30983AB6300232C
:1048100063612846BDE87040FFF7CCBD70BD00BFA6
:10482000BC01002038B51F4C237A022B35D1636AB6
:10483000002B34D063694A1C587016D1226B0021BA
:1048400072B94FF0FF30C3E90421D86159B10B614F
:104850001548FFF709FE02234370A061012038BD0F
:1048600011461269ECE72363F2E7E26A002012B115
:10487000D569A9420BD2C3E90420D96158B10361BB
:10488000002AE5D0D0695361411AD161E0E71046B2
:10489000491B1269EBE7E362F2E70020DFE7184605
:1048A000DDE700BFBC010020D801002038B50D4C69
:1048B0000D48A26D0D4D0021FFF76CFE636EA862DE
:1048C0005BB1984758B9E26DE96C206EFFF762FE64
:1048D000A864003818BF012038BD0120FCE7002083
:1048E000FAE700BF2C4201081D4D0008BC01002062
:1048F00010B50446EFF3058333B100206FF00501D6
:1049000000F054FA002010BDFFF766FC0028F4D137
:10491000DFF808C0204600DFF5E700BF9545000836
:1049200008B5EFF3058313B1054B586908BDFFF7D0
:1049300053FC0028F8D1DFF80CC000DFF6E700BF19
:10494000BC0100206D42000808B50246EFF3058364
:104950000BB1002008BDFFF73FFC0028F9D1DFF8BC
:1049600008C0104600DFF5E77942000808B50246A6
:10497000EFF305830BB1002008BDFFF72DFC0028E5
:10498000F9D1DFF808C0104600DFF5E72143000841
:1049900008B5EFF305830BB1002008BDFFF71CFC41
:1049A0000028F9D1DFF804C000DFF6E789420008EB
:1049B00008B50246EFF305830BB1002008BDFFF7F1
:1049C0000BFC0028F9D1DFF808C0104600DFF5E73E
:1049D0006143000830B50C4D6B6C002213B11C69AB
:1049E0008C420AD9C0E9022301611BB11C6998609D
:1049F000611A19612AB1D06030BD1A46091BDB6803
:104A0000ECE76864F8E700BFBC0100202DE9F04145
:104A1000184D6C6C54B323696E69013B2361012707
:104A2000236913BBE3680BB1A2689A606B6400232F
:104A3000E86C1A4604F11801FFF700F958B1D5E9FE
:104A40000583214603206B61FEF7A1FD6B6913B955
:104A5000B04508BF0026E378012B09D161692046E3
:104A6000FFF7B8FF6C6C002CDAD16E61BDE8F08105
:104A70006770F7E7BC01002008B5FFF7CDF818B95B
:104A8000034B044A1A6508BD4FF0FF30FBE700BF37
:104A9000BC0100200D4A000807B504464FF0FF3363
:104AA000002269462046FFF709F90028F6D1DDE922
:104AB00000309847F2E70000A8B10C4B1B68B3FB2D
:104AC000F0F00138B0F1807F0DD2094BFF2283F85E
:104AD00023204FF0E02306221A61586100209861DC
:104AE000044B187070474FF0FF3070477003002080
:104AF00000ED00E0101A0020074B1A782AB10022BE
:104B00001A70064B4FF080625A604FF0E022136932
:104B100043F0010313617047101A002000ED00E01C
:104B20004FF0E0231B6970474FF0FF3070470000E3
:104B300008B5094B094A1A60094B9B1A094A1360C8
:104B4000094B0A4A1A600A4B9B1A0A4A136000F082
:104B500051F800F083F800BF781A0020007C012093
:104B600000800120741A0020E43300204038002027
:104B7000007C0120E03300200E4838B50E4B036066
:104B80000B250E4B45601C24C4608360FFF718FAA8
:104B90000B4B18600B480C4BC460C0E900350B4B45
:104BA0008360FFF70DFA0A4B1860BDE8384007F044
:104BB000C9BE00BF441A002000430108581A002053
:104BC000541A0020141A00200D430108281A00204E
:104BD000241A0020FDF752B8024B4FF0FF3118683D
:104BE000FFF706BA541A0020014B1868FFF718BAED
:104BF000541A002008B501F041FC0C4B0C49986890
:104C00004FF00053C21802F16042126843F8042BBF
:104C10008B42F7D1054B4FF000529A6003F028FF0A
:104C200005F026F8BDE8084000F015B800ED00E0FA
:104C3000940100207047704708B500F043F8FFF773
:104C4000F9FFFFF799FFFFF7F6FF02F005FBBDE85C
:104C50000840FFF7BFBFFEF7A5BC0000114C124B88
:104C600023614FF4805363614423E3600F4BA360DF
:104C7000182307B5A3610E480E4B2360224600217E
:104C8000FFF736FE034628B90B49009022460B4831
:104C900002F0EAFAFEF79EFC0023094900931A4647
:104CA000F5E700BF802A0020801A0020A42A0020F7
:104CB000394C0008274301082C4301081D010180DD
:104CC000484301081FB5064B0FCB6C4684E80F0024
:104CD0002046FFF775F9034B186004B010BD00BF04
:104CE00060430108E82A002073B506460C461546C5
:104CF00002F0B4FA58B906342ABF064B064953F8F5
:104D00002410002300933246284602F0ADFA02B088
:104D100070BD00BF244501087844010808B500F0C3
:104D200071F8000007B50023421E00930023042AF7
:104D300019D8DFE802F003080C1014000C490D48E4
:104D4000012202F091FA0C490C480222F9E70C49C1
:104D50000C480322F5E70C490C480422F1E70C4902
:104D60000C480522EDE702460B490C48E9E700BF75
:104D70007043010825010280914301082601028049
:104D8000B643010827010280EB4301082801028095
:104D9000264401082A0102806644010800010280BD
:104DA000014A0146FFF7A0BF31010180014AFFF728
:104DB0009BBF00BF32010180014AFFF795BF00BFD2
:104DC00033010180014AFFF78FBF00BF3801018026
:104DD00010B5FFF7A5FD034B1B6813B1BDE81040EC
:104DE000184710BD082B002008B502F0AFF802F0FC
:104DF00055FA02F08DFA02F067FABDE8084002F0B9
:104E0000BBB8000008B5024C23689847FCE700BF18
:104E100060020020F8B50546064655F8044B8CB9EB
:104E20000D4F386818B14FF0FF31FFF7E1F83468E3
:104E300024B9284602F0CAFD2C463560386808B10E
:104E4000FFF7EEF8AC4204D0044905488B2201F08C
:104E5000BDFF2046F8BD00BFE82A002094450108A8
:104E6000A3450108036801221B6900211847036854
:104E700000221B69114618476FF0150070470000AB
:104E8000C36810B52BB9054905484FF4FD7201F010
:104E90009DFFBDE810401B68184700BF863C010815
:104EA000913C010807B5019002F050F801980121EA
:104EB00003F084F803B05DF804EB02F05DB807B5C9
:104EC000019002F043F80198002103F077F803B055
:104ED0005DF804EB02F050B807B5CDE9001002F020
:104EE00035F8DDE9001003F065F803B05DF804EB78
:104EF00002F042B8416830B4034671B1D0E90320F2
:104F000000F0010402B944B1451001EB60000CB19E
:104F100049598A58996830BC104730BC7047000026
:104F2000064B10B504460360806A08B101F052FEDA
:104F3000201DFCF7F1FB204610BD00BFD045010845
:104F400010B50446FFF7ECFF20464FF4847102F0E1
:104F5000B5FC204610BD036870B504460D461B68BD
:104F6000984704F13000C4F8D850294603F01EFBDE
:104F7000236820465B68BDE8704018477FB5064649
:104F80001D4656F8303BCDE902211B680446984780
:104F90009DF8203083F00103DDE9022100933046C3
:104FA0002B4603F055FC236806465B68204698476D
:104FB000A81B18BF012004B070BD7FB506461D4672
:104FC00056F8303BCDE902211B68044698479DF80E
:104FD000203083F00103DDE90221009330462B46A7
:104FE00003F0D6FB236806465B6820469847A81B5B
:104FF00018BF012004B070BD70B590B00D461446C6
:1050000000211C2202A808F061F9012600231A469B
:10501000294602A8009600F08BFF1C22002109A857
:1050200008F054F900231A460096214609A800F01A
:105030007FFF0A9B1A68099B1A4203D16FF0010097
:1050400010B070BD039B1968029B194043D109A899
:10505000FFF742FF09A8FFF725FF0A24002109A84E
:10506000FFF73AFF099B0C9A1B041360052002F01E
:105070006DFC012109A8FFF72FFF0B9B099A1A600D
:10508000052002F063FC013CE8D102A8FFF70AFF0B
:10509000029B059A1B041360052002F057FC0B9B32
:1050A000099A1A60052002F051FC049B029A1A60CA
:1050B000052002F04BFC02A8FFF701FF09A8FFF74B
:1050C000FEFE0A9B1A68099B1A42B7D0039B1A6816
:1050D000029B1A42B2D00020B2E710B5002104466C
:1050E000242240F8041B08F0F1F8204610BD08B552
:1050F000DC30FFF78FFEBDE8084002F06FBC08B55A
:10510000DC30FFF787FEBDE8084002F085BC0000F8
:10511000F8B51A4B03600D46194B4361002100F1AD
:1051200030070446C0E90711C0E909110161818512
:1051300016468061A822384608F0C8F8114BC4F81A
:10514000D83004F1DC00FFF7C8FF2046FFF7CFFF9F
:1051500032462946A4F80451A4F806612046FFF718
:105160004BFFB4F90621B4F90411384603F0D6FA1E
:105170002046FFF7C4FF2046F8BD00BFD045010818
:10518000F54E0008A086010010B5084B044640F813
:10519000203B03F0BBF804F14000FCF7BDFA04F13A
:1051A0003000FCF7B9FA204610BD00BFE845010801
:1051B00010B50446FFF7E8FF2046502102F07EFBC1
:1051C000204610BD0346024A203002F0A7BF00BFB0
:1051D0001952000870B505460E4B45F8043B0446CD
:1051E0000E461C220021284608F070F810220021EB
:1051F00004F1200008F06AF80023E363E364314619
:105200002046FFF7DFFF2846314600F087FE2046A4
:1052100070BD00BFE8450108012908B502D0022988
:1052200007D008BDC36B002BFBD03030FFF728FE42
:10523000F7E7C36C002BF4D04030F7E707B5CDE9B2
:10524000001001F083FEDDE9001003F033FD03B030
:105250005DF804EB01F090BE07B5CDE9001001F058
:1052600075FEDDE9001003F013FF03B05DF804EBF9
:1052700001F082BE07B5CDE9001001F067FEDDE95F
:10528000001003F0A5FD03B05DF804EB01F074BE5F
:1052900007B5CDE9001001F059FEDDE9001003F07B
:1052A000FCFE03B05DF804EB01F066BE837E10B532
:1052B00004461BB901F0F2FF0123A37610BD837EE3
:1052C00010B504461BB101F0FFFF0023A37610BD0B
:1052D00010B5044601F03AFEE37E4BB9B4F918105C
:1052E000204603F011FE2046FFF7E0FF0123E3769E
:1052F000BDE8104001F040BE10B500230022044676
:1053000001834383C2610362FFF7E2FF204610BDC1
:1053100010B5044601F01AFEE37E3BB1204603F0CF
:10532000C3FC2046FFF7CBFF0023E376BDE8104027
:1053300001F022BE10B50446FFF7EAFF204610BD7B
:10534000416830B4034671B1D0E9032000F0010494
:1053500002B944B1451001EB60000CB149598A58BB
:10536000996830BC104730BC704713B5B0F938307D
:1053700044680093B0F93630B0F93420B0F93210F7
:10538000201D04F04DF902B010BD0000034B186859
:1053900018B14FF0FF31FEF72BBE7047E82A00200E
:1053A00070B5054601F0D2FD0A4B0B4C1A684FF45C
:1053B000947100239A420BDD01FB03F00659AE42C3
:1053C00004D1044401F0D8FD204670BD0133F1E75B
:1053D0000024F7E7FC3100200C2B0020084A08B518
:1053E0001368052B04DD07490748AF2201F0EEFCE6
:1053F000591C1160054A4FF4947000FB032008BD4E
:10540000FC3100203D460108454601080C2B0020D8
:105410004368D3F8BC30834210B5044610D0036F04
:1054200098476068D4E916120023043004F016FA95
:105430006068216E043004F0EFFA6368C3F8BC4082
:1054400010BDB0F94C30013303D0C36B11B1426CC5
:1054500013607047826C1B04FAE738B50368044692
:105460001B69984794F965506B1C84F8653045B901
:105470002046FFF7CDFF29462046BDE83840FFF71C
:10548000E0BF38BD10B590F86530013B5BB2044613
:1054900080F8653013B90121FFF7D3FF2368204658
:1054A0005B69BDE81040184737B504460191FFF726
:1054B000D4FF60680199043004F0CEFA0546204616
:1054C000FFF7E0FF284603B030BD30B5044687B093
:1054D000CDE904210393FFF7C0FF94F8645060689E
:1054E00001950A9D05990095DDE90332043004F029
:1054F000EBFA05462046FFF7C5FF284607B030BD4A
:1055000070B50646054656F8044BF4B9FFF73EFF62
:105510002C68ACB921466C60282205F1080007F020
:10552000D5FEAC622C632822214605F1340007F039
:10553000CDFE6C65C5E9174485F864402E6034469D
:10554000064B186808B1FEF76BFDB44204D004495D
:1055500004488B2201F03AFC204670BDE82A002066
:1055600094450108A34501080023082210B5C0E9AD
:10557000162303860C4B03660446FF23A0F8643011
:1055800001F0E4FCE06EFFF70BFF606020B9FFF76D
:1055900025FFE36E6060036001F0EEFC6068C030E0
:1055A000FFF7AEFF10BD00BF40420F0038B5044604
:1055B0001648E386BDF91030206000252387144883
:1055C000A06004F13C036186A28629461C2218468D
:1055D000C4E90455E460A561E561E56207F076FE83
:1055E0004FF0FF3100F0A1FC0A4BB4F93620B4F9BA
:1055F00034102367B4F93200A56603F0E3FFE066D8
:105600002046FFF7B1FF204638BD00BF78460108AD
:10561000415300086B53000808B540689430FFF709
:10562000F9FBBDE8084002F0D9B908B540689430EC
:10563000FFF7F0FBBDE8084002F0EEB910B50D4BE6
:1056400003600446FFF7E8FF6368D3F8BC20A2427A
:1056500004BF0022C3F8BC202046FFF7E6FF04F198
:105660002000FCF759F8E06908B101F0B3FA2046D0
:1056700010BD00BF7846010810B50446FFF7DEFFF5
:105680002046742102F01AF9204610BD7047416887
:1056900030B4034671B1D0E9032000F0010402B92F
:1056A00044B1451001EB60000CB149598A58996822
:1056B00030BC104730BC704770B500F14C06B0F9F3
:1056C000C020B0F9BE100446304603F0E7FDD4E92F
:1056D00032530DB9DA070ED55A1004EB6300DB071D
:1056E00048BFA35894F8D01048BF5D59B4F9D220F0
:1056F000B4F9D430A847D4F8B810304603F0A8FD68
:10570000224630460249BDE8704002F0F3BA00BFBD
:10571000155900082DE9F04198461E4B03601E4BB9
:10572000436000251D4B856016464C220446C0E9A7
:105730000555C0E907550F46C36085844563456438
:10574000A0F8485029460061104407F0BFFD40F220
:105750000113A4F8BC304FF6FF732046C4E92D585E
:10576000C4E93155C4E93655C4F8A450A4F8BE7054
:10577000A4F8C060C4F8CC5084F8D050A4F8D2305B
:10578000A4F8D430C4F8E050FFF796FF2046BDE8F7
:10579000F08100BF98460108B95600088F560008EE
:1057A00038B50546044655F84C3B1B6898472846D3
:1057B00003F0FEFC236805465B68204698472846B0
:1057C00038BD38B50546044655F84C3B1B6898472C
:1057D000284603F005FD236805465B682046984788
:1057E000284638BD03682DE9F34105461B68164677
:1057F0000F46984795F8BC30340103B1B6B195F81F
:10580000BD300BB1012E11D098342819B84206D002
:105810000190FBF781FF01983946FBF7FFFA2B68EF
:105820005B68284602B0BDE8F0411847983401F0A3
:105830008DFB2C44FA68E36805F14C089AB10BB96A
:1058400001F02CFDA74206D02046FBF765FF394644
:105850002046FBF7E3FA01223146404602F056FAB1
:1058600001F08AFBDBE70BB101F02EFD2046FBF7D0
:1058700053FF0022E260EFE730B51B4B036085B0B9
:1058800000252A46694604460395FFF7ABFF6846A4
:10589000FBF742FF0122694620460395FFF7A2FF6E
:1058A0006846FBF739FF94F8BC3013B994F8BD3063
:1058B0001BB104F14C0003F013FC04F1A800FBF74A
:1058C0002BFF04F19800FBF727FF04F13800FBF7EA
:1058D00023FF04F12800FBF71FFF206A08B101F045
:1058E00079F9204605B030BD9846010810B5044648
:1058F000FFF7C2FF2046E42101F0E0FF204610BD83
:105900004C3002F053BA10B54C300C4602F06AFA33
:10591000204610BD00EB0110983008B5C3680BB1EC
:10592000FFF7AEFA08BD036870B504461B680D4664
:10593000984794F8BC30AB422BD065B194F8BD3099
:105940004BB9A2686368511004EB6200D20744BFF0
:105950006258D358984701F0F9FA05B3D4F8A43047
:105960005BB104F19800FFF78BFA01F097FC01227C
:10597000002104F14C0002F0C9F901F0FDFA84F8AD
:10598000BC5035B994F8BD301BB904F14C0003F09C
:10599000A7FB236820465B68BDE8704018472A468D
:1059A000294604F14C0002F0B1F9D4F8A430002BE0
:1059B000E3D001F089FCE0E7036870B504461B689A
:1059C0000D46984794F8BD30AB422BD065B194F8A2
:1059D000BC304BB9A2686368511004EB6200D20777
:1059E00044BF6258D358984701F0B0FA05B3D4F8D1
:1059F000B4305BB104F1A800FFF742FA01F04EFCAD
:105A00000122114604F14C0002F080F901F0B4FAD1
:105A100084F8BD5035B994F8BC301BB904F14C0082
:105A200003F05EFB236820465B68BDE870401847C2
:105A30002A46012104F14C0002F068F9D4F8B43090
:105A4000002BE3D001F040FCE0E770B5D0E9021391
:105A5000D0E908250446521845EB030300F048F945
:105A6000636B2BB104F128001B68BDE87040184738
:105A700070BD884270B504460D460AD0FBF74CFE57
:105A8000EB68E3602BB1294620465B68BDE87040B7
:105A9000184770BD38B50446154600F013F9064B9B
:105AA000236000220023C4E908230023636384F8F1
:105AB0003850204638BD00BFBC46010813B5044627
:105AC00001A801F08FF8204600F01CF9636B23B1A8
:105AD00094F838300BB101F0F7FB04F12800FBF724
