:020000040800F2
:10000000008001200D7300085D730008D15D0008B9
:10001000D75D0008DD5D0008E35D0008000000001A
:10002000000000000000000000000000293000086F
:100030005D73000800000000C3300008D3300008E2
:100040005D7300085D7300085D7300085D73000850
:100050005D7300085D7300085D7300085D73000840
:100060005D7300085D7300085D7300085D73000830
:100070005D7300085D7300085D7300085D73000820
:100080005D7300085D7300085D73000800000000E8
:100090000000000000000000000000005D73000888
:1000A0005D7300085D7300085D7300085D730008F0
:1000B0005D7300085D7300085D7300085D730008E0
:1000C0005D7300085D7300085D7300085D730008D0
:1000D0005D7300085D7300085D7300080000000098
:1000E0005D7300085D7300085D7300080000000088
:1000F0000000000000000000000000005D73000828
:10010000000000005D7300085D7300085D73000867
:1001100000000000000000000000000000000000DF
:100120005D7300085D7300085D7300085D7300086F
:100130005D730008000000000000000000000000E7
:100140000000000000000000000000005D730008D7
:100150005D7300085D7300085D7300085D7300083F
:100160005D7300085D7300080000000000000000DF
:10017000000000000000000000000000000000007F
:10018000000000005D730008000000000000000097
:100190005D73000810B5054C237833B9044B13B1D7
:1001A0000448AFF300800123237010BD600D0020D0
:1001B000000000007479010808B5034B1BB1034926
:1001C0000348AFF3008008BD00000000640D00206C
:1001D00074790108A3F5803A704700BF174B002BD4
:1001E00008BF134B9D46FFF7F5FF00218B460F46D6
:1001F0001348144A121A0DF0DBFB0E4B002B00D0F3
:1002000098470D4B002B00D0984700200021040098
:100210000D000D48002802D00C4806F07BFD0CF0C4
:10022000CDFE2000290004F0D9FB06F06FFF00BFCF
:10023000000008000000000039490008008001208B
:10024000600D002088320020156D000800000000BD
:100250007047704713B50023144608460DF1060297
:100260000A49ADF806300DF087FCC0B2012803BF83
:10027000074BBDF806200749074908BF1A802046EA
:1002800002B0BDE810400DF059BE00BF3C5301085C
:10029000A20D0020405301084453010830B5C3604B
:1002A000039B0361049B43610025059B0570C0E926
:1002B0000112836130BD7047F0B589B00023044658
:1002C000154608460DF1030252498DF803300DF032
:1002D00053FC514B1B78002B40F092809DF803603B
:1002E0001E2E00F28F804D4BF340DB0740F18A80D9
:1002F0002670002E33D14A4F3B78002B2FD049492E
:100300003246284606F087F84749A06801AA02F05D
:10031000BFFA322006F0EAFF4349E06801AA02F082
:1003200037FB322006F0E2FF3F49206901AA02F0C4
:1003300067FD322006F0DAFF3B49606901AA00F050
:100340007BF9322006F0D2FF3749A06901AA02F0FA
:10035000EDFC364960683E7001AA02F043F89DF852
:1003600003200F2A01D01E2A4AD12D4E33780F2B9D
:100370002FD02C49284606F04EF82D49606901AA75
:1003800000F080F90F2333702A4B1B7823B92A49D8
:10039000A06801AA02F07CFA284B1B7823B92649F1
:1003A000E06801AA02F0F4FA254B1B7823B9224930
:1003B000206901AA02F024FD224B1B7823B91E49B3
:1003C000A06901AA02F0B2FC1F49606801AA02F00C
:1003D00009F89DF803701E2F12D133781E2B0FD011
:1003E00010493A46284606F016F8114960693770F8
:1003F00001AA00F047F91549606801AA01F0F2FF6F
:1004000009B0F0BD1249284609B0BDE8F0400DF032
:1004100095BD00BFFA5301087C0D0020018000400B
:10042000B80D0020FA630108AE650108F55901080E
:10043000515301087E0D0020575301087F0D002005
:100440007D0D0020800D00205F60010855530108DC
:100450004453010810B5034B0360044602F046FD07
:10046000204610BD2854010810B50446FFF7F2FFDE
:100470002046382106F084FE204610BD30B590F8A5
:100480002830013B9BB00446032B1CD8DFE803F067
:10049000021D2533406A216B036849421B68984757
:1004A000236B244A642101A805F0C6FFE56901A871
:1004B0000DF0A6FD2B6802461B6901A92846984746
:1004C000002384F828301BB030BD006A616B0368DC
:1004D0001B689847636B184AE4E7006A616B03681E
:1004E0001B689847606A03689B689847134901A88E
:1004F0000DF024FDDAE7C18D828D438D0A449342CD
:1005000015DB406A036800211B689847206A03686E
:1005100000211B689847E0690949002384F82830C6
:1005200003681B690F221BB0BDE8304018470B441D
:100530004385C8E7595301086753010875530108FB
:100540008253010838B50446154602F0C1FC094B38
:100550002360049BE361059B2362069B6362002387
:10056000C4E90C3384F828306385A385E5852046EB
:1005700038BD00BF2854010873B505461446084627
:1005800001AA10490DF0F8FA0128064618D10E4BC1
:100590001B781E2B12D1686A019903685B68984723
:1005A00030B90A49204602B0BDE870400DF0C6BC23
:1005B000019B85F828602B6302B070BD0449F1E708
:1005C0000449EFE7FA630108B80D002091530108D0
:1005D000B95301084453010837B505461446084687
:1005E00001AA10490DF0C8FA012819D10E4B1B7849
:1005F0001E2B13D1286A019903685B68984730B9AC
:100600000A49204603B0BDE830400DF097BC0223F4
:1006100085F82830019B6B6303B030BD0449F0E7D7
:100620000449EEE7FA630108B80D0020CD53010834
:10063000B95301084453010837B504461546084626
:1006400001AA0D490DF098FA012813D1206A0199E9
:1006500003685B68984730B90849284603B0BDE88D
:1006600030400DF06BBC032384F82830019B63639A
:1006700003B030BD0249F0E7FA630108CD53010829
:100680004453010830B587B00DF10F0300930446C1
:1006900005AB08461546214904AA0DF06DFA204B1A
:1006A0001B781E2B06D01F49284607B0BDE83040F6
:1006B0000DF044BCC0B29DF80F10A18503282AD1CB
:1006C000049A02F5FA73B3F57A7F24D8059B03F1F7
:1006D000E800B0F5E87F1ED800912846124905F0E1
:1006E0009AFE002363859DF80F30206A059903EB7D
:1006F000830303EB83039B00A385042384F8283042
:1007000003681B689847606A0499036849421B683C
:10071000984707B030BD0549C6E700BFF45301084C
:10072000B80D0020B9530108FF530108085401080F
:100730002DE9F341DFF8F080C568C8F80000002417
:100740008DF802408DF80340ADF804400DF103022E
:1007500001230721407AA8470546D8F800000DF18B
:1007600002020669407A21460123B0472844C5B2F7
:10077000D8F800009DF80230037001230469407A24
:100780000DF102021946A0472844C4B2D8F800006F
:100790009DF80230056943710DF102020123022127
:1007A000407AA8472044C7B2D8F800009DF802302C
:1007B000046983710DF1020201230321407AA047ED
:1007C0003844C6B2D8F800009DF802300469C371FD
:1007D0000DF1020201230621407AA0473044C5B240
:1007E000D8F800009DF802300469037201AA0223C0
:1007F0000421407AA0472844C4B2D8F80000BDF8CC
:100800000430056943800DF1020201230721407A7B
:10081000A847D8F800309DF802201A71204440B251
:1008200002B0BDE8F08100BFBC0D00201346074AAE
:1008300030B4146834B1E5680A46AC460146607AC3
:1008400030BC60476FF07E0030BC7047BC0D0020AC
:1008500073B5124D0446286800238DF80730B0B1F7
:100860000669407A01230DF107020721B04788B9D4
:1008700028688DF80740C668407A01230DF1070209
:100880000721B04708B92B681C7102B070BD6FF02A
:100890007E00FAE74FF0FF30F7E700BFBC0D002005
:1008A00037B5114C236805460020ADF80400C3B1EC
:1008B0001B795BB9206802230469407A01AA1A21D6
:1008C000A047BDF804302B8003B030BDFFF7C0FF58
:1008D0000028EFD023681B79002BEBD04FF0FF30BE
:1008E000F2E76FF07E00EFE7BC0D002037B5114C4A
:1008F000236805460020ADF80400C3B11B795BB93D
:10090000206802230469407A01AA1C21A047BDF88F
:1009100004302B8003B030BDFFF79AFF0028EFD0E2
:1009200023681B79002BEBD04FF0FF30F2E76FF01C
:100930007E00EFE7BC0D002037B5114C236805465B
:100940000020ADF80400C3B11B795BB92068022315
:100950000469407A01AA1E21A047BDF804302B800B
:1009600003B030BDFFF774FF0028EFD023681B7978
:10097000002BEBD04FF0FF30F2E76FF07E00EFE797
:10098000BC0D002037B5114C236805460020ADF89A
:100990000400C3B11B795BB9206802230469407A63
:1009A00001AA2821A047BDF804302B8003B030BD38
:1009B000FFF74EFF0028EFD023681B79002BEBD008
:1009C0004FF0FF30F2E76FF07E00EFE7BC0D002044
:1009D00037B5114C236805460020ADF80400C3B1BB
:1009E0001B795BB9206802230469407A01AA2A2195
:1009F000A047BDF804302B8003B030BDFFF728FFBF
:100A00000028EFD023681B79002BEBD04FF0FF308C
:100A1000F2E76FF07E00EFE7BC0D002037B5114C18
:100A2000236805460020ADF80400C3B11B795BB90B
:100A3000206802230469407A01AA2C21A047BDF84E
:100A400004302B8003B030BDFFF702FF0028EFD049
:100A500023681B79002BEBD04FF0FF30F2E76FF0EB
:100A60007E00EFE7BC0D002037B5134C2368054628
:100A700000208DF80700DBB11B7973B920680123D2
:100A80000469407A0DF107023B21A0479DF8073029
:100A9000C3F380032B7003B030BDFFF7D9FE0028ED
:100AA000ECD023681B79002BE8D04FF0FF30F2E741
:100AB0006FF07E00EFE700BFBC0D002037B5134C90
:100AC0002368054600208DF80700DBB11B7973B958
:100AD000206801230469407A0DF107023D21A047F7
:100AE0009DF8073003F00F032B7003B030BDFFF704
:100AF000AFFE0028ECD023681B79002BE8D04FF024
:100B0000FF30F2E76FF07E00EFE700BFBC0D002082
:100B100073B52F4D00238DF806308DF807302B6804
:100B20000646002B4ED00DF10700FFF7C7FF002847
:100B30004BD12B681C69587A9DF8073003BB012301
:100B40000DF106023D21A0470446B0B99DF80630DC
:100B5000286823F00F0306F00F061E438DF8066089
:100B6000C468407A01230DF106023D21A0472B689D
:100B700004465B694FF416709847204602B070BD7A
:100B800001230DF106023D21A047044680B99DF8DE
:100B90000630012223F00F030DF106013D208DF8F0
:100BA0000630FFF743FE2B6804465B691420984724
:100BB000002EE2D0286801230469407A0DF1060274
:100BC0003D21C0E76FF07E04D7E74FF0FF34D4E754
:100BD000BC0D002073B5224E00238DF806308DF831
:100BE000073033680546002B37D00DF10700FFF7BB
:100BF00065FF58B14FF0FF349DF8070018B1FFF7BB
:100C000087FF204444B2204602B070BD9DF80730F3
:100C1000F3B9306801230469407A0DF106023B21E3
:100C2000A04704460028E7D19DF806303068AD00A3
:100C300023F0040305F004051D43C4688DF8065035
:100C4000407A01230DF106023B21A0470446D3E779
:100C5000FFF75EFF0028CDD1DBE76FF07E04D2E71F
:100C6000BC0D002073B5224E00238DF806308DF8A0
:100C7000073033680546002B36D00DF10700FFF72B
:100C80001DFF58B14FF0FF349DF8070018B1FFF772
:100C90003FFF204444B2204602B070BD9DF80730AB
:100CA000EBB9306801230469407A0DF106023E2158
:100CB000A04704460028E7D19DF8063005F0030060
:100CC00023F0030318438DF8060030680123C4683D
:100CD000407A0DF106023E21A0470446D4E7FFF713
:100CE00017FF0028CED1DCE76FF07E04D3E700BF0A
:100CF000BC0D00207047704710B54FF48871044652
:100D000006F03EFA204610BD0B6803604B68436056
:100D10008B688360704710B4D0E9013201685410C9
:100D200001EB6200D20748BF0A595DF8044B48BF87
:100D3000D358184737B5044672B6FF25E06904F06A
:100D400031FAA8B3D4F82431D4F828110133B3FB15
:100D5000F5F2C2EB02229B1A8B4229D0E0690368AC
:100D600001225B690DF107019847D4F82431D4F8CA
:100D700028110133B3FBF5F2C2EB02229B1A8B421E
:100D8000DCD0D4F824319DF80720234483F82420B4
:100D9000D4F824310133B3FBF5F2C2EB02229B1AE3
:100DA000C4F82431D4F82C310133C4F82C31C5E710
:100DB00062B603B030BD0000F7B50546382006F036
:100DC000C9F900F118030361D5E904630446F71873
:100DD0001EB917B114480AF0CBF90F2B019308D9AB
:100DE000002201A904F110000AF0F2F9019B206130
:100DF000A3613A46314620690AF016FA019B22693E
:100E000063610021D1546B6B63632BB15B6805F1A7
:100E1000280104F1280098472B78237020460023EE
:100E2000C4E9023303B0F0BD38540108F8B50546F3
:100E30000E46FFF7C1FF46600446E86818B1214638
:100E4000FFF7F4FFE060AE68274676B13046FFF763
:100E5000B3FFB86047600546F06818B12946FFF750
:100E6000E5FFE860B6682F46EFE72046F8BD0000D2
:100E70002DE9F047D0F8282104460132D0F82401AA
:100E8000FF23B2FBF3F1C1EB0121521A8242ADF50F
:100E9000027D2AD0D4F82821D4F824010132B2FBF3
:100EA000F3F1C1EB0121521A824222D0D4F8282159
:100EB0000132B2FBF3F3C3EB0323D31AC4F8283196
:100EC000D4F82831234493F82420D4F82C31232A51
:100ED00003F1FF335FFA82F8C4F82C310BD184F8A8
:100EE000408204F24123C4F840330DF5027DBDE891
:100EF000F0874FF00008D4F8403304F55072934265
:100F0000F3D0B8F10A0F68D113F8032C3B2A64D14F
:100F100013F8022C3B2A60D113F8013C0D2B5CD155
:100F200004F5107A314912AB02AA50460CF024FEA7
:100F3000022850D122AF3A4602A942A80AF0D0F9BD
:100F400004F55279D4F84C634D4666B106F11000B1
:100F500042A90AF07DF9D6E902320028AABF354637
:100F600016461E46F1E7A94508D005F1100142A832
:100F70000AF06EF935EA200528BF4D4642A80AF06E
:100F80004BF94D4527D000217C2223A839600CF075
:100F90000FFD6B6B2BB9164916484FF4FD7205F027
:100FA00069FB1B683A4612A905F1280098473B786F
:100FB0008BB1114A009702AB4FF4807142A805F043
:100FC0003BFAE56942A80DF01BF82B6802461B6945
:100FD00042A928469847C4F840A3D4F8403383F880
:100FE0000080D4F8403301337DE700BF625401082C
:100FF000C8540108D3540108DF540108C3680BB179
:101000009B681847704738B504468CB1E068FFF715
:10101000FAFF04F12800A568FFF7F0FF04F11000C3
:101020000AF0FAF82046382106F0AAF82C46ECE738
:1010300038BD000010B5064B03600446D0F84C03E1
:10104000FFF7E1FF204601F051FF204610BD00BF31
:101050001055010810B50446FFF7ECFF20464FF489
:10106000587106F08DF8204610BD00002DE9FF41B3
:1010700004461646002300220D46DFF8CC8001F01E
:1010800027FF2E4B2360E561FF2200250021FE276C
:10109000C4F8208004F124000CF08AFCC4F8245128
:1010A000FF22C4F828712946C4F82C51C4F83081B5
:1010B00004F59A700CF07CFC04F51073C4F83452FB
:1010C0002946C4F838724FF48072C4F83C5218466E
:1010D0000CF06EFC04F55271C4E9D351C4F840031E
:1010E000B06884F84853C4E9D515A0B1FFF79EFE57
:1010F00003461A469B68002BFBD1C4F850230346D5
:101100001A46DB68002BFBD17369C4F85423C4F87A
:101110005833C4F84C030A4BE06903930022094B8F
:10112000019369460292009404F05EF86846FFF766
:1011300065FF204604B0BDE8F08100BF10550108EE
:10114000FC540108350D0008F4540108036B8B4270
:1011500005DC406B8842B4BF0020012070470020AE
:101160007047018D07EE901AF8EE677A043017EE9B
:10117000901A03F00BBF00002DE9F04105461E4612
:10118000184B45F8043B04461746284603F05CFF1D
:10119000C4E90C7640F2D353134E23854FF0140864
:1011A0006623A385314684F82A80642204F138003E
:1011B0000CF0E8FA6422B11804F19C000CF0E2FA99
:1011C000642206F1C80104F580700CF0DBFA414698
:1011D000284603F0E9FE2846218D03F001FF204652
:1011E000BDE8F081545601082055010810B5044BA4
:1011F000044640F8043B03F045FF204610BD00BF05
:1012000054560108F0B510688842DDE9055722DB25
:101210001868884202DCB5F90000F0BD0124BC4228
:1012200019DA53F824608E424FEA840010DC04F18E
:101230008044013C53F8242055F824702B58B01AF0
:10124000DB1B93FBF0F3881A13FB007000B2E4E79A
:101250000134E4B2E3E707F18040013852F820405E
:101260008C4202DC35F92000D7E753F820308B425E
:10127000F8DA0124BC4213DA52F8240088424FEA1B
:1012800084030ADB04F18044013CEB5855F82470D8
:1012900052F82420DB1B801AD3E70134E4B2E9E7DB
:1012A0004FF0FF30B9E737B51923019300F580738C
:1012B0000D46009300F1380200F19C0349420446B8
:1012C000FFF7A0FF6421A085684390FBF1F0218D1A
:1012D0000144201D03B0BDE8304003F081BE436BE4
:1012E0008B4205DC806B8842B4BF00200120704730
:1012F000002070472DE9F04105461E46214B45F878
:10130000043B04462846904603F09EFE1E4BA36213
:1013100040F26D73C4E90C381C4BA66393E80700D8
:10132000142704F13C0684F82C7086E8070003F1CA
:101330000C0207CA04F1480686E8070003F1180208
:1013400007CA243304F1540686E8070093E807002F
:1013500004F1600686E807003946284603F024FEBB
:101360004FF47A71284603F03BFE0A2005F0BEFFD9
:10137000A16A6423284691FBF3F103F031FE204675
:10138000BDE8F081985601087953020060560108C3
:1013900010B5044B044640F8043B03F073FE2046AE
:1013A00010BD00BF985601082DE9F041196891421F
:1013B000DDE906C4DDE9085631DBDCF800109142B6
:1013C00004DC236803602B68436023E00121B14201
:1013D00025DA5CF8218090454FEA81071CDC01F199
:1013E000804101395CF8213054F821E055F8211092
:1013F000A8EB0306D21AE359A3EB0E0393FBF6F313
:1014000002FB03E4EB595B1A93FBF6F302FB0312B6
:10141000C0E90042BDE8F0810131C9B2D7E706F169
:101420008041013953F82170974205DC54F821308E
:10143000036055F82130C7E75CF821709742F5DA70
:101440000121B1421CDA53F821E096454FEA8107A9
:1014500013DB01F18041013953F8213054F821C0E8
:1014600055F82110AEEB0306D21AE359A3EB0C0397
:1014700093FBF6F302FB03C4C4E70131C9B2E0E712
:101480004FF0FF3303609FE7036B806A59434FF4CB
:101490007A7391FBF3F1642390FBF3F008447047F7
:1014A00030B587B00323039300F16003029300F18A
:1014B0005403019300F1480304460D4600930A4685
:1014C00000F13C03014604A8FFF76EFF049B236371
:1014D000059BA36229462046FFF7D6FF0146201D43
:1014E00007B0BDE8304003F07BBD000010B5034BF2
:1014F0000360044603F0C2FE204610BDB05D010843
:10150000A0F1E400F2E700BF70B4D0E9013405684F
:10151000661005EB6400E40744BFAC59E35870BCA7
:10152000184770B4D0E901340568661005EB640013
:10153000E40744BFAC59E35870BC184770B4D0E915
:1015400001340568661005EB6400E40744BFAC593C
:10155000E35870BC184770B4D0E9013405686610D0
:1015600005EB6400E40744BFAC59E35870BC18476E
:1015700070B4D0E901340568661005EB6400E40737
:1015800044BFAC59E35870BC184770B4D0E901347B
:101590000568661005EB6400E40744BFAC59E358E6
:1015A00070BC184770B4D0E901340568661005EBCB
:1015B0006400E40744BFAC59E35870BC184700000E
:1015C00000F1080373B5044603600D46D9B108461F
:1015D0000CF016FD0F2805EB0006019007D900223C
:1015E00001A9204609F0F4FD019B2060A36032466A
:1015F0002946206809F022FE019B226863600021D1
:10160000D15402B070BD014809F0B2FD3854010850
:10161000CB68C3600BB15B681847704738B50446A8
:101620008CB1E068FFF7FAFF04F12800A568FFF726
:10163000E5FC04F1100009F0EFFD2046382105F02B
:101640009FFD2C46ECE738BD10B504468068FFF7D7
:10165000E5FF204610BD000070B5144C144D154E2A
:1016600015490422204604F005F829461322204695
:1016700004F000F831461322204603F0FBFF0F4927
:101680001322204603F0F6FF31461322204603F0D2
:10169000F1FF29461322204603F0ECFF08490222FD
:1016A000204603F0E7FF002070BD00BFF80F0020C8
:1016B000A5560108B9560108A0560108CD560108E3
:1016C000A256010838B5FFF7C7FF60B9064D074CB1
:1016D0002B7823B1C82005F009FE07F0FFF920465A
:1016E00001F092FCF4E738BD7C0D002010160020BC
:1016F00038B504461546FFF763FF04F11800294684
:10170000FFF786FF204638BDF8B50546064655F872
:10171000044B8CB90D4F386818B14FF0FF3102F00F
:101720006BFB346824B9284605F0A0FD2C463560D3
:10173000386808B102F078FBAC4204D0044905488F
:101740008B2204F097FF2046F8BD00BF002E00203A
:10175000395701084857010808B50348FFF7D4FF77
:10176000BDE8084005F08ABD242E002008B50348D6
:10177000FFF7CAFFBDE8084005F09EBD242E0020FB
:1017800038B50546064B45F8043B0446FFF7E4FF31
:10179000284603F0BDFF2046FFF7E8FF204638BD8E
:1017A000C057010810B50446FFF7EAFF2046542150
:1017B00005F0E6FC204610BD10B586B0044668462C
:1017C00080E80C0006A800E90C00039110E907006E
:1017D000034BE36084E80700204606B010BD00BF5D
:1017E0001858010808B509F033FDC00F08BD2DE9F0
:1017F000F0418D6804460F4690460E1D012065B1EC
:1018000005F110014046FFF7EDFFD5E9023200284F
:101810002E460CBF15461D46F1E7A0B1FB68B3424A
:1018200004D1256066602046BDE8F081304609F0AD
:10183000B5FB0546414605F11000FFF7D3FF20B187
:1018400000232360EEE73546F4E7C4E90050EAE7F9
:1018500000F10803F7B50360D1E9006304460D46C3
:10186000F7181EB917B1104809F082FC0F2B01932D
:1018700007D9002201A9204609F0AAFC019B20609B
:10188000A36020683A46314609F0CEFC2046019B11
:1018900050F8182B63600021D15405F11801FFF7AF
:1018A000B7FE204603B0F0BD385401082DE9F041E1
:1018B000054638200E4605F04DFC05F110010446A2
:1018C0001030FFF7C5FF2B78E86823700023C4E9C8
:1018D0000233666018B12146FFF7E8FFE060AE68AA
:1018E00027464FF00008BEB1382005F033FC06F162
:1018F000100105461030FFF7ABFF33782B70C5E9B8
:101900000288BD606F60F06818B12946FFF7CEFF0E
:10191000E860B6682F46E6E72046BDE8F0810000A3
:101920002DE9F04FBD4EDFF8C083DFF8C093DFF83C
:10193000C0B3DFF8C0A3ADF5197D4FF4E1333046F5
:101940000322022134AC03F0D3FE3046B44AB54939
:1019500005F0DEF91C22002120460CF029F827466C
:101960000521204603F03CFF0FCF6D460FC597E8D9
:101970000700002385E80700AB4FAC48AC4D4FF49F
:10198000FA7200F09BFDAB49A54AA84805F0C0F9E2
:10199000002341F28832384600F00EFDA04AA649E5
:1019A000384605F0B5F90421A44A204603F048F969
:1019B0000023CDE900464FF47A72404600F0C8FF9C
:1019C0002046FFF7DDFE964A9D49404605F0A0F906
:1019D00021219A4A204603F033F9CDE9004600233D
:1019E00040F6B832484601F0EFF92046FFF7C8FE4E
:1019F00094498B4A484605F08BF919231822009622
:101A0000CDE9013290480023962200F0E9FE844A95
:101A10008E498D4805F07CF94FF4FA738C4A1321F6
:101A20005846FFF7A9FB7E4A8A49584605F070F9E7
:101A3000FA236FF0F90215215046FFF75BFC864947
:101A4000774A504605F064F90096CDE901AB0023D2
:101A5000DFF8A4B232222846FEF774FD7F49704AAF
:101A6000284605F055F90096002341F28832584681
:101A700001F04CF96A4A7A49584605F049F9CDE92E
:101A8000015B43463946704A7648CDF80090FEF730
:101A900005FC7549624A734805F03AF9714B0093A9
:101AA000CDE901690023CDE9038764226F4801F085
:101AB000C3F85B4A6E496D4805F02AF90F216D485D
:101AC000FEF7C6FB564A6C496A48002705F020F924
:101AD0006A4B6760236094E80C00294630A8FFF742
:101AE0006BFE674930AA2046FFF702FE654B0DF1F9
:101AF000A00ACAE9003729469AE80C002CA8FFF78B
:101B00005BFE61492CAA3EA8FFF7F2FD5F4BCDE9D1
:101B1000243724AA0CCA29465046FFF74DFE5C49DB
:101B2000524648A8FFF7E4FD5A4B20AEC6E90037FD
:101B3000294696E80C0024A8FFF73EFE5649574D6B
:101B400052A8FFF73DFD24A958A8FFF761FD544BAB
:101B5000F360544B5449C6F80090C6E901375CA8BD
:101B6000FFF72EFD314662A8FFF752FD4F4B1F9342
:101B70004F4B5049CDF8708066A8CDE91D37FFF76F
:101B80001FFD1CA96CA8FFF743FD4B4B1B934B4B50
:101B90002D4A4B49189270A8CDE91937FFF710FD6F
:101BA00018A976A8FFF734FD464B17932D4B1493D5
:101BB000454B46497AA8CDE91537FFF701FD14A931
:101BC00080A8FFF725FD424B13932A4B1093414BFE
:101BD000414984A8CDE91137FFF7F2FC10A98AA882
:101BE000FFF716FD3D4B0F933D4B3E49CDF830B00E
:101BF0008EA8CDE90D37FFF7E3FC0CA994A8FFF7F9
:101C000007FD2B1DC5E903330A232F71AF606F61F8
:101C10000893274605F1040B70E000BFF80F002081
:101C200098010020ED140008D80D0020280E002097
:101C3000C00F002095240008991E00080000C07FF6
:101C4000992A0008912E0008600E00201525000832
:101C50000CFEFFFFED110008911300085504000869
:101C60006D2C0008400F0020B7020008600F002014
:101C7000C92A0008200E0020530200087905000838
:101C80006B570108D905000871570108390600088B
:101C900077570108850600087D570108C00D002010
:101CA0000C580108012E000881570108005801084E
:101CB0009129000889570108F45701089128000864
:101CC00091570108E8570108B90200089557010823
:101CD000DC5701085502000898570108D057010841
:101CE0002D2D0008A8570108C00E00206016002006
:101CF00040140020A4150020980F00206B694BB100
:101D0000D5F81090394609F11000FFF76BFD002857
:101D100040F099803A4629460AA8FFF768FDDDE9B8
:101D20000A39B9F1000F1CD0002B40F08980D94549
:101D300000F0868009F110013846FFF753FD804618
:101D4000382005F007FA394609901030FFF780FD7A
:101D50005B4609994A46404609F03AF96B690133F6
:101D60006B61089B013B07F128070893C6D198AD2A
:101D7000283D05F11800FFF741F9284609F04CFA13
:101D8000A542F5D10CA8FFF739F910A8FFF736F9ED
:101D900014A8FFF733F918A8FFF730F91CA8FFF7CC
:101DA0002DF93046FFF72AF924A8FFF727F9504606
:101DB000FFF724F9264D2CA8FFF720F930A8FFF7EC
:101DC0001DF92449244A284604F0A2FFA8680023EC
:101DD00035A9C4E903112371A360636180B1FFF7E2
:101DE00065FD03461A469B68002BFBD1E260034663
:101DF0001A46DB68002BFBD16B6922616361A0602E
:101E0000224616491648FFF731F9A068FFF706FC8D
:101E1000114A1449124804F07BFF134B134914482C
:101E2000D3E90023CDE90023092201F0C1F80A4AD1
:101E300010490F480DF5197DBDE8F04F04F068BF5B
:101E40004FF001087CE7B9F1000F7FF470AF88E72D
:101E5000C00D00204916000898010020F80F00204E
:101E6000E01000203510000828580108A0010020CB
:101E700010160020652F000810B50446FFF736FB4A
:101E80002046E82105F07CF9204610BDA0F1E400D1
:101E9000F2E7FFF745BD000010B5054B044640F8DA
:101EA0001C3B03F0EFF8204601F020F8204610BD5F
:101EB0003858010810B50446FFF7EEFF20464821C8
:101EC00005F05EF9204610BD437E37B50446002B71
:101ED0006ED090F84430012B40F08F8190F8403064
:101EE0001C2B00F27F81DFE813F01D00420065002B
:101EF000EC00650083008C00A70028010001A7000A
:101F0000BA00C200D4006500EC00D400DC00E4009C
:101F1000EC000001140114016500280128013C01B6
:101F20004F01620190F8423093B904F11C004FF464
:101F3000FD61019003F046F84FF47D71019803F0C4
:101F40004FF8012384F84230002384F841302FE019
:101F500090F84130092B40F2218200211C3003F01F
:101F60003FF8002384F8413084F842301BE090F8B9
:101F7000422090F84130002A40F010820B2B40F2B2
:101F80000D8204F11C004FF47D71019003F01AF8EA
:101F90004FF4FD71019803F023F8012384F84230D7
:101FA000002384F8413094F84030013384F8403005
:101FB00003B030BD90F8422090F841305AB1092B5F
:101FC00040F2EC81002104F11C0003F009F8002329
:101FD00084F84230E5E70B2B40F2E08104F11C006D
:101FE00040F24751019002F0EDFF40F2A321D1E70A
:101FF00090F8422090F841300AB10B2BE0E7132B08
:1020000067E090F8425090F841300DB10E2BD7E7C1
:10201000182B40F2C3811C304FF4EF61019002F0A5
:10202000D1FF4FF46F71019802F0DAFF012384F8B9
:10203000423084F84150B6E790F8422090F84130A1
:10204000002ABCD10B2B40F2A98104F11C0040F204
:10205000BB31019002F0B6FF40F2DD119AE790F833
:10206000422090F84130002AC7D1132B6DE090F840
:10207000425090F84130002DC8D1182B40F28E818B
:102080001C304FF4FD61019002F09CFF4FF47D7114
:10209000C9E790F8422090F84130002A3FF46EAF33
:1020A0008DE790F8422090F84130002AA5D1132BFB
:1020B00092E790F8422090F84130002AA6D1182BE0
:1020C00007E090F8422090F84130002A7FF477AF83
:1020D0000B2B40F2638104F11C0040F24761019038
:1020E00002F070FF40F2233154E790F8422090F85C
:1020F0004130002A7FF463AF0B2B40F24F8104F193
:102100001C0040F2ED51019002F05CFF40F2F6211C
:1021100040E790F8422090F84130002A7FF44FAF1A
:102120000B2B40F23B8104F11C004FF4B361019092
:1021300002F048FF4FF433712CE790F8422090F8FA
:102140004130002A7FF43BAF0B2B40F2278104F192
:102150001C0040F2FB41019002F034FF40F27D216F
:1021600018E790F8425090F84130002D7FF427AFE7
:102170000B2B40F213811C3040F2B341019002F06E
:1021800021FF40F259214EE790F8425090F841303B
:10219000002D7FF414AF0B2B40F200811C304FF464
:1021A0008E61019002F00EFF4FF40E713BE790F844
:1021B000425090F84130002D7FF401AF0B2B40F2DC
:1021C000ED801C304FF47D71019002F0FBFE019810
:1021D0004FF4FD7102F004FF0123A4F8405084F88D
:1021E0004230E5E60021A0F8401080F842101C3093
:1021F00003B0BDE8304002F0F3BE022B6DD190F881
:102200004030042B3FF6D4AEDFE803F00312213058
:10221000490094F84230002B40F0B88004F11C00D3
:1022200040F6E861019002F0CDFE40F2747185E65F
:1022300094F84230002B40F0A98004F11C0040F6D5
:102240004951019002F0BEFE40F2A46176E694F896
:102250004230002B40F09A8004F11C0040F6D63149
:10226000019002F0AFFE40F2EB5167E690F8423089
:102270004BB904F11C0040F6F711019002F0A2FEE8
:1022800040F2FB415AE694F84130092B40F2868037
:10229000002104F11C0002F0A3FE002364E604F117
:1022A0001C0002210025019002F08CFE0198012102
:1022B00002F096FE0198A4F8405084F84250294656
:1022C00002F08EFE84F8445041F28831204600F03E
:1022D0000EFE41F2883363836AE6032B45D190F802
:1022E0004030062B3FF664AE01A252F823F000BF47
:1022F0004F22000831220008132200080D23000895
:1023000037230008512300089F22000890F842500C
:10231000002DB8D11C304FF47D61019002F052FEC7
:102320004FF4FD61019802F05BFE012384F8423016
:1023300084F841503CE690F84250002DA3D11C3067
:1023400041F2C111019002F03DFE4FF40E61E9E748
:1023500090F84250002D96D11C3041F2EE310190A0
:1023600002F030FE40F6F711DCE7042B7FF420AEDC
:1023700090F8401001290CD0022911D000297FF4D7
:1023800017AE90F84230002B3FF473AF94F8413011
:1023900015E690F84230002BF8D1C6E50133D4E5BC
:1023A0001C30019002F00EFE0198012102F018FE8F
:1023B000002384F8443087E770B5044616460025AC
:1023C00000F086FD064B236065766683172104F1D5
:1023D0001C0002F039FE256484F84450204670BD8C
:1023E00038580108F0B585B0044615460846002760
:1023F00021498DF80F700DF10F020BF0BDFBC6B235
:10240000012E32D19DF80F201B49D31B18BF012389
:102410006376284603F0FFFF9DF80F3084F84430C0
:102420009BB904F11C000221019002F0CBFD019840
:10243000314602F0D5FD41F28831204600F057FDCB
:1024400041F28833638305B0F0BD013B032BFAD81A
:10245000204627640A2100F04AFD0A236383394697
:1024600004F11C0002F0BCFDEDE70449284605B06C
:10247000BDE8F0400BF062BDFA5301084453010877
:10248000036A1A68C3691A4216BF826A426A1B0449
:102490001360704710B5034B0360044600F026FD3F
:1024A000204610BD5058010810B50446FFF7F2FF52
:1024B0002046382104F064FE204610BD70B5064663
:1024C000344600F005FD04AD064B44F81C3B0FCD2F
:1024D0000FC495E8070084E80700736AF2691A6080
:1024E000304670BD50580108064B8362064BC362EC
:1024F000064B0363522380F825304FF4967004F0A6
:10250000F5BE00BF592500089925000811250008CF
:1025100004F0ECBE38B5094B094D036004460220B7
:10252000FEF7A0FB286820B10368DB68984700230A
:102530002B60204600F0DAFC204638BDB858010870
:10254000D816002010B50446FFF7E4FF20466021AE
:1025500004F016FE204610BD30B585B0054608468D
:102560008DF8080011460DF109001A461C460BF0C3
:1025700009F9002207480092631CDBB202AA29462F
:10258000006802F0FDFB003818BF0120404205B092
:1025900030BD00BFD81600202DE9F04186B01546A9
:1025A0000027DFF854808DF80F101A46CDE9047724
:1025B00004468DF81010284604A91E460BF0E2F8D8
:1025C000D8F80000009701230DF10F02214602F018
:1025D000D7FB70B900903346D8F800002A46214650
:1025E00002F0EDFBC01B18BF0120404206B0BDE861
:1025F000F0814FF0FF30F9E7D8160020F0B590F8E1
:102600003430A9B00446002B00F0C88000230CA889
:10261000ADF83030ADF83230ADF83430ADF836309A
:10262000ADF83830ADF83A30FEF73AF9002840F00E
:10263000B5800DF13200FEF77FF9002840F0AE8042
:102640000DA8FEF753F9002840F0A8800DF13600E0
:10265000BDF93070BDF93260BDF93450FEF792F922
:10266000002840F09B800EA8FEF7B2F9002840F049
:1026700095800DF13A00FEF7D1F9002840F08E80E8
:10268000BDF93620BDF93830BDF93A1002EB8202AF
:10269000520002F16E0003EB8303DC284FEA430390
:1026A0007ED803F16E00DC287AD894F848300133E4
:1026B000DBB20A2B84F8483005D10023C4E90F337C
:1026C000636484F848304FF47A7117FB01F00028F6
:1026D00016FB01F14FF47A72666C15FB02F2B8BF7B
:1026E0000F304FF47A750029D4E90FC796FBF5FE39
:1026F000B8BF0F3105FB1E66002AB8BF0F32002E8F
:10270000B8BF7642CDE909E697FBF5F605FB1677EB
:10271000002FB8BF7F42CDE907679CFBF5F705FBAB
:1027200017C6002EB8BF764240F30F10CDE90576EC
:1027300090FBF5F605FB160000B20028B8BF40423A
:1027400041F30F1180B242F30F12049091FBF5F0A8
:1027500005FB101109B292FBF5F305FB13220029CA
:1027600012B2B8BF4942002AB8BF524289B200B281
:1027700092B236B21BB2029101906421009203968C
:10278000164A0FA803F058FEA46B0FA80BF038FCF4
:10279000236802461B690FA92046984729B0F0BD5F
:1027A000B4F850E0E06B4FF47A7C02FB0EF292FB3F
:1027B000FCF20244206CE26303FB0EF393FBFCF299
:1027C000024422640EFB01F30A225343626C93FB22
:1027D000FCF313446364002373E700BF60580108EF
:1027E00073B504461D46164600F072FB254B236068
:1027F000069B0021962EC4E90E3175F10003C4E951
:102800001011C4E9146584F8341084F8481007D214
:102810009621204600F06BFB96220023C4E9142386
:102820004FF4847004F096FCBDF92020BDF91C1013
:10283000054602F06FFB144B14491D60284602F058
:102840008CFA4FF4967004F051FD2046FFF74CFED1
:1028500004F11C00FDF76CFF0020FEF703FA0C20CA
:10286000FEF756F900250DF107008DF80750FEF729
:10287000FBF89DF8073013B12846FEF7ABF9204668
:1028800002B070BDB8580108D8160020801A0600A2
:1028900037B500230546144608460DF107021149D5
:1028A0008DF807300BF068F9C0B2012817D10E4B34
:1028B0001B780F2B01D01E2B0FD19DF807300B4A30
:1028C0000B49003B18BF012385F8343013702046B4
:1028D00003B0BDE830400BF031BB0649F7E70649CD
:1028E000F5E700BFFA530108B80D00207E0D002067
:1028F00057530108995801084453010870B590F8DE
:10290000703086B00446DBB10E4B0F4A1D68D0E92B
:102910001E06A0FB0501002305FB061111F0CAFBF2
:102920000A4A03461821684603F086FD646F68462C
:102930000BF066FB236802461B69694620469847F0
:1029400006B070BD840D002080EE3600CC58010822
:10295000F8B50446069F16461D4600F0B9FA0A4B24
:1029600023600A4BE3614C22391D04F120000AF078
:1029700009FF3B6DE366002384F87030079BE56731
:10298000C4E91D362046F8BDE4580108C0570108C7
:1029900037B500230546144608460DF107021149D4
:1029A0008DF807300BF0E8F8C0B2012817D10E4BB4
:1029B0001B780F2B01D01E2B0FD19DF807300B4A2F
:1029C0000B49003B18BF012385F870301370204677
:1029D00003B0BDE830400BF0B1BA0649F7E706494D
:1029E000F5E700BFFA530108B80D00207F0D002065
:1029F000575301089958010844530108F8B51C3091
:102A00000D4602F00BF9FA2358434FF40973B0FB5B
:102A1000F3F0194B194A1860194B16781C78B4FB5F
:102A2000F6F106FB1141C9B2164A013422F8110031
:102A300000211C700B46CCB2A64204D932F8024BDE
:102A400001312344F7E7104AB3FBF6F314780F4A39
:102A50001168C4F57A77634301FB07334FF47A7149
:102A6000B3FBF1F313600A4A13681844094B106072
:102A7000196829441960F8BDAC0D00209D010020A3
:102A8000880D00208C0D00209C010020840D00206A
:102A9000A80D0020B00D002010B5054B044640F8ED
:102AA0001C3BFEF76DFE204600F020FA204610BDCC
:102AB000E458010810B50446FFF7EEFF20468021D8
:102AC00004F05EFB204610BD10B5034B03600446C6
:102AD00000F00CFA204610BD3459010810B5044628
:102AE000FFF7F2FF2046382104F04AFB204610BDD4
:102AF0002DE9F04104468AB0406A424E424D00F052
:102B0000B5F9218EA06AFFF779FF404B30681A882B
:102B100041F27C53002A08BF1A463D4B19883D4BB1
:102B20001B68B3FBF0F33C48038041F6BC333B48E1
:102B300053434A4393FBF0F342F2D000B2FBF0F26E
:102B4000374813444FF461674FF47A72A1F5DD51B1
:102B500053430088B3FBF0F31D397B43B3FBF2F31F
:102B60002B60304B002263291A7042D894F832301F
:102B70002D4A0133DBB284F832301A2103A803F066
:102B80005BFCD4F8208003A80BF03AFAD8F80030A8
:102B900002461B6903A94046984794F832302349FE
:102BA000FA2B29D133683BB30B7813BB2A68B2FBED
:102BB000F7F30120087007FB13223C20B2FBF0F171
:102BC00000FB1122CDE90012DBB2194A1A2103A839
:102BD00003F032FC256A03A80BF012FA2B680246B8
:102BE00003A91B69284698471249E06A03AAFFF720
:102BF000F9FB0AB0BDE8F0810B7883F001030B709C
:102C0000F7E700BFB00D0020B40D0020A20D00209A
:102C1000A40D0020A80D00208A0D002030DFFFFF4A
:102C2000840D00207C0D0020F4580108810D002047
:102C30000F5901085753010838B50446154600F0EE
:102C400047F9094B2360049BE361059B2362069BC4
:102C50006362079BA362089BE3620023258684F8D6
:102C60003230204638BD00BF3459010810B5034B3F
:102C70000360044600F03AF9204610BD7C59010873
:102C800010B50446FFF7F2FF2046282104F078FA39
:102C9000204610BD30B590F820309DB00446002B82
:102CA00030D008A803F034FC04A804F06BFA089AAA
:102CB0000B9942F210735A43B2FBF1F2059964206A
:102CC00092B25943069BB1FBF3F189B2B2FBF0F328
:102CD000B1FBF0F500FB132200FB151189B292B293
:102CE000CDE9015100923221074A0FA803F0A4FB5D
:102CF000E4690FA80BF084F9236802461B690FA949
:102D0000204698471DB030BD4459010810B504460F
:102D100000F0DEF8044B2360029BE361002384F89B
:102D20002030204610BD00BF7C59010837B5002374
:102D30000546144608460DF1070211498DF8073083
:102D40000AF01AFFC0B2012817D10E4B1B780F2BC7
:102D500001D01E2B0FD19DF807300B4A0B49003BC9
:102D600018BF012385F820301370204603B0BDE85A
:102D700030400BF0E3B80649F7E70649F5E700BF36
:102D8000FA530108B80D0020800D002057530108A8
:102D9000995801084453010810B590F87430C0B038
:102DA00004466BB1074968460BF0C8F8246F6846C3
:102DB0000BF026F9236802461B69694620469847AE
:102DC00040B010BD8C59010838B50446049D00F090
:102DD0007FF8094B2360094BE3614C22291D04F164
:102DE00020000AF0CFFC2B6DE366059B23670023D0
:102DF00084F87430204638BDA8590108C05701082E
:102E000037B500230546144608460DF1070211495F
:102E10008DF807300AF0B0FEC0B2012817D10E4B72
:102E20001B780F2B01D01E2B0FD19DF807300B4ABA
:102E30000B49003B18BF012385F8743013702046FE
:102E400003B0BDE830400BF079B80649F7E7064912
:102E5000F5E700BFFA530108B80D00207D0D0020F2
:102E600057530108995801084453010808B51C300C
:102E700001F0D4FE4FF47A71002341F6E112A0FB79
:102E8000010111F017F9014B188008BDA40D0020B5
:102E900010B5054B044640F81C3BFEF771FC20467C
:102EA00000F024F8204610BDA859010810B50446CA
:102EB000FFF7EEFF2046782104F062F9204610BDAE
:102EC000027E22B103680022DB6802761847704751
:102ED00010B5C0E9022300220023C0E90423024CFC
:102EE00004600023037610BDC05901087047002319
:102EF000C36000220023C0E9042381607047D0E949
:102F0000043210B5D0E90241013342F10002A3427C
:102F1000C0E9043272EB010305DB00230022C0E9A3
:102F200004230123037610BD38B504460025227A18
:102F3000EBB29A4206D9626852F82300FFF7DFFF2E
:102F40000135F4E738BD10B4D0E9013201685410FE
:102F500001EB6200D20748BF0A595DF8044B48BF35
:102F6000D358184738B505460A4B45F8103B044678
:102F7000284602F0A5FA084B2361284602F0A0FA81
:102F800004F13800FEF73AF8284602F01FFB20460D
:102F900038BD00BFE4590108985D010810B504462A
:102FA000FFF7E0FF2046502104F0EAF8204610BD6C
:102FB000F0B5124B027200F1100685B0C0E9003185
:102FC00004463046DDE90A5702F0C6FA0C4B03937B
:102FD0000C4B0193002302934FF47A73A5FB032556
:102FE00003FB075369463046009402F096FA6846A0
:102FF000FEF704F8204605B0F0BD00BFE459010813
:10300000D0590108292F000838B504460025227A36
:10301000EBB29A4207D9626852F8230003689B68B2
:1030200098470135F3E738BD1EF0040F0CBFEFF3EE
:103030000880EFF30980816911F8021C002932D160
:1030400001B590E80F10E047BDE800508CE80300A0
:10305000244B93E80600914208BF70471A6041B9BB
:103060001EF0100F10D1204B186820F001001860DE
:103070000AE02CE9F00F1EF0100F08BF2CED108AAB
:1030800081F822E0C1F838C0906B92F8221061F00C
:10309000FF0E1EF0100F08BFB0EC108AB0E8F00F62
:1030A00080F309887047114A13689942FAD801B52C
:1030B00052F821C00FC8E047BDE80050CCF800002E
:1030C000704701B500F012FFBDE80140EFF3098C35
:1030D000BEE701B500F0CEFEBDE80140EFF3098C7C
:1030E000B6E70000D801002034EF00E0B45A010830
:1030F00008B5014630B96FF0030000F02AF86FF010
:10310000030008BD132001F091FA30B94FF0FF30F1
:1031100000F01FF84FF0FF30F3E70020F1E7000068
:1031200008B5EFF305832BB9EFF3108313B9EFF371
:10313000118333B16FF0050000F00BF86FF005005C
:1031400008BDDFF808C000DFFAE700BFF130000873
:1031500070477047EFF310832BB9EFF311800038FD
:1031600018BF0120704701207047000008B5094BC7
:103170001A7A022A08D0032A0AD04FF0FF3001F051
:1031800013FD4FF0FF3002E003221A72002008BD49
:103190000120FCE7C401002008B5094B1A7A022A75
:1031A0000CD0032A03D102221A72012008BD4FF06D
:1031B000FF3001F0F9FC4FF0FF30F7E70020F5E7B2
:1031C000C401002070B5464C237A012B00F08580A5
:1031D00033B14FF0FF3001F0E7FC4FF0FF3070BD2E
:1031E000404DD5E90B61EB68E3652B8AA4F85430B8
:1031F0003046AB68236400F033F908B1C4F880604E
:10320000D5E90561304600F02BF908B9D4F88060A3
:103210006667D5E90761304600F022F908B9D4F8AD
:103220008060A667D5E90961304600F019F908B950
:10323000D4F88060E6676E6B3EB1D6E90223316850
:10324000304600F077F9C4F88460AE6B3EB1D6E941
:1032500002233168304600F06DF9C4F88860EE6BE7
:103260003EB1D6E902233168304600F063F9C4F874
:103270008C602E6C3EB1D6E902233168304600F0F6
:1032800059F9C4F890606E6C3EB1D6E902233168FA
:10329000304600F04FF9C4F89460AE6C3EB1D6E908
:1032A00002233168304600F045F9C4F89860EE6CAE
:1032B0003EB1D6E902233168304600F03BF9C4F84C
:1032C0009C602D6D3DB1D5E902232968284600F0A8
:1032D00031F9C4F8A0500123237200207FE700BF1A
:1032E000C4010020445A010870B5254D2B7A012BEA
:1032F00007D06FF0060001F057FC4FF0FF34204676
:1033000070BD01F0D7F910B94FF0FF30F3E71D4A57
:103310001D4E1E497068FF2382F8223092F8223039
:10332000D26863F0FF03DB4314BFB3FA83F32023B7
:10333000C3F12003C2F30222934298BF531CFE2222
:1033400002FA03F30F4ADBB2D37701F0B9FA04466D
:103350000028D9D101F0ECFA286101F0D1FA0C482B
:1033600000F086FF00F0EAFF3368DB074CBF022362
:10337000032383F31488BFF36F8F02232B72BEE7FE
:10338000C401002000ED00E0445A0108D3300008D9
:10339000E0010020704738B504460D46FFF7D8FE1F
:1033A00029462046BDE8384001F0C0BB08B5FFF70C
:1033B000F1FFEFF3058333B16FF0050001F0F4FB8B
:1033C0006FF0050008BDFFF7C5FE0028F4D1DFF857
:1033D00008C000DFF6E700BFC531000808B5EFF30D
:1033E000058333B16FF0050001F0DEFB6FF00500DF
:1033F00008BDFFF7AFFE0028F4D1DFF808C000DFFA
:10340000F6E700BFE932000808B5EFF3058333B1F2
:103410006FF0050001F0C8FB6FF0050008BDFFF775
:1034200099FE0028F4D1DFF808C000DFF6E700BFFE
:103430006D31000808B5EFF3058333B16FF0050077
:1034400001F0B2FB6FF0050008BDFFF783FE002816
:10345000F4D1DFF808C000DFF6E700BF99310008BB
:1034600010B598B140EA010313F007030ED11729F4
:103470000AD90160083910220C18846042600B5090
:1034800081684A60C3600123184610BD0023FBE732
:10349000F0B5034670B369B332F003002AD10F319F
:1034A00021F0070103F10806344636686568301BD1
:1034B00025F00305401B814203D930680028F3D171
:1034C000F0BD5F681D680F445F602B44083B58687F
:1034D000874288BF5F6063680A431BB9626004F17A
:1034E0000800EDE723F00303E018E6504260206097
:1034F0000830E5E70020E3E710B580B1C1B1A1F1E4
:10350000080400F108030022A34209D1596821F000
:1035100003044168091B41603AB95A60012010BD9B
:1035200019681A4621B10B46EEE71B681360F5E7F0
:103530000846F4E730B5C0B189B1C2B1CBB10024BF
:10354000C0E9014202FB01F41D190160C36043613F
:1035500005611846013904D1A21A99500121084683
:1035600030BD851805602846F4E70146F7E71146A7
:10357000F5E71946F3E710B50346A8B100F11402C8
:1035800052E8000F10B9BFF32F8F04E0016842E842
:10359000001404B1F4E738B1043353E8002F511C90
:1035A00043E8001404B1F8E710BD30B5F0B1C368CA
:1035B0008B421BD803698B4218D900F114031A6897
:1035C0000A60BFF35F8F53E8002F0C689442F6D176
:1035D00043E8001505B1F2E7043050E8003F5A1EF9
:1035E00040E8002101B1F8E7002030BD6FF0030092
:1035F000FBE7EFF310832BB9EFF31180003818BF0E
:103600000120704701207047D1E9013223B19A604F
:103610008A681AB153607047C262F9E70363704762
:103620002DE9F84F8846074638B131B1B0FA80F33A
:10363000B1FA81F10B441F2B06DC6FF0030100206F
:1036400001F0C4FA002470E008F1030626F0030636
:103650000C3606FB00F9F2B194683CB1A30702D125
:10366000D368332B05D86FF00801E8E7D368002B47
:10367000F9D1D2E90453D2F800A03DB115F0030B03
:1036800001D1994554D96FF00901D8E7002BFAD13F
:103690001CB19B460CE092461546274BD3F8A00080
:1036A000D8B1FFF768FF0446A0B14FF0010B35BB5E
:1036B000214B0022D86F4946FFF7EAFE0546C0B904
:1036C000BBF1000F06D01C4BD3F8A000214658B127
:1036D000FFF76BFF6FF00401B1E7D3F88000012220
:1036E0003421FFF7D5FEDEE7D3F88000FFF704FFB3
:1036F000F0E74A4600210AF05BF94BF0020BFA238F
:1037000023700023C4E90983C4E90B33A360324664
:103710002B4684F802B0C4F804A0394604F10C002A
:10372000FFF708FF044B054A1A672046BDE8F88FEB
:10373000002CE4D1B1E700BFC4010020CD37000860
:1037400010B500F1280353E8002F12B9BFF32F8FF3
:1037500004E0511E43E8001404B1F4E70AB9002064
:1037600010BDC06A01220028F9D0811CD1E84F3F6A
:10377000C1E8442F04B1F9E7DBB2002BF0D0806838
:10378000F1E7036B30B5E3B1CD780024DA78AA42D3
:103790000FD31A46C1E901248AB19160A4B16160D6
:1037A000283050E8003F5A1C40E8002101B1F8E7FA
:1037B00030BD5A681C46002AECD01346E6E7C162C9
:1037C000ECE7C1E90133C1620163E9E7F8B5877845
:1037D00004468FB3C568014600272846FFF714FF4B
:1037E000277005F10C042046FFF7DFFEAB68002BC5
:1037F00048D02046FFF7BFFE0446002842D02846A6
:1038000000F036FD3A460646394600F0B9FE30462D
:1038100000F08AFD6A6A8168064604F10C0009F02E
:10382000B1FFF9232370A770F368E370214628469F
:10383000BDE8F840FFF7A5BF8568AB68002BF5D061
:103840005B78832BF2D1284600F012FD3A460646FB
:10385000394600F095FE304600F066FD06466A6A7D
:10386000806804F10C0109F08DFFF3680BB1E27878
:103870001A7000232370214605F10C00BDE8F840C2
:10388000FFF793BEF8BD00002DE9F0410C46174646
:103890009846054618B10378FA2B00D141B928465D
:1038A0006FF0030101F092F96FF00300BDE8F081C1
:1038B0008368C3B15B78832B15D100F0D9FC01225A
:1038C0000646002100F05CFE304600F02DFD064665
:1038D0006A6A8068214609F055FFF0680028E5D043
:1038E00007700020E2E705F10C00FFF744FE0646F2
:1038F00070B121466A6A0C3009F044FF0024F923B4
:103900003370B470F77031462846FFF73AFFE8E7A6
:10391000B8F1000F10D04146932000F087FE40B16F
:10392000074B2846596900F091FCEFF30983C3E97E
:1039300002476FF00100B9E76FF00200B6E700BF81
:10394000C40100202DE9F0410F4615469846044673
:1039500018B10378FA2B00D141B920466FF003016A
:1039600001F034F96FF00300BDE8F081FFF7E8FEE5
:10397000064600283AD001462046FFF745FE626A17
:1039800006F10C01384609F0FDFE0DB1F3782B70FD
:10399000002504F10C07357031463846FFF705FE67
:1039A000A3680BB90020DFE73846FFF7E4FD0646C1
:1039B0000028F7D0204600F05BFC2946074601228C
:1039C00000F0DEFD384600F0AFFC626A8168074611
:1039D00006F10C0009F0D6FEF9233370B570FB68D0
:1039E000F37031462046FFF7CCFEDBE7B8F1000F5D
:1039F00010D04146832000F019FE40B1074B20460D
:103A0000596900F023FCEFF30983C3E902756FF0F5
:103A10000100A9E76FF00200A6E700BFC401002083
:103A200008B5064B08219A6ED86EFFF7F9FD044BD6
:103A3000D864B0FA80F04009404208BD445A0108F9
:103A4000C40100202DE9F04106460F4690461C4671
:103A5000EFF305834BB196B930466FF0030101F0E7
:103A6000B5F86FF00300BDE8F081FFF7C2FD002854
:103A7000F1D1DFF84CC03046234600DFF3E733785E
:103A8000FA2BE9D1002FE7D0002CE5D106F10C008C
:103A9000FFF771FD054680B1726A39460C3009F0B6
:103AA00071FEF9232846C5E901762B70AC7085F8C4
:103AB000038000F063FA2046D5E76FF00200D2E7FA
:103AC00089380008F8B504460F4616461D46EFF340
:103AD000058343B18CB920466FF0030101F076F8FD
:103AE0006FF00300F8BDFFF784FD0028F2D1DFF886
:103AF00048C020462B4600DFF4E72378FA2BEAD1B2
:103B0000002FE8D0002DE6D12046FFF719FE05462C
:103B100070B100F10C01626A384609F033FE0EB153
:103B2000EB7833702846EC6000F028FA0020D9E7E3
:103B30006FF00200D6E700BF45390008EFF31083AD
:103B40002BB9EFF31180003818BF01207047012016
:103B50007047000070B5A8B38468D0E900566CB116
:103B600014F0030302D1C2681B2A1AD86FF00801AF
:103B7000002001F025F80024204670BDC368002B0A
:103B8000F4D1124BD3F8940030B9D3F8800001225D
:103B90001C21FFF77DFC01E0FFF7EDFC044660B15E
:103BA0000123F522A3700023C4E90233C4E90433DE
:103BB0002270E67065602376DEE76FF0040100F0A6
:103BC000FFFFD9E705460646DBE700BFC40100203A
:103BD000284B70B55D6904460E4635B96FF0070194
:103BE00000F0EEFF4FF0FF3070BD10B10378F52B01
:103BF00007D020466FF0030100F0E2FF6FF00300F2
:103C0000F2E7037E53B9C0E90353EB6A436103B1A2
:103C10001861EC62012323760020E5E7C278D10722
:103C20000DD5C168A9420AD1FF2B06D16FF00F0153
:103C300000F0C6FF6FF00200D6E70133EBE7002E7D
:103C4000F8D093070AD5E06895F9203090F9202044
:103C50009A4203DA80F8203000F01CFB31465320F2
:103C600000F0E4FC18B12946204600F0EFFA6FF0AE
:103C70000100B9E7C40100202E4B5A6970B5044613
:103C800032B96FF0070100F09BFF4FF0FF3070BDBD
:103C900010B10378F52B07D020466FF0030100F038
:103CA0008FFF6FF00300F2E7037E33B96FF00E0170
:103CB00000F086FF6FF00200E9E7C168914202D090
:103CC0006FF00D01F4E7013BDBB2037613BB4369F0
:103CD0000BB1016919612169F1B14B6192F9213090
:103CE000D56ADDB982F82030A36883B1204600F0A0
:103CF000BFFA06462A46294600F042FCF36A636191
:103D0000C4E9036503B11C610123F462237600203A
:103D100000F01CFB0020BAE7D362DFE7E9788907EF
:103D200006D5A96821B191F920108B42B8BF0B4686
:103D30006D69D6E7C40100202DE9F0410446002654
:103D400001270CB9BDE8F081E378D4F814801B0793
:103D500012D5A36826767BB1204600F089FA0022AE
:103D60000546114600F00CFCEB6A6361C4E903569A
:103D700003B11C61EC6227764446E2E710B4C378D5
:103D80009B071DD5C06890F92120C36ADC78A40781
:103D900009D59C688C4208BF8C6824B194F92040F6
:103DA000A242B8BF22465B69002BEFD190F92030C8
:103DB000934205D080F820205DF8044B00F06ABAE9
:103DC0005DF8044B7047000008B50246EFF3058329
:103DD00033B100206FF0050100F0F2FE002008BDB5
:103DE000FFF7ACFE0028F4D1DFF808C0104600DF72
:103DF000F5E700BF553B000808B50246EFF3058321
:103E00003BB110466FF0050100F0DAFE6FF00500DF
:103E100008BDFFF793FE0028F3D1DFF808C0104675
:103E200000DFF5E7D13B000808B50246EFF3058354
:103E30003BB110466FF0050100F0C2FE6FF00500C7
:103E400008BDFFF77BFE0028F3D1DFF808C010465D
:103E500000DFF5E7793C000810B5D0E85F3F5A1C59
:103E6000914200D80022C0E8542F04B1F5E798B27F
:103E700010BD000038B51C4C00F056FDE36801335E
:103E8000E36000F021FA002000F060FA236D03B136
:103E90009847226C32B3A369E16B994203D0D96988
:103EA000E36301B9DA61DA69C2B9237A022B19D165
:103EB000656ABDB1E36B95F9202093F920309A42F1
:103EC00010D1284600F0DDF9E06B00F0F5F9284646
:103ED00000F034FA236CE563EB6103E0013ADA6148
:103EE000002AE2D038BD00BFC401002070B5224CCA
:103EF00004F1560504F15A06B4F85410D5E85F3FB2
:103F000013B9BFF32F8F04E05A1EC5E8502F00B13C
:103F1000F4E79BB25BB33046FFF79EFFE36D53F8C7
:103F2000200020B30378F13B082BE5D801A252F81A
:103F300023F000BF593F0008F93E00085F3F00082A
:103F4000F93E0008F93E0008633F0008673F00089B
:103F5000F93E00086B3F0008236E9847CCE7636E7C
:103F6000FBE7A36EF9E7E36EF7E7236FF5E7BDE83C
:103F70007040002000F0EAB9C401002070B5164C72
:103F80000546B4F8541004F15602D2E85F3F994256
:103F900002D8BFF32F8F04E0581CC2E8560F06B1B9
:103FA000F3E79BB2994205D829460220BDE870404C
:103FB000FFF7F1B904F15800FFF74EFFE36D43F846
:103FC0002050637A23B9054B4FF080525A6070BD80
:103FD0000123A372FBE700BFC401002000ED00E055
:103FE000EFF310832BB9EFF31180003818BF0120D5
:103FF0007047012070470378F12B00D07047C068EC
:10400000F9E7000010B5C469621CD0E904310CD195
:1040100003B1596142691AB113610023436101E0A0
:10402000074A13630023C36110BD1BB1DA695961EC
:104030002244DA614269002AEED1014AD362F1E7F3
:10404000C401002010B50A4A90F9201001234370E2
:10405000536A1C321BB193F920408C4205DCC0E945
:104060000232906003B1D86010BD1A469B68F1E738
:10407000C4010020014B5869704700BFC4010020F3
:1040800028B10378F12B01D1406B704700207047B5
:10409000084B5A6A012022B9DA6A2AB91B6B33B974
:1040A000704792680130F6E712690130F5E71B6945
:1040B0000130F4E7C401002010B5002303808378A9
:1040C0009A07044608D513F0100F016B0E4B0FD062
:1040D000D3F88400FFF769FAA378DB0712D50A4BFF
:1040E000D3F88800214638B1BDE81040FFF75DBA2B
:1040F000586FFFF701FAEFE7BDE81040D3F88000F2
:10410000FFF7FAB910BD00BFC401002008B500F0E8
:1041100063FDDFF810C000DF4FF0FF31002000F03A
:1041200049FDFEE7E94500080246B8B10378F12BE6
:1041300014D10B4B1B6813F0040010D0136B09490A
:10414000186888420AD1526B0420904200D370470D
:104150001958B1F1CC3F02D10430F6E70020704786
:10416000445A0108A52E5AE210B570B109B3124A9B
:104170000346546943F8044B546A012034B9D46AA5
:104180005CB9126B0AB181420ED810BD8142F6D0E3
:1041900043F8044B0130A468F0E78142F1D943F8B9
:1041A000044B01302469EBE743F8042B013012691A
:1041B000E8E70846E9E700BFC4010020C278D2075B
:1041C000034601D4FFF778BF04220549427000225C
:1041D000C2604A6B826002B1D0604B63704700BF1F
:1041E000C4010020930710B502F0010422D400F1AD
:1041F000280384B153E8000F00EA01028A4203D089
:10420000BFF32F8F002005E020EA010243E80024DD
:1042100004B1EFE710BD53E8000F084203D1BFF32C
:104220002F8F002005E020EA010243E8002404B1BA
:10423000F1E7EFE7806A01EA00031CB18B4218BF87
:104240000020E7E7002B08BF0020E3E710B591F955
:10425000202083681BB193F92040944205DAC1E91C
:104260000230816003B1D96010BD18469B68F1E748
:1042700083689A68826002B1D0600022DA601846D2
:104280007047C2682AB18368936003B1DA60002383
:10429000C360704710B5044664B12378F12B07D092
:1042A000FFF7EFFF01462046BDE81040FFF7CEBF05
:1042B000E468F1E710BD00000123014643700148A6
:1042C000FFF7C4BFE001002038B5164DEC6A44B3D7
:1042D000E369013BE36123BB6378732B06D009D804
:1042E000532B0BD003F0DF03432B0DD12046FFF7F8
:1042F00082FE09E003F0EF03832BF6E72046FFF789
:104300007AFE2146FFF73AFD2046FFF7BAFFFFF796
:10431000D3FF246924B1E369002BDDD0002363615E
:10432000EC6238BDC401002090F82230826B13F09B
:10433000100F0CBF602020201044704702234370F0
:10434000014B9861704700BFC401002070B5124D49
:1043500004462E7A696990B9022E0FD16C6A6CB14D
:1043600094F9202091F920309A4207DD2046FFF78A
:1043700088FF0846FFF766FE6670AC6170BD022ECE
:1043800005D190F9202091F920309A42F1DC2046A5
:10439000BDE87040FFF790BFC40100202DE9F04F49
:1043A00085B00391019028B96FF0030100F002FC81
:1043B0000024BEE0002A4AD0966846B1B00702D178
:1043C000D368432B06D86FF008010020EEE7D368CE
:1043D000002BF8D1D2E90449976944B1610703D1B0
:1043E000B9F1000F40F0B1806FF00A01EDE72FB195
:1043F000791E372903D96FF00B01E6E71827B9F1C9
:10440000000F40F0A680D2E900B3029366BB564D80
:10441000D5F8880008B3FFF7AEF8064600283DD06F
:104420004FF00108DFF840A1002C42D1B9F1000F94
:104430001DD14E4BDAF88400D3F85490B8B1FFF791
:104440009AF80546E0B148F01008344623E0934658
:104450001446182791460292D9E7D5F88000012228
:104460004421FFF715F8D8E74FF00008DAE7DAF84B
:10447000740022464946FFF70BF805460028E4D1B0
:10448000B8F1000F13D0DAF8885031464DB1284604
:10449000FFF78BF8002548F0020864B96FF00401BB
:1044A00093E7DAF88000FFF727F82C46F3E7454654
:1044B000F1E72546344640F2F11222800022C4E999
:1044C0000222C4E90422C4E90622C4E90922C4E99B
:1044D0000B25A9F14002029BE3702A44019BA263D1
:1044E0007FB2234AE363FD2184F80280C4F804B05C
:1044F00084F8207084F821706184C4F834902A60B4
:104500001A4A1268530718D4A36B342218460021A4
:1045100009F04EFA174A4263019A82634FF08072A3
:10452000C263039A0262144BCAF860302046FFF758
:104530000DFF204605B0BDE8F08F29F00302443A94
:10454000CC21281D09F034FADEE7002F7FF450AFAC
:10455000182719F0070F7FF447AF0849A9F1480061
:1045600088427FF650AF3FE7C4010020445A01085B
:10457000A52E5AE20D410008A5450008B7FFFF7FB0
:1045800038B505461446FFF7CFFE01602846FFF711
:1045900039FD1CB1BDE83840FFF7D8BEBDE8384052
:1045A000FFF78ABE10B54378332B04460CD1416A1D
:1045B00090F82320FFF716FE014628B1204600227E
:1045C000BDE81040FFF7DCBF10BD10B504468069A0
:1045D00018B100221146FFF7D3FF6378232B02BFE7
:1045E000A36800229A6110BD70B50F4C267A022E86
:1045F00018D1636AB3B16569E86AFFF79DFB284685
:10460000FFF7E3FF04F11C00FFF732FE4670A061E4
:10461000EFF30983AB63002363612846BDE8704074
:10462000FFF7CCBD70BD00BFC401002038B51F4CE2
:10463000237A022B35D1636A002B34D063694A1C7C
:10464000587016D1226B002172B94FF0FF30C3E9C8
:104650000421D86159B10B611548FFF709FE022307
:104660004370A061012038BD11461269ECE7236355
:10467000F2E7E26A002012B1D569A9420BD2C3E980
:104680000420D96158B10361002AE5D0D069536193
:10469000411AD161E0E71046491B1269EBE7E3627A
:1046A000F2E70020DFE71846DDE700BFC401002085
:1046B000E001002038B50D4C0D48A26D0D4D0021D4
:1046C000FFF76CFE636EA8625BB1984758B9E26D64
:1046D000E96C206EFFF762FEA864003818BF012065
:1046E00038BD0120FCE70020FAE700BF445A01086A
:1046F000254B0008C401002010B50446EFF30583E4
:1047000033B100206FF0050100F054FA002010BD15
:10471000FFF766FC0028F4D1DFF808C0204600DF70
:10472000F5E700BF9D43000808B5EFF3058313B11B
:10473000054B586908BDFFF753FC0028F8D1DFF896
:104740000CC000DFF6E700BFC40100207540000880
:1047500008B50246EFF305830BB1002008BDFFF753
:104760003FFC0028F9D1DFF808C0104600DFF5E76C
:104770008140000808B50246EFF305830BB1002025
:1047800008BDFFF72DFC0028F9D1DFF808C010465E
:1047900000DFF5E72941000808B5EFF305830BB109
:1047A000002008BDFFF71CFC0028F9D1DFF804C089
:1047B00000DFF6E79140000808B50246EFF30583F5
:1047C0000BB1002008BDFFF70BFC0028F9D1DFF882
:1047D00008C0104600DFF5E76941000830B50C4D10
:1047E0006B6C002213B11C698C420AD9C0E9022308
:1047F00001611BB11C699860611A19612AB1D0600E
:1048000030BD1A46091BDB68ECE76864F8E700BFB7
:10481000C40100202DE9F041184D6C6C54B323699C
:104820006E69013B23610127236913BBE3680BB168
:10483000A2689A606B640023E86C1A4604F11801C0
:10484000FFF700F958B1D5E90583214603206B61D4
:10485000FEF7A1FD6B6913B9B04508BF0026E378E8
:10486000012B09D161692046FFF7B8FF6C6C002C61
:10487000DAD16E61BDE8F0816770F7E7C40100200E
:1048800008B5FFF7CDF818B9034B044A1A6508BDFF
:104890004FF0FF30FBE700BFC401002015480008BF
:1048A00007B504464FF0FF33002269462046FFF764
:1048B00009F90028F6D1DDE900309847F2E7000059
:1048C000A8B10C4B1B68B3FBF0F00138B0F1807F4E
:1048D0000DD2094BFF2283F823204FF0E02306225C
:1048E0001A61586100209861044B187070474FF0AE
:1048F000FF3070477803002000ED00E0281D002005
:10490000074B1A782AB100221A70064B4FF08062CA
:104910005A604FF0E022136943F0010313617047BE
:10492000281D002000ED00E04FF0E0231B697047D8
:104930004FF0FF307047000008B5094B094A1A6074
:10494000094B9B1A094A1360094B0A4A1A600A4B21
:104950009B1A0A4A136000F051F800F083F800BF78
:10496000901D0020007C0120008001208C1D002073
:104970002C30002088320020007C012028300020CC
:104980000E4838B50E4B03600B250E4B45601C24BA
:10499000C4608360FFF718FA0B4B18600B480C4B90
:1049A000C460C0E900350B4B8360FFF70DFA0A4B7A
:1049B0001860BDE8384008F001BB00BF5C1D002056
:1049C000185B0108701D00206C1D00202C1D0020AC
:1049D000255B0108401D00203C1D0020FCF772BE35
:1049E000024B4FF0FF311868FFF706BA6C1D00202C
:1049F000014B1868FFF718BA6C1D002008B501F0CC
:104A000099F90C4B0C4998684FF00053C21802F109
:104A10006042126843F8042B8B42F7D1054B4FF0EC
:104A200000529A6003F058FB04F02EF9BDE80840EC
:104A300000F015B800ED00E09401002070477047C9
:104A400008B500F043F8FFF7F9FFFFF799FFFFF70C
:104A5000F6FF02F055F8BDE80840FFF7BFBFFEF7CC
:104A6000A5BC0000114C124B23614FF480536361CD
:104A70004423E3600F4BA360182307B5A3610E48DE
:104A80000E4B236022460021FFF736FE034628B96D
:104A90000B49009022460B4802F03AF8FEF79EFCC4
:104AA0000023094900931A46F5E700BF982D00201E
:104AB000981D0020BC2D0020414A00083F5B0108E2
:104AC000445B01081D010180605B01081FB5064BB6
:104AD0000FCB6C4684E80F002046FFF775F9034BB7
:104AE000186004B010BD00BF785B0108002E0020E4
:104AF00073B506460C46154602F004F858B906345C
:104B00002ABF064B064953F824100023009332466F
:104B1000284601F0FDFF02B070BD00BF3C5D0108FA
:104B2000905C010808B500F071F8000007B500239B
:104B3000421E00930023042A19D8DFE802F003087C
:104B40000C1014000C490D48012201F0E1FF0C4942
:104B50000C480222F9E70C490C480322F5E70C49FE
:104B60000C480422F1E70C490C480522EDE7024607
:104B70000B490C48E9E700BF885B0108250102806A
:104B8000A95B010826010280CE5B01082701028093
:104B9000035C0108280102803E5C01082A010280B2
:104BA0007E5C010800010280014A0146FFF7A0BFB8
:104BB00031010180014AFFF79BBF00BF3201018034
:104BC000014AFFF795BF00BF33010180014AFFF79B
:104BD0008FBF00BF3801018010B5FFF7A5FD034B63
:104BE0001B6813B1BDE81040184710BD202E0020EF
:104BF00008B501F0FFFD01F0A5FF01F0DDFF01F0B8
:104C0000B7FFBDE8084001F00BBE000008B5024C3C
:104C100023689847FCE700BF6802002038B50546C6
:104C2000044655F8043B9B689847284602F016FE58
:104C300023680546DB6820469847284638BD0000B3
:104C400013B5084B0360044602650191FCF784FD2F
:104C50000199201D02F030FC2046FCF787FD20461C
:104C600002B010BDC0570108036801221B69002172
:104C70001847036800221B69114618476FF015009A
:104C800070470000C36810B52BB9054905484FF4BB
:104C9000FD7201F0EFFCBDE810401B68184700BF33
:104CA000C8540108D354010807B5019001F0A2FDD2
:104CB0000198012102F092FE03B05DF804EB01F0CF
:104CC000AFBD07B5019001F095FD0198002102F0FC
:104CD00085FE03B05DF804EB01F0A2BD07B5CDE998
:104CE000001001F087FDDDE9001002F073FE03B053
:104CF0005DF804EB01F094BD416830B4034671B136
:104D0000D0E9032000F0010402B944B1451001EBE1
:104D100060000CB149598A58996830BC104730BCC2
:104D200070470000064B10B504460360806A08B166
:104D300001F0A4FB201DFCF761F9204610BD00BF67
:104D40005C5D010810B50446FFF7ECFF20464FF408
:104D5000847102F015FA204610BD036870B5044650
:104D60000D461B68984704F13000C4F8D850294616
:104D700002F050FF236820465B68BDE8704018478A
:104D80007FB506461D4656F8303BCDE902211B682B
:104D9000044698479DF8203083F00103DDE90221A5
:104DA000009330462B4603F087F8236806465B687D
:104DB00020469847A81B18BF012004B070BD7FB5DE
:104DC00006461D4656F8303BCDE902211B680446D5
:104DD00098479DF8203083F00103DDE9022100931C
:104DE00030462B4603F008F8236806465B682046E9
:104DF0009847A81B18BF012004B070BD70B590B0D3
:104E00000D46144600211C2202A808F0D1FD0126FF
:104E100000231A46294602A8009600F0E4FC1C2252
:104E2000002109A808F0C4FD00231A460096214677
:104E300009A800F0D8FC0A9B1A68099B1A4203D102
:104E40006FF0010010B070BD039B1968029B194000
:104E500043D109A8FFF742FF09A8FFF725FF0A245D
:104E6000002109A8FFF73AFF099B0C9A1B04136065
:104E7000052002F0CDF9012109A8FFF72FFF0B9BB8
:104E8000099A1A60052002F0C3F9013CE8D102A892
:104E9000FFF70AFF029B059A1B041360052002F02E
:104EA000B7F90B9B099A1A60052002F0B1F9049B2F
:104EB000029A1A60052002F0ABF902A8FFF701FF81
:104EC00009A8FFF7FEFE0A9B1A68099B1A42B7D091
:104ED000039B1A68029B1A42B2D00020B2E710B5B9
:104EE00000210446242240F8041B08F061FD2046FE
:104EF00010BD08B5DC30FCF707FCBDE8084002F047
:104F0000BDB908B5DC30FCF7FFFBBDE8084002F096
:104F1000D3B90000F8B51A4B03600D46194B436135
:104F2000002100F130070446C0E90711C0E909116A
:104F30000161818516468061A822384608F038FD57
:104F4000114BC4F8D83004F1DC00FFF7C8FF20464D
:104F5000FFF7CFFF32462946A4F80451A4F80661B2
:104F60002046FFF74BFFB4F90621B4F90411384687
:104F700002F008FF2046FFF7C4FF2046F8BD00BF3F
:104F80005C5D0108F94C0008A086010007B5CDE979
:104F9000001001F02FFCDDE9001003F0BFF903B0B1
:104FA0005DF804EB01F03CBC07B5CDE9001001F061
:104FB00021FCDDE9001003F09FFB03B05DF804EB7A
:104FC00001F02EBC07B5CDE9001001F013FCDDE9BE
:104FD000001003F031FA03B05DF804EB01F020BCDF
:104FE00007B5CDE9001001F005FCDDE9001003F084
:104FF00088FB03B05DF804EB01F012BC837E10B5B2
:1050000004461BB901F09EFD0123A37610BD837EEB
:1050100010B504461BB101F0ABFD0023A37610BD13
:1050200010B5044601F0E6FBE37E4BB9B4F9181065
:10503000204603F09DFA2046FFF7E0FF0123E376C8
:10504000BDE8104001F0ECBB10B50023002204467F
:1050500001834383C2610362FFF7E2FF204610BD74
:1050600010B5044601F0C6FBE37E3BB1204603F0D9
:105070004FF92046FFF7CBFF0023E376BDE8104051
:1050800001F0CEBB10B50446FFF7EAFF204610BD85
:105090007047416830B4034671B1D0E9032000F095
:1050A000010402B944B1451001EB60000CB149594B
:1050B0008A58996830BC104730BC704770B500F111
:1050C0004C06B0F9C020B0F9BE100446304603F0DB
:1050D00019FCD4E932530DB9DA070ED55A1004EB96
:1050E0006300DB0748BFA35894F8D01048BF5D5950
:1050F000B4F9D220B4F9D430A847D4F8B810304667
:1051000003F0DAFB224630460249BDE8704002F067
:1051100019BB00BF195300082DE9F04198461E4BFA
:1051200003601E4B436000251D4B856016464C22D4
:105130000446C0E90555C0E907550F46C36085849C
:1051400045634564A0F8485029460061104408F0C2
:105150002FFC40F20113A4F8BC304FF6FF73204639
:10516000C4E92D58C4E93155C4E93655C4F8A450F2
:10517000A4F8BE70A4F8C060C4F8CC5084F8D05035
:10518000A4F8D230A4F8D430C4F8E050FFF796FF6A
:105190002046BDE8F08100BF745D0108BD500008E5
:1051A0009350000838B50546044655F84C3B1B683B
:1051B0009847284603F030FB236805465B68204685
:1051C0009847284638BD38B50546044655F84C3B47
:1051D0001B689847284603F037FB236805465B6841
:1051E00020469847284638BD03682DE9F341054617
:1051F0001B6816460F46984795F8BC30340103B13A
:10520000B6B195F8BD300BB1012E11D098342819E4
:10521000B84206D00190FBF7F1FE01983946FCF741
:10522000F7F92B685B68284602B0BDE8F0411847E3
:10523000983401F0DFFA2C44FA68E36805F14C0871
:105240009AB10BB901F07EFCA74206D02046FBF7CD
:10525000D5FE39462046FCF7DBF9012231464046AF
:1052600002F07CFA01F0DCFADBE70BB101F080FC24
:105270002046FBF7C3FE0022E260EFE730B51B4B90
:10528000036085B000252A46694604460395FFF76A
:10529000ABFF6846FBF7B2FE012269462046039544
:1052A000FFF7A2FF6846FBF7A9FE94F8BC3013B9DC
:1052B00094F8BD301BB104F14C0003F045FA04F141
:1052C000A800FBF79BFE04F19800FBF797FE04F1A2
:1052D0003800FBF793FE04F12800FBF78FFE206AED
:1052E00008B101F0CBF8204605B030BD745D01086F
:1052F00010B50446FFF7C2FF2046E42101F040FF4D
:10530000204610BD4C3002F079BA10B54C300C4636
:1053100002F090FA204610BD00EB0110983008B55D
:10532000C3680BB1FFF7AEFC08BD036870B5044657
:105330001B680D46984794F8BC30AB422BD065B142
:1053400094F8BD304BB9A2686368511004EB620059
:10535000D20744BF6258D358984701F04BFA05B3BF
:10536000D4F8A4305BB104F19800FFF78BFC01F096
:10537000E9FB0122002104F14C0002F0EFF901F0F9
:105380004FFA84F8BC5035B994F8BD301BB904F11C
:105390004C0003F0D9F9236820465B68BDE87040F3
:1053A00018472A46294604F14C0002F0D7F9D4F8F0
:1053B000A430002BE3D001F0DBFBE0E7036870B51D
:1053C00004461B680D46984794F8BD30AB422BD07D
:1053D00065B194F8BC304BB9A2686368511004EB16
:1053E0006200D20744BF6258D358984701F002FACE
:1053F00005B3D4F8B4305BB104F1A800FFF742FC68
:1054000001F0A0FB0122114604F14C0002F0A6F9C4
:1054100001F006FA84F8BD5035B994F8BC301BB9D8
:1054200004F14C0003F090F9236820465B68BDE866
:10543000704018472A46012104F14C0002F08EF911
:10544000D4F8B430002BE3D001F092FBE0E770B564
:10545000D0E90213D0E908250446521845EB0303AE
:1054600000F0A4F8636B2BB104F128001B68BDE8C1
:105470007040184770BD884270B504460D460AD08A
:10548000FBF7BCFDEB68E3602BB1294620465B6867
:10549000BDE87040184770BD38B50446154600F0A9
:1054A0006FF8064B236000220023C4E90823002381
:1054B000636384F83850204638BD00BF985D01080A
:1054C00013B5044601A800F0E1FF204600F078F88B
:1054D000636B23B194F838300BB101F049FB04F150
:1054E0002800FBF78BFD0023636301A800F0D6FFC3
:1054F00002B010BD70B5054614461E4600F060F8B7
:10550000C5E90846A86900F0EBFB221846EB010349
:105510002846BDE8704000F049B8F7B5044601A838
:105520001D460F46164600F0B1FF636B23B994F891
:1055300038300BB101F006FB394604F12800FFF7C3
:105540009AFF32462B462046FFF7D4FF01A800F011
:10555000A5FF03B0F0BD000010B5044600F0D6FB77
:10556000012201462046FFF797FF024B23602046A9
:1055700010BD00BF8C5D010803681B681847000060
:1055800010B50446074B236000220023C4E9022320
:1055900000230846A161C4E90433034900F02FFB4E
:1055A000204610BDA45D01087955000807B500909C
:1055B00000F10801806900F060FB03B05DF804FBB6
:1055C00000F10801806900F070BB000010B5034BCA
:1055D00003600446FFF7F4FF204610BDA45D0108F8
:1055E0000020704700290CBF6FF0180000207047A2
:1055F0000120704770476FF01C0070476FF01C006F
:1056000070476FF0150070476FF01500704701206C
:10561000704701207047002070470020704770B528
:1056200011F0010405468EB204D0FFF7BBFD041E45
:1056300018BF0124F30605D52846FFF7C4FD08B1BD
:1056400044F01004204670BDA0F1E400FFF7E7BF6E
:1056500008B5FFF76AFE002008BDA0F1E400FFF7DF
:10566000F7BF08B5FFF7AAFE002008BDA0F1E400CF
:10567000FFF7F7BF2DE9F04106460D461746C2B1C8
:1056800001F0B5F880F0010313F0FF0403D0336894
:1056900030461B68984705EB070815F8011B304694
:1056A000FFF733FEA845F8D11CB1336830465B687C
:1056B00098473846BDE8F081A0F1E400FFF7DABF73
:1056C00038B504460D4662B103681B68984720460A
:1056D000FFF718FE2870236820465B689847012072
:1056E00038BD1046FCE7A0F1E400FFF7E9BF000079
:1056F00010B50446FFF710FD044B03F108024433D4
:105700002260C4F8E430204610BD00BFA85D010847
:1057100070470000EFF3108372B6054A117831B973
:105720000449DB4303F001030B700123137070473E
:105730004D2E00204C2E002008B5EFF31083DB43E4
:1057400013F0010304D006490648362200F092FF08
:10575000054A1370054B1B7803B162B608BD00BF44
:105760007D5E0108995E01084D2E00204C2E002020
:10577000014B1878704700BF4D2E002070B50E46C3
:105780000446154602F006F9013609D020460021EC
:1057900002F024F929462046BDE8704002F01AB90B
:1057A00070BDF8B50F46044615461E4602F0F2F8E5
:1057B000013710D020685EB1A3681860012120462F
:1057C00002F00CF929462046BDE8F84002F002B983
:1057D000E3680004F1E7F8BD13460022FFF7E1BFDC
:1057E0000022FFF7F9BF2DE9F0411746069E044657
:1057F0000D461A4667B9FFF7C1FF013503D022688D
:105800001EB1A3681A60BDE8F081E3681204F9E7ED
:105810003346BDE8F041FFF7C4BF00001FB5431C8D
:1058200010D105B05DF804FB83420AD1896803906A
:1058300002F08EFC0398002105B05DF804EB02F045
:1058400011BD0C31B1F900305A1CEDD100230246D4
:1058500002490348009301F05BF900BFB35E010801
:1058600030010180884207B502460AD0431C08D0A7
:10587000013105D0002305490548009301F048F99E
:105880000146084603B05DF804FB00BFC45E010892
:1058900030010180B1F900305A1C01D1184670471F
:1058A000834201D1486870470C31F3E7421C13B5BD
:1058B00004460AD0FFF7EEFF431C06D1002304493B
:1058C00004480093224601F023F902B010BD00BF46
:1058D000D55E010830010180B1F900305A1C01D1B8
:1058E00018467047834201D1886870470C31F3E74E
:1058F000F8B5446894F832608EBB03685B689847DB
:10590000216A81422BD0236994F934202062411A04
:105910001940A368A1FB03C1CAB1656A15EB0C0568
:1059200041F10001002A1BDBC2F12000A2F120039B
:1059300025FA02FC01FA00F021FA03F34CEA000C0C
:105940004CEA030CD1400CFA02F2AA1A6262D4E9C2
:105950000A3213EB0C0341EB0201C4E90A31F8BD32
:10596000E76833463A4628460EF0A4FB844607FB18
:1059700010506062EBE7824206D98A420BD9884216
:1059800094BF002001207047884206D98A428CBF0C
:105990000020012070470120704700207047000060
:1059A0002DE9F74347683B6B23F07F4929F0FF0956
:1059B0000646B9F1000F5FD1FFF79AFF7B68002B15
:1059C0005DD0D3E90041D7E90A23A2428B4105D338
:1059D00033685B6903B0BDE8F04318477568D5E9E3
:1059E0000A03D5E90582241A61EB030CEB69A24294
:1059F00073EB0C031ED3EB68A3FB044103FB0C11F8
:105A000095F933309BB1AA68501E001941F100018D
:105A1000002B1DDBC3F1200CA3F1200220FA03F4BC
:105A200001FA0CFC44EA0C0421FA02F21443A045EA
:105A300028BFA0462A6A3B6A90442A6908EA020203
:105A400093420AD11349144840F2C91200F012FEE1
:105A50004B460EF02FFB0446E9E7336801921046EF
:105A60001B69984733685B689847019A0146386A12
:105A7000FFF781FF0028ABD103B0BDE8F0837B695D
:105A8000386A3A69184433681B69104003B0BDE8AE
:105A9000F04318473E5F0108505F01084368F7B5BF
:105AA00093F830200546002A7CD193F83230002B41
:105AB00078D103681B6898472B68DB6998470368AF
:105AC0002BB93949394800931A4601F021F8384C6E
:105AD00019462246B1FBF4F402FB14141146002CC3
