:020000040800F2
:1000000000800120D57D0008257E00084568000895
:100010004B6800085168000857680008000000009D
:10002000000000000000000000000000E9360008A9
:10003000257E000800000000833700089337000881
:10004000257E0008257E0008257E0008257E000804
:10005000257E0008257E0008257E0008257E0008F4
:10006000257E0008257E0008257E0008257E0008E4
:10007000257E0008257E0008257E0008257E0008D4
:10008000257E0008257E0008257E0008000000006F
:10009000000000000000000000000000257E0008B5
:1000A000257E0008257E0008257E0008257E0008A4
:1000B000257E0008257E0008257E0008257E000894
:1000C000257E0008257E0008257E0008257E000884
:1000D000257E0008257E0008257E0008000000001F
:1000E000257E0008257E0008257E0008000000000F
:1000F000000000000000000000000000257E000855
:1001000000000000257E0008257E0008257E0008EE
:1001100000000000000000000000000000000000DF
:10012000257E0008257E0008257E0008257E000823
:10013000257E000800000000000000000000000014
:10014000000000000000000000000000257E000804
:10015000257E0008257E0008257E0008257E0008F3
:10016000257E0008257E0008000000000000000039
:10017000000000000000000000000000000000007F
:1001800000000000257E00080000000000000000C4
:10019000257E000810B5054C237833B9044B13B104
:1001A0000448AFF300800123237010BD400D0020F0
:1001B00000000000C48E010808B5034B1BB10349C1
:1001C0000348AFF3008008BD00000000440D00208C
:1001D000C48E0108A3F5803A704700BF174B002B6F
:1001E00008BF134B9D46FFF7F5FF00218B460F46D6
:1001F0001348144A121A0EF02BFC0E4B002B00D0A1
:1002000098470D4B002B00D0984700200021040098
:100210000D000D48002802D00C4807F0CDFA0DF073
:1002200021FF2000290004F039FF07F0C1FC00BFC6
:100230000000080000000000F94F000800800120C5
:10024000400D0020203B0020B9770008000000008E
:1002500030B5C3600025039B0570C0E9011203613E
:1002600030BD7047F0B589B00023044615460846F6
:100270000DF103023F498DF803300EF023FD3E4B94
:100280001B78002B6DD19DF803601E2E6BD83B4B65
:10029000F340DB0767D5267016BB394F3B78FBB1BF
:1002A00038493246284606F007FE3749A06801AAB9
:1002B00003F07AF8322007F07DFD3349E06801AAA7
:1002C00000F09AF9322007F075FD2F49206901AA44
:1002D00003F018F92D4960683E7001AA02F0F8FD9C
:1002E0009DF803200F2A01D01E2A3AD1244E3378DC
:1002F0000F2B1FD02349284606F0DEFD2449E06875
:1003000001AA00F09FF90F233370224B1B7823B909
:100310002149A06801AA03F047F8204B1B7823B9B4
:100320001D49206901AA03F0EDF81D49606801AA82
:1003300002F0CEFD9DF803701E2F12D133781E2BD4
:100340000FD010493A46284606F0B6FD1049E0683D
:10035000377001AA00F076F91249606801AA02F02C
:10036000B7FD09B0F0BD1049284609B0BDE8F0401E
:100370000EF094BE3A6501085C0D0020018000403B
:100380005F0D002050660108707801082D6C01088F
:10039000BC6401085D0D0020C26401085E0D0020F0
:1003A0002D73010807660108C464010810B5034BEA
:1003B0000360044603F0F2F8204610BD68650108AA
:1003C00010B50446FFF7F2FF2046402107F02AFC53
:1003D000204610BD30B590F82830013B89B0044666
:1003E000032B1AD8DFE803F0021B5469406A216B23
:1003F000036849421B68984740F20713009304239F
:10040000ADF80C300025236B8DF80E500193694632
:10041000E06900F07BFC84F8285009B030BD006A28
:10042000616B03681B689847636B002B0FDD01232A
:1004300084F838304FF48473049304230025ADF816
:100440001C30636B8DF80E50059304A9E0E703D0D0
:10045000012384F83930EDE794F839206AB994F82B
:100460003830002BE6D0206A002384F83830036847
:100470006FF031011B689847DCE7206A84F8393057
:1004800003681E211B689847636B002BE7D0D1E7F8
:10049000006A616B03681B689847606A03689B6821
:1004A000984740F213130493002501238DF80E5052
:1004B000ADF81C308DF81430C7E7C18D828D438DA7
:1004C0000A4493421BDB406A036800211B6898477B
:1004D000206A036800211B689847002384F82830AD
:1004E0004FF48A728DF80E30E0690492012304A95A
:1004F000ADF81C308DF8143000F008FC8DE70B448B
:1005000043858AE738B50446154603F039F8094BA8
:100510002360049BE361059B2362069B63620023C7
:10052000C4E90C3384F828306385A385E5852387E7
:10053000204638BD6865010873B50546144608466F
:1005400001AA10490EF0BEFB0128064618D10E4B39
:100550001B781E2B12D1686A019903685B68984763
:1005600030B90A49204602B0BDE870400EF096BD91
:10057000019B85F828602B6302B070BD0449F1E748
:100580000449EFE7506601085F0D0020D1640108BF
:10059000F9640108C464010837B5054614460846E5
:1005A00001AA10490EF08EFB012819D10E4B1B78C1
:1005B0001E2B13D1286A019903685B68984730B9EC
:1005C0000A49204603B0BDE830400EF067BD022363
:1005D00085F82830019B6B6303B030BD0449F0E718
:1005E0000449EEE7506601085F0D00200D65010823
:1005F000F9640108C464010837B504461546084685
:1006000001AA0D490EF05EFB012813D1206A019961
:1006100003685B68984730B90849284603B0BDE8CD
:1006200030400EF03BBD032384F82830019B636308
:1006300003B030BD0249F0E7506601080D650108BE
:10064000C464010830B587B00DF10F030093044670
:1006500005AB08461546214904AA0EF033FB204B92
:100660001B781E2B06D01F49284607B0BDE8304036
:100670000EF014BDC0B29DF80F10A18503282AD139
:10068000049A02F5FA73B3F57A7F24D8059B03F137
:10069000E800B0F5E87F1ED800912846124906F020
:1006A0000BFC002363859DF80F30206A059903EB4E
:1006B000830303EB83039B00A385042384F8283082
:1006C00003681B689847606A0499036849421B687D
:1006D000984707B030BD0549C6E700BF346501083B
:1006E0005F0D0020F96401083F65010848650108B5
:1006F0002DE9F341DFF8F080C568C8F80000002458
:100700008DF802408DF80340ADF804400DF103026E
:1007100001230721407AA8470546D8F800000DF1CB
:1007200002020669407A21460123B0472844C5B237
:10073000D8F800009DF80230037001230469407A64
:100740000DF102021946A0472844C4B2D8F80000AF
:100750009DF80230056943710DF102020123022167
:10076000407AA8472044C7B2D8F800009DF802306C
:10077000046983710DF1020201230321407AA0472D
:100780003844C6B2D8F800009DF802300469C3713D
:100790000DF1020201230621407AA0473044C5B280
:1007A000D8F800009DF802300469037201AA022300
:1007B0000421407AA0472844C4B2D8F80000BDF80C
:1007C0000430056943800DF1020201230721407ABC
:1007D000A847D8F800309DF802201A71204440B292
:1007E00002B0BDE8F08100BF600D00201346074A4B
:1007F00030B4146834B1E5680A46AC460146607A04
:1008000030BC60476FF07E0030BC7047600D002048
:1008100073B5124D0446286800238DF80730B0B137
:100820000669407A01230DF107020721B04788B914
:1008300028688DF80740C668407A01230DF1070249
:100840000721B04708B92B681C7102B070BD6FF06A
:100850007E00FAE74FF0FF30F7E700BF600D0020A1
:1008600037B5114C236805460020ADF80400C3B12C
:100870001B795BB9206802230469407A01AA1A2116
:10088000A047BDF804302B8003B030BDFFF7C0FF98
:100890000028EFD023681B79002BEBD04FF0FF30FE
:1008A000F2E76FF07E00EFE7600D002037B5114CE6
:1008B000236805460020ADF80400C3B11B795BB97D
:1008C000206802230469407A01AA1C21A047BDF8D0
:1008D00004302B8003B030BDFFF79AFF0028EFD023
:1008E00023681B79002BEBD04FF0FF30F2E76FF05D
:1008F0007E00EFE7600D002037B5114C23680546F8
:100900000020ADF80400C3B11B795BB92068022355
:100910000469407A01AA1E21A047BDF804302B804B
:1009200003B030BDFFF774FF0028EFD023681B79B8
:10093000002BEBD04FF0FF30F2E76FF07E00EFE7D7
:10094000600D002037B5114C236805460020ADF836
:100950000400C3B11B795BB9206802230469407AA3
:1009600001AA2821A047BDF804302B8003B030BD78
:10097000FFF74EFF0028EFD023681B79002BEBD048
:100980004FF0FF30F2E76FF07E00EFE7600D0020E0
:1009900037B5114C236805460020ADF80400C3B1FB
:1009A0001B795BB9206802230469407A01AA2A21D5
:1009B000A047BDF804302B8003B030BDFFF728FFFF
:1009C0000028EFD023681B79002BEBD04FF0FF30CD
:1009D000F2E76FF07E00EFE7600D002037B5114CB5
:1009E000236805460020ADF80400C3B11B795BB94C
:1009F000206802230469407A01AA2C21A047BDF88F
:100A000004302B8003B030BDFFF702FF0028EFD089
:100A100023681B79002BEBD04FF0FF30F2E76FF02B
:100A20007E00EFE7600D002037B5134C23680546C4
:100A300000208DF80700DBB11B7973B92068012312
:100A40000469407A0DF107023B21A0479DF8073069
:100A5000C3F380032B7003B030BDFFF7D9FE00282D
:100A6000ECD023681B79002BE8D04FF0FF30F2E781
:100A70006FF07E00EFE700BF600D002037B5134C2C
:100A80002368054600208DF80700DBB11B7973B998
:100A9000206801230469407A0DF107023D21A04737
:100AA0009DF8073003F00F032B7003B030BDFFF744
:100AB000AFFE0028ECD023681B79002BE8D04FF064
:100AC000FF30F2E76FF07E00EFE700BF600D00201F
:100AD00073B52F4D00238DF806308DF807302B6845
:100AE0000646002B4ED00DF10700FFF7C7FF002888
:100AF0004BD12B681C69587A9DF8073003BB012342
:100B00000DF106023D21A0470446B0B99DF806301C
:100B1000286823F00F0306F00F061E438DF80660C9
:100B2000C468407A01230DF106023D21A0472B68DD
:100B300004465B694FF416709847204602B070BDBA
:100B400001230DF106023D21A047044680B99DF81E
:100B50000630012223F00F030DF106013D208DF830
:100B60000630FFF743FE2B6804465B691420984764
:100B7000002EE2D0286801230469407A0DF10602B4
:100B80003D21C0E76FF07E04D7E74FF0FF34D4E794
:100B9000600D002073B5224E00238DF806308DF8CD
:100BA000073033680546002B37D00DF10700FFF7FB
:100BB00065FF58B14FF0FF349DF8070018B1FFF7FB
:100BC00087FF204444B2204602B070BD9DF8073034
:100BD000F3B9306801230469407A0DF106023B2124
:100BE000A04704460028E7D19DF806303068AD00E4
:100BF00023F0040305F004051D43C4688DF8065076
:100C0000407A01230DF106023B21A0470446D3E7B9
:100C1000FFF75EFF0028CDD1DBE76FF07E04D2E75F
:100C2000600D002073B5224E00238DF806308DF83C
:100C3000073033680546002B36D00DF10700FFF76B
:100C40001DFF58B14FF0FF349DF8070018B1FFF7B2
:100C50003FFF204444B2204602B070BD9DF80730EB
:100C6000EBB9306801230469407A0DF106023E2198
:100C7000A04704460028E7D19DF8063005F00300A0
:100C800023F0030318438DF8060030680123C4687D
:100C9000407A0DF106023E21A0470446D4E7FFF753
:100CA00017FF0028CED1DCE76FF07E04D3E700BF4A
:100CB000600D0020016070477047000038B50446A1
:100CC000006800F0ABFB0546012007F073F82068D0
:100CD00003222B2100F034FA20682C21032200F09B
:100CE0002FFA2068002100F080FB10B1064806F0C2
:100CF00033FC206800F05EFC012007F05BF8B5FAD9
:100D000085F0400938BD00BF786501081FB504466D
:100D1000019100680DF10F0100F0B4FB019A9DF8FC
:100D20000F10206800F01EFB9DF80F10206800F0E7
:100D300099FA04B010BD37B504460068019100F07F
:100D400036FC10F00105019A0DD02068612100F0F9
:100D500000FC2068002301222C2100F006FA002567
:100D6000284603B030BD83070AD52068712100F002
:100D7000F0FB20682B4602222C2100F0F6F9EFE769
:100D80000425EDE708B5006800F011FC10F0030F32
:100D900014BF0320042008BD38B504467CB1E068C8
:100DA000FFF7FAFF236AA5681BB19B6804F11400E2
:100DB00098472046242106F035FF2C46EEE738BD43
:100DC000CB68C3600BB15B68184770472DE9F041F1
:100DD000054624200E4606F00FFF2B6903610446EA
:100DE00005F114011430FFF7EBFF2B78E86823704E
:100DF0000023C4E90233666018B12146FFF7E6FF1D
:100E0000E060AE6827464FF00008CEB1242006F01F
:100E1000F3FE33690361054606F114011430FFF750
:100E2000CFFF33782B70C5E90288BD606F60F06832
:100E300018B12946FFF7CAFFE860B6682F46E4E715
:100E40002046BDE8F0810000F8B5044615461E4670
:100E5000012200230F4602F093FB144B236004F1A0
:100E600024010023C4E90A31A868E761C4E90C132E
:100E700084F8243080B1FFF7A9FF02461346926838
:100E8000002AFBD1E36202461346D268002AFBD156
:100E900023636B696363A062314604F1380004F098
:100EA000D5FB03480DF0AEFE2046F8BD34660108C0
:100EB00081650108F0B5031D826818464AB11769BB
:100EC0000E68D2E90245B7422ABF10462A4622469A
:100ED000F4E7834204D009680269914238BF18469A
:100EE000F0BD0000C36810B52BB9054905484FF4A3
:100EF000FD7206F011F9BDE810401B68184700BFED
:100F0000E0650108EB65010870B50446B8B05D48BE
:100F10000DF078FEE06904A9FFF70DFF05460028F3
:100F200040F0AD8058480DF06DFE0499574805F02B
:100F3000ADFF9DF81C30012B29D19DF81420544899
:100F40000292114605F0A2FF049B189318A904F120
:100F50002000FFF7AFFF029A4E49064608A805F0A9
:100F6000ABFF04F124039E4211D07C22294619A82C
:100F700018950DF06DFD18AA08A906F11400FFF7E9
:100F8000B1FF9DF8603013B118A805F07FFF9DF800
:100F90001C30042B28D1059A3D480292114605F0D9
:100FA00075FF049B189318A904F12000FFF782FF36
:100FB000029A3849054608A805F07EFF04F124038B
:100FC0009D4211D000217C2219A818910DF040FDFE
:100FD00018AA08A905F11400FFF784FF9DF86030F6
:100FE00013B118A805F052FF9DF81C30062B38D11C
:100FF000BDF914602648314605F048FFBDF91620BA
:1010000023480392314605F041FFBDF918302048CE
:101010000293194605F03AFF0499189104F1200053
:1010200018A9FFF747FFDDE9023205461A49009685
:1010300008A805F041FF04F124039D4211D00021CE
:101040007C2219A818910DF003FD18AA08A905F132
:101050001400FFF747FF9DF8603013B118A805F0A2
:1010600015FF992318930423ADF86C3000238DF8F5
:101070006E30E069049B199318A9FFF747FE38B05A
:1010800070BD00BFF7650108096601081C6601080C
:1010900023660108506601083465010810B504464E
:1010A000C069FFF76FFE042804D02046BDE8104059
:1010B000FFF72ABF10BD000010B5074B044640F8EB
:1010C000383B04F09DFAA06AFFF766FE204602F066
:1010D00065FA204610BD00BF3466010810B504460D
:1010E000FFF7EAFF2046882106F09CFD204610BD50
:1010F00038B50346044643F8041B154618461C221F
:1011000000210DF0A5FC294605F0A5F8214604486C
:1011100005F0BCFE2946034805F0B8FE204638BD60
:101120004466010853660108436802691B041360A2
:101130007047006808B503689B689847C0B208BD4F
:1011400070B504460E4602211546FFF7EDFFFFF786
:10115000F0FF31462046FFF7ECFF29462046FFF717
:10116000E8FFE36862681A6070BDF8B504460F4690
:10117000052116461D46FFF7D7FFFFF7DAFF394670
:101180002046FFF7D6FF31462046FFF7D2FF29461B
:101190002046FFF7CEFFE36862681A60F8BD0000E2
:1011A0002DE9F043064685B02A480D4605F06EFE4F
:1011B000294A0024A04601346300B2FBF3F393FBF9
:1011C000F5F7791F14293ED893FBF7F3AB423AD1D8
:1011D0007C1E032394FBF3F4651C05EB4403FB1A0C
:1011E000022B14BFA146A94605EB09032344FB1AB1
:1011F000012B18BF25460123CDE90153CDF80090FE
:1012000023463A464146154805F040FE5FFA88F20B
:1012100030462A21FFF794FF09F1FF39621E42EAA6
:10122000C90262F07F023046D2B22921FFF788FF5F
:101230006B1E3046DBB207222821FFF796FF002005
:1012400005B0BDE8F083082CB4D1054805F01EFEBA
:10125000A046BDE75E66010800127A006C660108D0
:10126000BC660108013908231A46C9B2FFF77DBFE1
:10127000F8B505460F46022114461E46FFF754FFF7
:10128000FFF757FF39462846FFF753FF2644B4427D
:1012900005D014F8011B2846FFF74BFFF7E7EB6872
:1012A0006A681A60F8BD012A37B59CB2DDB21AD15E
:1012B000C3F30742240A8DF8064002F01C0402F032
:1012C000030202EBC40242F008025B0D8DF80750E6
:1012D0008DF805208DF8043004230DEB0302FFF791
:1012E000C7FF03B030BD0023E4086D018DF8044052
:1012F0008DF805508DF807308DF80630ECE70023A7
:1013000010B51A4620210446FFF7CDFF00231A46E8
:1013100020462421FFF7C7FF00231946204601225B
:10132000FFF7C1FF00231A4620460421FFF7BBFF49
:101330002046002301220821FFF7B5FF00231A46AB
:1013400020461021FFF7AFFF00231A462046142144
:10135000FFF7A9FF002320461A46BDE810401821D8
:10136000FFF7A1BFF8B5177B15460C4605310646B9
:101370003B460432C9B2FFF77BFF2B686A7B2146EC
:101380003046FFF790FFAB7B012B08BF47F04007CB
:10139000211D3A463046C9B2BDE8F840FFF7D0BE3D
:1013A00010B50446C021FFF7BFFEFFF7C2FEE36899
:1013B00062681A60BDE81040012006F0FBBC002105
:1013C000FFF7B7BE38B504460D460321FFF7ACFE64
:1013D000FFF7AFFE29462046FFF7ABFE2046FFF79A
:1013E000EEFFE36862681A6038BD38B50C460F211D
:1013F0000546FFF7E7FF00F01F0040EA04020F2157
:101400002846FFF79DFE0F212846FFF7DBFF00F07F
:10141000E000001B18BF012038BD0000C36842680F
:1014200070B504461A600E46FFF7BAFF80212046C9
:10143000FFF7DBFF0128054605D11148211D05F006
:1014400025FD284670BD31462046FFF7A9FE10F065
:10145000FF05F6D12046FFF752FF20460423642201
:101460006021FFF782FE2B46204660227021FFF7A5
:101470007CFE042307220F212046FFF776FEE0E7DB
:10148000C86601082DE9F341104B1A889B788DF846
:101490000630002380460E46ADF804200B7001ADE7
:1014A000032415F8017B40463946FFF78BFF10F007
:1014B000080004D10137377002B0BDE8F081013C6B
:1014C00014F0FF04EDD10220F6E700BFDF6601084B
:1014D000F8B505460F46032114461E46FFF724FEC5
:1014E000FFF727FE39462846FFF723FE2644B4427D
:1014F00005D02846FFF763FF04F8010BF7E7EB6818
:101500006A681A60F8BD37B51C4600231370236063
:10151000042315460DEB0302FFF7DAFF9DF80510D3
:101520009DF804204B0903EBC2030A0723600ED584
:1015300001F0030101EB83019DF806209DF80730BF
:1015400003EB022303EB0141012321602B7003B065
:1015500030BDF8B513460D4614460D320646FFF76A
:10156000D2FF691EC9B23046FFF72CFF291D07467E
:10157000C9B23046FFF726FFC7F3C007A773691D3E
:1015800000F00F073B46221DC9B23046FFF7A0FF0F
:101590002773F8BD10B50446FFF7C6FDFFF7C9FD78
:1015A0002046FFF70CFFE36862681A6010BDA021B7
:1015B000FFF7F0BF70B51C210446FFF703FF1D21A4
:1015C00005462046FFF7FEFE2D2106462046FFF782
:1015D000F9FE04461D4805F059FC29461C4805F053
:1015E00055FC31461B4805F051FC21461A4805F0D0
:1015F0004DFC310601D42A0602D5184805F046FCF8
:10160000230602D516480DF0FDFA660602D51548E8
:1016100005F03CFCA50602D5134805F037FCE006B2
:1016200002D5124805F032FC610702D5104805F0DA
:101630002DFCA20702D50F480DF0E4FAE30704D50C
:10164000BDE870400C4805F021BC70BDE3660108A0
:10165000FE6601081D6701083C6701085067010824
:101660006B6701088667010861670108A2670108C6
:10167000BA670108D3670108EA6701087047704735
:1016800010B54FF48871044606F0CCFA204610BD20
:101690000B6803604B6843608B688360704710B4CD
:1016A000D0E901320168541001EB6200D20748BF53
:1016B0000A595DF8044B48BFD358184737B504465C
:1016C00072B6FF25E06904F0A7FAA8B3D4F8243174
:1016D000D4F828110133B3FBF5F2C2EB02229B1AB6
:1016E0008B4229D0E069036801225B690DF1070193
:1016F0009847D4F82431D4F828110133B3FBF5F21C
:10170000C2EB02229B1A8B42DCD0D4F824319DF824
:101710000720234483F82420D4F824310133B3FB79
:10172000F5F2C2EB02229B1AC4F82431D4F82C3112
:101730000133C4F82C31C5E762B603B030BD0000F8
:10174000F7B50546382006F057FA00F11803036193
:10175000D5E904630446F7181EB917B114480AF016
:101760000BFD0F2B019308D9002201A904F11000F1
:101770000AF032FD019B2061A3613A46314620699F
:101780000AF056FD019B226963610021D1546B6B05
:1017900063632BB15B6805F1280104F128009847C9
:1017A0002B78237020460023C4E9023303B0F0BD38
:1017B00002680108F8B505460E46FFF7C1FF46600E
:1017C0000446E86818B12146FFF7F4FFE060AE6810
:1017D000274676B13046FFF7B3FFB860476005464D
:1017E000F06818B12946FFF7E5FFE860B6682F46B4
:1017F000EFE72046F8BD00002DE9F047D0F828219A
:1018000004460132D0F82401FF23B2FBF3F1C1EB0F
:101810000121521A8242ADF5027D2AD0D4F8282146
:10182000D4F824010132B2FBF3F1C1EB0121521AC9
:10183000824222D0D4F828210132B2FBF3F3C3EB69
:101840000323D31AC4F82831D4F82831234493F859
:101850002420D4F82C31232A03F1FF335FFA82F8D5
:10186000C4F82C310BD184F8408204F24123C4F82F
:1018700040330DF5027DBDE8F0874FF00008D4F845
:10188000403304F550729342F3D0B8F10A0F68D197
:1018900013F8032C3B2A64D113F8022C3B2A60D1A5
:1018A00013F8013C0D2B5CD104F5107A314912ABD1
:1018B00002AA50460DF006FA022850D122AF3A464D
:1018C00002A942A80AF010FD04F55279D4F84C633D
:1018D0004D4666B106F1100042A90AF0BDFCD6E9FA
:1018E00002320028AABF354616461E46F1E7A94532
:1018F00008D005F1100142A80AF0AEFC35EA200537
:1019000028BF4D4642A80AF08BFC4D4527D0002148
:101910007C2223A839600DF09BF86B6B2BB916491C
:1019200016484FF4FD7205F0F7FB1B683A4612A902
:1019300005F1280098473B788BB1114A009702AB1C
:101940004FF4807142A805F0C8FAE56942A80DF08D
:1019500017FC2B6802461B6942A928469847C4F821
:1019600040A3D4F8403383F80080D4F840330133E7
:101970007DE700BF2C680108E0650108EB65010800
:101980003A680108C3680BB19B681847704738B5BF
:1019900004468CB1E068FFF7FAFF04F12800A5685F
:1019A000FFF7F0FF04F110000AF03AFC204638215E
:1019B00006F038F92C46ECE738BD000010B5064BB0
:1019C00003600446D0F84C03FFF7E1FF204601F026
:1019D000E5FD204610BD00BF6C68010810B5044647
:1019E000FFF7ECFF20464FF4587106F01BF9204634
:1019F00010BD00002DE9FF410446164600230022D9
:101A00000D46DFF8CC8001F0BBFD2E4B2360E56175
:101A1000FF2200250021FE27C4F8208004F12400C5
:101A20000DF016F8C4F82451FF22C4F82871294695
:101A3000C4F82C51C4F8308104F59A700DF008F800
:101A400004F51073C4F834522946C4F838724FF4C0
:101A50008072C4F83C5218460CF0FAFF04F552713B
:101A6000C4E9D351C4F84003B06884F84853C4E9CA
:101A7000D515A0B1FFF79EFE03461A469B68002BC2
:101A8000FBD1C4F8502303461A46DB68002BFBD178
:101A90007369C4F85423C4F85833C4F84C030A4B90
:101AA000E06903930022094B019369460292009476
:101AB00004F0D4F86846FFF765FF204604B0BDE89F
:101AC000F08100BF6C68010858680108BD16000865
:101AD00050680108036B8B4205DC406B8842B4BF41
:101AE00000200120704700207047018D07EE901AFA
:101AF000F8EE677A043017EE901A03F0DBBD0000B1
:101B00002DE9F04105461E46184B45F8043B0446B6
:101B10001746284603F02CFEC4E90C7640F2D35356
:101B2000134E23854FF014086623A385314684F8AD
:101B30002A80642204F138000CF074FE6422B1188B
:101B400004F19C000CF06EFE642206F1C80104F55D
:101B500080700CF067FE4146284603F0B9FD284628
:101B6000218D03F0D1FD2046BDE8F081B069010868
:101B70007C68010810B5044B044640F8043B03F0B0
:101B800015FE204610BD00BFB0690108F0B5106811
:101B90008842DDE9055722DB1868884202DCB5F986
:101BA0000000F0BD0124BC4219DA53F824608E42D3
:101BB0004FEA840010DC04F18044013C53F82420F7
:101BC00055F824702B58B01ADB1B93FBF0F3881ADE
:101BD00013FB007000B2E4E70134E4B2E3E707F17D
:101BE0008040013852F820408C4202DC35F9200058
:101BF000D7E753F820308B42F8DA0124BC4213DADD
:101C000052F8240088424FEA84030ADB04F180443E
:101C1000013CEB5855F8247052F82420DB1B801A45
:101C2000D3E70134E4B2E9E74FF0FF30B9E737B565
:101C30001923019300F580730D46009300F13802DB
:101C400000F19C0349420446FFF7A0FF6421A085F0
:101C5000684390FBF1F0218D0144201D03B0BDE8E5
:101C6000304003F051BD436B8B4205DC806B8842F2
:101C7000B4BF002001207047002070472DE9F041DB
:101C800005461E46214B45F8043B0446284690462F
:101C900003F06EFD1E4BA36240F26D73C4E90C3875
:101CA0001C4BA66393E80700142704F13C0684F854
:101CB0002C7086E8070003F10C0207CA04F14806FD
:101CC00086E8070003F1180207CA243304F154061A
:101CD00086E8070093E8070004F1600686E807003D
:101CE0003946284603F0F4FC4FF47A71284603F095
:101CF0000BFD0A2006F05EF8A16A6423284691FBDA
:101D0000F3F103F001FD2046BDE8F081F46901081C
:101D100079530200BC69010810B5044B044640F831
:101D2000043B03F043FD204610BD00BFF4690108E9
:101D30002DE9F04119689142DDE906C4DDE9085654
:101D400031DBDCF80010914204DC236803602B686F
:101D5000436023E00121B14225DA5CF821809045FF
:101D60004FEA81071CDC01F1804101395CF8213028
:101D700054F821E055F82110A8EB0306D21AE359D4
:101D8000A3EB0E0393FBF6F302FB03E4EB595B1AA0
:101D900093FBF6F302FB0312C0E90042BDE8F081B9
:101DA0000131C9B2D7E706F18041013953F82170FA
:101DB000974205DC54F82130036055F82130C7E71D
:101DC0005CF821709742F5DA0121B1421CDA53F830
:101DD00021E096454FEA810713DB01F1804101398B
:101DE00053F8213054F821C055F82110AEEB03060A
:101DF000D21AE359A3EB0C0393FBF6F302FB03C4E3
:101E0000C4E70131C9B2E0E74FF0FF3303609FE759
:101E1000036B806A59434FF47A7391FBF3F16423A7
:101E200090FBF3F00844704730B587B00323039369
:101E300000F16003029300F15403019300F14803A1
:101E400004460D4600930A4600F13C03014604A8EF
:101E5000FFF76EFF049B2363059BA3622946204680
:101E6000FFF7D6FF0146201D07B0BDE8304003F064
:101E70004BBC000010B5034B0360044603F038FF71
:101E8000204610BD90700108A0F1E400F2E700BF09
:101E900070B4D0E901340568661005EB6400E4070E
:101EA00044BFAC59E35870BC184770B4D0E9013452
:101EB0000568661005EB6400E40744BFAC59E358BD
:101EC00070BC184770B4D0E901340568661005EBA2
:101ED0006400E40744BFAC59E35870BC184770B4C1
:101EE000D0E901340568661005EB6400E40744BFDF
:101EF000AC59E35870BC184700F1080373B50446A9
:101F000003600D46D9B108460DF03AF90F2805EBEC
:101F10000006019007D9002201A920460AF05CF9C9
:101F2000019B2060A3603246294620680AF08AF9A6
:101F3000019B226863600021D15402B070BD01484A
:101F40000AF01AF9026801082DE9F041054624203B
:101F50000E4605F051FE2B690361044605F114019C
:101F60001430FEF72DFF2B78E86823700023C4E9B6
:101F70000233666018B12146FFF7E6FFE060AE6805
:101F800027464FF00008CEB1242005F035FE336916
:101F90000361054606F114011430FEF711FF337892
:101FA0002B70C5E90288BD606F60F06818B12946E2
:101FB000FFF7CAFFE860B6682F46E4E72046BDE8B1
:101FC000F08138B504466CB1E068FFF7FAFF04F120
:101FD0001400A568FFF7D6FC2046242105F022FE58
:101FE0002C46F0E738BD10B504468068FFF7E9FFDE
:101FF000204610BD38B504468CB1E068FFF7FAFF03
:1020000004F12800A568FFF7BDFC04F110000AF0F8
:1020100007F92046382105F005FE2C46ECE738BDCF
:1020200010B504468068FFF7E5FF204610BD0000AC
:1020300070B5164C164D17491748184EFEF73EFE60
:1020400017490422204604F04FF82946132220465F
:1020500004F04AF831461322204604F045F81149AD
:102060001322204604F040F831461322204604F0A3
:102070003BF829461322204604F036F80A4902228A
:10208000204604F031F8002070BD00BF800F002012
:10209000016A010820A107007C0D0020156A0108D3
:1020A000FC690108296A0108FE69010838B5FFF7D3
:1020B000BFFF60B9064D074C2B7823B1C82005F04F
:1020C00079FE07F08BFB204601F0FEFAF4E738BDFD
:1020D0005C0D00209815002038B504461546FFF722
:1020E0000BFF04F118002946FEF76AFE204638BDB2
:1020F00010B586B00446684680E80C0006A800E9E2
:102100000C00039110E90700034BE36084E807002B
:10211000204606B010BD00BF906A0108F8B58B6874
:10212000164604460D1D012263B11D693268D3E9CC
:102130000270954288BF01221D4696BF00223B4691
:102140000346F1E792B1CA68AA4203D1C4E9003557
:102150002046F8BD284609F025FF336802699A42F7
:102160004FF00003F2D3C4E90003F1E72846F4E797
:1021700008B50AF071F8C00F08BD2DE9F0418D686F
:1021800004460F4690460E1D012065B105F1100171
:102190004046FFF7EDFFD5E9023200282E460CBF7E
:1021A00015461D46F1E7A0B1FB68B34204D1256096
:1021B00066602046BDE8F081304609F0F3FE054632
:1021C000414605F11000FFF7D3FF20B10023236043
:1021D000EEE73546F4E7C4E90050EAE700F108030A
:1021E000F7B50360D1E9006304460D46F7181EB940
:1021F00017B1104809F0C0FF0F2B019307D9002237
:1022000001A9204609F0E8FF019B2060A360206837
:102210003A4631460AF00CF82046019B50F8182B3C
:1022200063600021D15405F11801FEF7C9FD204675
:1022300003B0F0BD026801082DE9F04105463820E1
:102240000E4605F0D9FC05F1100104461030FFF7E9
:10225000C5FF2B78E86823700023C4E90233666069
:1022600018B12146FFF7E8FFE060AE6827464FF05F
:102270000008BEB1382005F0BFFC06F1100105468C
:102280001030FFF7ABFF33782B70C5E90288BD60D3
:102290006F60F06818B12946FFF7CEFFE860B668B6
:1022A0002F46E6E72046BDE8F08100002DE9F04F1B
:1022B000DFF86483AF4FDFF864A3DFF864B3F3B0F3
:1022C0004FF4E13303220221404603F04BFFAA4AB8
:1022D000AA49404605F06EFA4FF0FF3300931E22E4
:1022E0001D231F21A64803F09DFBA34AA549A4482E
:1022F00005F060FA1C22A249A348FEF7F9FEA249A4
:1023000038462CACFEF7D6FC9B4AA049384605F06F
:1023100051FA1C22002120460CF09AFB264605218A
:10232000204603F098FF0FCE6D460FC596E80700D4
:10233000002385E807004FF4FA729548954E964DB4
:1023400000F032FE95498C4A914805F033FA00239B
:1023500041F28832924800F0A5FD9249864A9048A1
:1023600005F028FA19231822CDE90132CDF80C80A6
:10237000002300979622504600F0BCFF7E4A8A490F
:10238000504605F017FA4FF4FA73884A1321304685
:10239000FFF7B6FB784A8649304605F00BFA284627
:1023A000FA236FF0F9021521FFF768FC28468149EE
:1023B000714A05F0FFF9CDE901560023009732225A
:1023C0007D48FEF79FF87D496B4A7B4805F0F2F99E
:1023D0000023009741F28832584601F083F8664A9C
:1023E0007749584605F0E6F9734B6D497548CDF8C5
:1023F00000B05246FDF72CFF5F4A734971484FF019
:10240000000805F0D7F9714BC4F80480236094E804
:102410000C00694928A8FFF76BFE6D4928AA2046E1
:10242000FFF75AFE6B4B644920AEC6E9003824A87A
:1024300096E80C00FFF75CFE674924AA36A8FFF770
:102440004BFE664B5C491CAFC7E90038304697E845
:102450000C00FFF74DFE6249324640A8FFF73CFEF4
:10246000604B5549CDE9183818AD95E80C00384651
:10247000FFF73EFE5C494AA8FFF73EFD394650A8EB
:10248000FEF79EFC594BEB60594B5A49C5F800A02A
:10249000C5E9013854A8FFF72FFD29465AA8FEF7D1
:1024A0008FFC554B1793474B1493544B5449554D40
:1024B0005EA8CDE91538FFF71FFD14A964A8FEF743
:1024C0007FFC514B1393514B5149CDF840B068A854
:1024D000CDE91138FFF710FD10A96EA8FEF770FCCA
:1024E0002B1DC5E90333072385F80480C5F8088050
:1024F000C5F814800993A0466B6953B12A690A9202
:1025000002F110004146FFF733FE0A9A002840F01E
:10251000ED81424629460CA8FFF72FFEDDE90C327B
:1025200002B3002B40F0DC813A4B9A4200F0D88194
:1025300002F1100140460A92FFF71AFE0A9A8146FC
:1025400038200B9205F058FB41460A901030FFF7F7
:1025500045FE304BDDE90A12484609F03DFD6B6946
:1025600001336B61099B013B08F128080993C3D132
:1025700072AD57E07C0D002098010020751E000808
:102580000C160020B55A0008E8150020B90C000808
:10259000C80D0020C81300202C150020812F000832
:1025A000800D002085290008013000080CFEFFFF87
:1025B000751B0008191D0008400F0020AD0300081E
:1025C00065340008000F0020630200083905000888
:1025D0003D6A010899050008436A0108F9050008E9
:1025E000496A0108450600084F6A0108846A010823
:1025F000A9330008536A0108786A010865020008D7
:10260000576A0108640D00206C6A0108053500084E
:102610005A6A0108680D0020800F0020A00E0020DB
:10262000180F0020283D05F11800FFF7ABF92846E8
:1026300009F0F6FDA542F5D110A8FFF7A3F914A8FB
:10264000FFF7A0F918A8FFF79DF93846FFF79AF9A8
:102650003046FFF797F9A74D24A8FFF793F928A86C
:10266000FFF790F9A449A54A284605F0A3F8A86801
:1026700000232DA9C4E903112371A360636180B114
:10268000FFF7DAFD03461A469B68002BFBD1E26098
:1026900003461A46DB68002BFBD16B69226163613C
:1026A000A06097499748984D2246FFF7A3F9A06884
:1026B000FFF7A0FC914A95499248002705F07AF867
:1026C000934B6760236094E80C00924928A8FFF7B9
:1026D0000FFD4FF4817328A92DA82360FEF770FB2E
:1026E0008D4B8C490DF18008C8E9003724A898E883
:1026F0000C00FFF7FDFC40F2031324A932A863612C
:10270000FEF75EFB854B83490DF17009C9E900377F
:10271000404699E80C00FFF7EBFC40F201134146FC
:1027200037A8A362FEF74CFB7D4B7A4918AEC6E989
:102730000037484696E80C00FFF7DAFC4FF4827346
:1027400049463CA8E363FEF73BFB764BF360764BD0
:10275000C6F800A0C6E90137314640F2111341A87E
:102760002365FEF72DFB714B1793714B1493714B3F
:1027700014A9CDE9153746A84FF480736366FEF7B8
:102780001FFB6D4B13936D4BCDF840B0CDE9113766
:1027900010A94FF488734BA8A367FEF711FB2B1DFC
:1027A000C5E9033307232F71AF606F6109932DAF24
:1027B0006B692BB12A6957F8043C116999420AD315
:1027C0003A1F29460EA8FFF7A9FCDDE90E3222B315
:1027D000002B40F088805A4B9A4200F0848057F8D2
:1027E000041C136999422CBF4FF0000A4FF0010AF4
:1027F00024200A9205F000FA57F8043C036183464E
:1028000039461430FEF7DCFA4D4B0A9A59465046C9
:1028100009F0E2FB6B6901336B61099B013B07F136
:1028200014070993C4D14FAF143F3D1D2846FFF74D
:10283000A9F8A742F8D110A8FFF7A4F814A8FFF749
:10284000A1F83046FFF79EF84846FFF79BF8404650
:10285000FFF798F82C4E24A8FFF794F828A8FFF764
:1028600091F8264A3749304604F0A4FFB0680023A7
:10287000C4E90235C4E90453237188B12946FFF73E
:1028800063FB03461A469B68002BFBD1E2600346BC
:102890001A46DB68002BFBD1736922616361A0607B
:1028A0002023224628492948FEF7CEFAA068FFF7E0
:1028B00088FB124A2649254804F07CFF254B26490F
:1028C0002648D3E90023CDE90023072200F0C8FE03
:1028D0000A4A2349214873B0BDE8F04F04F06ABFAB
:1028E0004FF001092CE64FF0010A81E7002A7FF43E
:1028F0001BAE37E6640D002021200008980100205F
:10290000800F002068100020880E0020BD190008EC
:1029100039050008400F002099050008F905000856
:1029200045060008846A0108A9330008786A01088E
:10293000000F0020650200086C6A010805350008D8
:102940008C0E0020E71F00087C0D0020000E0020E8
:10295000B9100008A06A01089C0100209815002009
:102960001536000810B50446FFF784FA2046E82122
:1029700005F058F9204610BDA0F1E400F2E7FFF79A
:1029800095BC000010B5054B044640F81C3B02F016
:102990000DFF204600F002FE204610BDB06A01087F
:1029A00010B50446FFF7EEFF2046482105F03AF93E
:1029B000204610BD437E37B50446002B6ED090F8FC
:1029C0004430012B40F08F8190F840301C2B00F2F6
:1029D0007F81DFE813F01D0042006500EC00650018
:1029E00083008C00A70028010001A700BA00C200E4
:1029F000D4006500EC00D400DC00E400EC00000131
:102A0000140114016500280128013C014F016201F5
:102A100090F8423093B904F11C004FF4FD6101902D
:102A200002F064FE4FF47D71019802F06DFE012307
:102A300084F84230002384F841302FE090F8413090
:102A4000092B40F2218200211C3002F05DFE0023A0
:102A500084F8413084F842301BE090F8422090F82E
:102A60004130002A40F010820B2B40F20D8204F11D
:102A70001C004FF47D71019002F038FE4FF4FD719F
:102A8000019802F041FE012384F84230002384F8CB
:102A9000413094F84030013384F8403003B030BD09
:102AA00090F8422090F841305AB1092B40F2EC8165
:102AB000002104F11C0002F027FE002384F84230BC
:102AC000E5E70B2B40F2E08104F11C0040F2475196
:102AD000019002F00BFE40F2A321D1E790F84220D2
:102AE00090F841300AB10B2BE0E7132B67E090F828
:102AF000425090F841300DB10E2BD7E7182B40F221
:102B0000C3811C304FF4EF61019002F0EFFD4FF4F0
:102B10006F71019802F0F8FD012384F8423084F8C7
:102B20004150B6E790F8422090F84130002ABCD1DD
:102B30000B2B40F2A98104F11C0040F2BB31019043
:102B400002F0D4FD40F2DD119AE790F8422090F8AF
:102B50004130002AC7D1132B6DE090F8425090F815
:102B60004130002DC8D1182B40F28E811C304FF41B
:102B7000FD61019002F0BAFD4FF47D71C9E790F854
:102B8000422090F84130002A3FF46EAF8DE790F874
:102B9000422090F84130002AA5D1132B92E790F8FB
:102BA000422090F84130002AA6D1182B07E090F877
:102BB000422090F84130002A7FF477AF0B2B40F28F
:102BC000638104F11C0040F24761019002F08EFD28
:102BD00040F2233154E790F8422090F84130002A27
:102BE0007FF463AF0B2B40F24F8104F11C0040F2E5
:102BF000ED51019002F07AFD40F2F62140E790F8A5
:102C0000422090F84130002A7FF44FAF0B2B40F266
:102C10003B8104F11C004FF4B361019002F066FDAA
:102C20004FF433712CE790F8422090F84130002A9D
:102C30007FF43BAF0B2B40F2278104F11C0040F2E4
:102C4000FB41019002F052FD40F27D2118E790F81F
:102C5000425090F84130002D7FF427AF0B2B40F20B
:102C600013811C3040F2B341019002F03FFD40F26D
:102C700059214EE790F8425090F84130002D7FF4F2
:102C800014AF0B2B40F200811C304FF48E61019089
:102C900002F02CFD4FF40E713BE790F8425090F893
:102CA0004130002D7FF401AF0B2B40F2ED801C3042
:102CB0004FF47D71019002F019FD01984FF4FD7100
:102CC00002F022FD0123A4F8405084F84230E5E6EA
:102CD0000021A0F8401080F842101C3003B0BDE87D
:102CE000304002F011BD022B6DD190F84030042B22
:102CF0003FF6D4AEDFE803F003122130490094F828
:102D00004230002B40F0B88004F11C0040F6E8612E
:102D1000019002F0EBFC40F2747185E694F84230C9
:102D2000002B40F0A98004F11C0040F649510190AD
:102D300002F0DCFC40F2A46176E694F84230002B0D
:102D400040F09A8004F11C0040F6D631019002F068
:102D5000CDFC40F2EB5167E690F842304BB904F1FC
:102D60001C0040F6F711019002F0C0FC40F2FB415C
:102D70005AE694F84130092B40F28680002104F194
:102D80001C0002F0C1FC002364E604F11C000221D7
:102D90000025019002F0AAFC0198012102F0B4FC88
:102DA0000198A4F8405084F84250294602F0ACFC47
:102DB00084F8445041F28831204600F0F0FB41F2A3
:102DC000883363836AE6032B45D190F84030062BA5
:102DD0003FF664AE01A252F823F000BF3B2D00087D
:102DE0001D2D0008FF2C0008F92D0008232E0008D7
:102DF0003D2E00088B2D000890F84250002DB8D1D0
:102E00001C304FF47D61019002F070FC4FF4FD61C5
:102E1000019802F079FC012384F8423084F8415093
:102E20003CE690F84250002DA3D11C3041F2C11174
:102E3000019002F05BFC4FF40E61E9E790F842501C
:102E4000002D96D11C3041F2EE31019002F04EFC83
:102E500040F6F711DCE7042B7FF420AE90F8401029
:102E600001290CD0022911D000297FF417AE90F867
:102E70004230002B3FF473AF94F8413015E690F8E0
:102E80004230002BF8D1C6E50133D4E51C30019067
:102E900002F02CFC0198012102F036FC002384F89A
:102EA000443087E770B504461646002500F068FBFD
:102EB000064B236065766683172104F11C0002F03F
:102EC00057FC256484F84450204670BDB06A010860
:102ED000F0B585B0044615460846002721498DF80F
:102EE0000F700DF10F020BF0EDFEC6B2012E32D1C4
:102EF0009DF80F201B49D31B18BF0123637628467A
:102F000003F0DAFF9DF80F3084F844309BB904F1E8
:102F10001C000221019002F0E9FB0198314602F009
:102F2000F3FB41F28831204600F039FB41F288334F
:102F3000638305B0F0BD013B032BFAD8204627641C
:102F40000A2100F02CFB0A236383394604F11C009C
:102F500002F0DAFBEDE70449284605B0BDE8F04091
:102F60000CF09CB83A650108C4640108036A1A6849
:102F7000C3691A4216BF826A426A1B041360704713
:102F800010B5034B0360044600F008FB204610BD5B
:102F9000C86A010810B50446FFF7F2FF2046382141
:102FA00004F040FE204610BD70B50646344600F0E1
:102FB000E7FA04AD064B44F81C3B0FCD0FC495E86F
:102FC000070084E80700736AF2691A60304670BD32
:102FD000C86A0108064B8362064BC362064B036353
:102FE000522380F825304FF4967004F0E3BE00BF02
:102FF0004530000885300008FD2F000804F0DABED7
:1030000038B5094B094D036004460220FDF70AFE5E
:10301000286820B10368DB68984700232B602046AE
:1030200000F0BCFA204638BD306B01088016002045
:1030300010B50446FFF7E4FF2046602104F0F2FDDE
:10304000204610BD30B585B0054608468DF808000D
:1030500011460DF109001A461C460BF0E3FB002255
:1030600007480092631CDBB202AA2946006802F0FE
:10307000C1F9003818BF0120404205B030BD00BF83
:10308000801600202DE9F04186B015460027DFF8B4
:1030900054808DF80F101A46CDE9047704468DF858
:1030A0001010284604A91E460BF0BCFBD8F80000FF
:1030B000009701230DF10F02214602F09BF970B930
:1030C00000903346D8F800002A46214602F0B1F9B4
:1030D000C01B18BF0120404206B0BDE8F0814FF090
:1030E000FF30F9E780160020F0B590F83430ADB02D
:1030F0000446002B00F0DC8000230CA8ADF8303033
:10310000ADF83230ADF83430ADF83630ADF8383097
:10311000ADF83A30FDF7A4FB002840F0C9800DF16E
:103120003200FDF7E9FB002840F0C2800DA8FDF752
:10313000BDFB002840F0BC800DF13600BDF93070B9
:10314000BDF93260BDF93450FDF7FCFB002840F0BA
:10315000AF800EA8FDF71CFC002840F0A9800DF1FF
:103160003A00FDF73BFC002840F0A280BDF9362074
:10317000BDF93830BDF93A1002EB8202520002F17B
:103180006E0003EB8303DC284FEA430300F29280D6
:1031900003F16E00DC2800F28D8094F84C3001338E
:1031A000DBB20A2B84F84C3005D10023C4E910337C
:1031B000A36484F84C304FF47A7317FB03F716FBC3
:1031C00003F64FF47A7315FB03F540F205130F93E2
:1031D0000823002FADF848304FF00003B8BF0F3779
:1031E0008DF84A30002E236CA06B1093B8BF0F36B9
:1031F000636C1193002D0FA9B8BF0F35FDF786FD45
:10320000A16C4FF47A72D4E910C091FBF2FE02FB7C
:103210001E110029B8BF4942CDE909E190FBF2F146
:1032200002FB11000028B8BF4042CDE907109CFB0B
:10323000F2F002FB10C10029B8BF494247F30F1753
:10324000CDE9050197FBF2F146F30F1602FB11776A
:1032500009B23FB245F30F15039196FBF2F102FB61
:103260001166002F36B295FBF2F302FB13552DB217
:10327000B8BF7F42002EB8BF7642002DB8BF6D4266
:1032800009B2BFB2B6B2ADB2194A01911BB2642104
:1032900004970296009513A803F01FFEE46B13A891
:1032A0000BF06EFF236802461B6913A9204698475E
:1032B0002DB0F0BDB4F850E0206C4FF47A7C02FBE6
:1032C0000EF292FBFCF20244606C226403FB0EF3EC
:1032D00093FBFCF2024462640EFB01F30A225343A7
:1032E000A26C93FBFCF31344A364002361E700BFCB
:1032F000D86A010873B504461D46164600F040F929
:10330000264B2360069BA363099B0021962EC4E9EC
:103310000F3175F10003C4E91111C4E9146584F893
:10332000341084F84C1007D29621204600F037F96B
:1033300096220023C4E914234FF4847004F05CFC4B
:10334000BDF92020BDF91C10054602F01DF9144BF3
:1033500014491D60284602F03AF84FF4967004F0C4
:1033600029FD2046FFF736FE04F11C00FDF7C0F9E9
:103370000020FDF757FC0C20FDF7AAFB00250DF1FE
:1033800007008DF80750FDF74FFB9DF8073013B18C
:103390002846FDF7FFFB204602B070BD306B0108E8
:1033A00080160020801A060037B500230546144613
:1033B00008460DF1070211498DF807300BF082FC29
:1033C000C0B2012817D10E4B1B780F2B01D01E2B3A
:1033D0000FD19DF807300B4A0B49003B18BF012362
:1033E00085F834301370204603B0BDE830400BF050
:1033F00055BE0649F7E70649F5E700BF3A650108FB
:103400005F0D00205D0D0020C2640108116B0108F2
:10341000C4640108F8B50546064655F8044B8CB956
:103420000D4F386818B14FF0FF3101F045F834689E
:1034300024B9284604F07EFC2C463560386808B173
:1034400001F052F8AC4204D0044905488B2203F045
:1034500063FE2046F8BD00BFA82D0020966B010832
:10346000A56B010810B5034B0360044600F096F805
:10347000204610BDD06B010810B50446FFF7F2FFDF
:103480002046282104F0CEFB204610BD10B590F850
:10349000203090B0044613B309A803F08BFD01A8B7
:1034A00004F0C2FB099A0C9BE06942F210714A4396
:1034B000B2FBF3F2029BADF818204B430399B3FB28
:1034C000F1F340F2091105910421ADF8201000211B
:1034D0008DF8221005A9ADF81A30FDF717FC10B0D1
:1034E00010BD000010B5044600F04AF8044B2360FC
:1034F000029BE361002384F82030204610BD00BF0A
:10350000D06B010837B500230546144608460DF177
:10351000070211498DF807300BF0D4FBC0B2012827
:1035200017D10E4B1B780F2B01D01E2B0FD19DF8FE
:1035300007300B4A0B49003B18BF012385F82030A8
:103540001370204603B0BDE830400BF0A7BD06491C
:10355000F7E70649F5E700BF3A6501085F0D00206F
:103560005E0D0020C2640108116B0108C4640108EB
:10357000027E22B103680022DB680276184770479A
:1035800010B5C0E9022300220023C0E90423024C45
:1035900004600023037610BDE86B01087047002328
:1035A000C36000220023C0E9042381607047D0E992
:1035B000043210B5D0E90241013342F10002A342C6
:1035C000C0E9043272EB010305DB00230022C0E9ED
:1035D00004230123037610BD38B504460025227A62
:1035E000EBB29A4206D9626852F82300FFF7DFFF78
:1035F0000135F4E738BD10B4D0E901320168541048
:1036000001EB6200D20748BF0A595DF8044B48BF7E
:10361000D358184738B505460A4B45F8103B0446C1
:10362000284602F087FC084B2361284602F082FC02
:1036300004F13800FEF7A6F9284602F001FD204605
:1036400038BD00BF1C6C01087870010810B5044635
:10365000FFF7E0FF2046502104F0E4FA204610BDB9
:103660002DE9FF41144B027200F11007C0E900314F
:1036700004463846DDE90A68154602F0A7FC0F4B00
:1036800003930F4B0193002302934FF47A73A6FB2D
:10369000032603FB086369463846009402F077FC72
:1036A0006846FEF76FF92946064803F0EFFB20460F
:1036B00004B0BDE8F08100BF1C6C0108086C010873
:1036C000D9350008F86B010838B504460025227A80
:1036D000EBB29A4207D9626852F8230003689B68EC
:1036E00098470135F3E738BD1EF0040F0CBFEFF328
:1036F0000880EFF30980816911F8021C002932D19A
:1037000001B590E80F10E047BDE800508CE80300D9
:10371000244B93E80600914208BF70471A6041B9F4
:103720001EF0100F10D1204B186820F00100186017
:103730000AE02CE9F00F1EF0100F08BF2CED108AE4
:1037400081F822E0C1F838C0906B92F8221061F045
:10375000FF0E1EF0100F08BFB0EC108AB0E8F00F9B
:1037600080F309887047114A13689942FAD801B565
:1037700052F821C00FC8E047BDE80050CCF8000067
:10378000704701B500F012FFBDE80140EFF3098C6E
:10379000BEE701B500F0CEFEBDE80140EFF3098CB5
:1037A000B6E70000CC01002034EF00E0EC6C01082B
:1037B00008B5014630B96FF0030000F02AF86FF049
:1037C000030008BD132001F091FA30B94FF0FF302B
:1037D00000F01FF84FF0FF30F3E70020F1E70000A2
:1037E00008B5EFF305832BB9EFF3108313B9EFF3AB
:1037F000118333B16FF0050000F00BF86FF0050096
:1038000008BDDFF808C000DFFAE700BFB1370008E5
:1038100070477047EFF310832BB9EFF31180003836
:1038200018BF0120704701207047000008B5094B00
:103830001A7A022A08D0032A0AD04FF0FF3001F08A
:1038400013FD4FF0FF3002E003221A72002008BD82
:103850000120FCE7B801002008B5094B1A7A022ABA
:103860000CD0032A03D102221A72012008BD4FF0A6
:10387000FF3001F0F9FC4FF0FF30F7E70020F5E7EB
:10388000B801002070B5464C237A012B00F08580EA
:1038900033B14FF0FF3001F0E7FC4FF0FF3070BD67
:1038A000404DD5E90B61EB68E3652B8AA4F85430F1
:1038B0003046AB68236400F033F908B1C4F8806087
:1038C000D5E90561304600F02BF908B9D4F88060DD
:1038D0006667D5E90761304600F022F908B9D4F8E7
:1038E0008060A667D5E90961304600F019F908B98A
:1038F000D4F88060E6676E6B3EB1D6E9022331688A
:10390000304600F077F9C4F88460AE6B3EB1D6E97A
:1039100002233168304600F06DF9C4F88860EE6B20
:103920003EB1D6E902233168304600F063F9C4F8AD
:103930008C602E6C3EB1D6E902233168304600F02F
:1039400059F9C4F890606E6C3EB1D6E90223316833
:10395000304600F04FF9C4F89460AE6C3EB1D6E941
:1039600002233168304600F045F9C4F89860EE6CE7
:103970003EB1D6E902233168304600F03BF9C4F885
:103980009C602D6D3DB1D5E902232968284600F0E1
:1039900031F9C4F8A0500123237200207FE700BF53
:1039A000B80100207C6C010870B5254D2B7A012BE5
:1039B00007D06FF0060001F057FC4FF0FF342046AF
:1039C00070BD01F0D7F910B94FF0FF30F3E71D4A91
:1039D0001D4E1E497068FF2382F8223092F8223073
:1039E000D26863F0FF03DB4314BFB3FA83F32023F1
:1039F000C3F12003C2F30222934298BF531CFE225C
:103A000002FA03F30F4ADBB2D37701F0B9FA0446A6
:103A10000028D9D101F0ECFA286101F0D1FA0C4864
:103A200000F086FF00F0EAFF3368DB074CBF02239B
:103A3000032383F31488BFF36F8F02232B72BEE737
:103A4000B801002000ED00E07C6C0108933700080D
:103A5000D4010020704738B504460D46FFF7D8FE64
:103A600029462046BDE8384001F0C0BB08B5FFF745
:103A7000F1FFEFF3058333B16FF0050001F0F4FBC4
:103A80006FF0050008BDFFF7C5FE0028F4D1DFF890
:103A900008C000DFF6E700BF8538000808B5EFF37F
:103AA000058333B16FF0050001F0DEFB6FF0050018
:103AB00008BDFFF7AFFE0028F4D1DFF808C000DF33
:103AC000F6E700BFA939000808B5EFF3058333B165
:103AD0006FF0050001F0C8FB6FF0050008BDFFF7AF
:103AE00099FE0028F4D1DFF808C000DFF6E700BF38
:103AF0002D38000808B5EFF3058333B16FF00500EA
:103B000001F0B2FB6FF0050008BDFFF783FE00284F
:103B1000F4D1DFF808C000DFF6E700BF593800082D
:103B200010B598B140EA010313F007030ED117292D
:103B30000AD90160083910220C18846042600B50C9
:103B400081684A60C3600123184610BD0023FBE76B
:103B5000F0B5034670B369B332F003002AD10F31D8
:103B600021F0070103F10806344636686568301B0A
:103B700025F00305401B814203D930680028F3D1AA
:103B8000F0BD5F681D680F445F602B44083B5868B8
:103B9000874288BF5F6063680A431BB9626004F1B3
:103BA0000800EDE723F00303E018E65042602060D0
:103BB0000830E5E70020E3E710B580B1C1B1A1F11D
:103BC000080400F108030022A34209D1596821F03A
:103BD00003044168091B41603AB95A60012010BDD5
:103BE00019681A4621B10B46EEE71B681360F5E72A
:103BF0000846F4E730B5C0B189B1C2B1CBB10024F9
:103C0000C0E9014202FB01F41D190160C360436178
:103C100005611846013904D1A21A995001210846BC
:103C200030BD851805602846F4E70146F7E71146E0
:103C3000F5E71946F3E710B50346A8B100F1140201
:103C400052E8000F10B9BFF32F8F04E0016842E87B
:103C5000001404B1F4E738B1043353E8002F511CC9
:103C600043E8001404B1F8E710BD30B5F0B1C36803
:103C70008B421BD803698B4218D900F114031A68D0
:103C80000A60BFF35F8F53E8002F0C689442F6D1AF
:103C900043E8001505B1F2E7043050E8003F5A1E32
:103CA00040E8002101B1F8E7002030BD6FF00300CB
:103CB000FBE7EFF310832BB9EFF31180003818BF47
:103CC0000120704701207047D1E9013223B19A6089
:103CD0008A681AB153607047C262F9E7036370479C
:103CE0002DE9F84F8846074638B131B1B0FA80F374
:103CF000B1FA81F10B441F2B06DC6FF003010020A9
:103D000001F0C4FA002470E008F1030626F003066F
:103D10000C3606FB00F9F2B194683CB1A30702D15E
:103D2000D368332B05D86FF00801E8E7D368002B80
:103D3000F9D1D2E90453D2F800A03DB115F0030B3C
:103D400001D1994554D96FF00901D8E7002BFAD178
:103D50001CB19B460CE092461546274BD3F8A000B9
:103D6000D8B1FFF768FF0446A0B14FF0010B35BB97
:103D7000214B0022D86F4946FFF7EAFE0546C0B93D
:103D8000BBF1000F06D01C4BD3F8A000214658B160
:103D9000FFF76BFF6FF00401B1E7D3F88000012259
:103DA0003421FFF7D5FEDEE7D3F88000FFF704FFEC
:103DB000F0E74A4600210AF04BFE4BF0020BFA23D3
:103DC00023700023C4E90983C4E90B33A36032469E
:103DD0002B4684F802B0C4F804A0394604F10C0064
:103DE000FFF708FF044B054A1A672046BDE8F88F25
:103DF000002CE4D1B1E700BFB80100208D3E0008DF
:103E000010B500F1280353E8002F12B9BFF32F8F2C
:103E100004E0511E43E8001404B1F4E70AB900209D
:103E200010BDC06A01220028F9D0811CD1E84F3FA3
:103E3000C1E8442F04B1F9E7DBB2002BF0D0806871
:103E4000F1E7036B30B5E3B1CD780024DA78AA420C
:103E50000FD31A46C1E901248AB19160A4B161600F
:103E6000283050E8003F5A1C40E8002101B1F8E733
:103E700030BD5A681C46002AECD01346E6E7C16202
:103E8000ECE7C1E90133C1620163E9E7F8B587787E
:103E900004468FB3C568014600272846FFF714FF84
:103EA000277005F10C042046FFF7DFFEAB68002BFE
:103EB00048D02046FFF7BFFE0446002842D02846DF
:103EC00000F036FD3A460646394600F0B9FE304667
:103ED00000F08AFD6A6A8168064604F10C000AF067
:103EE000A1FCF9232370A770F368E37021462846EC
:103EF000BDE8F840FFF7A5BF8568AB68002BF5D09B
:103F00005B78832BF2D1284600F012FD3A46064634
:103F1000394600F095FE304600F066FD06466A6AB6
:103F2000806804F10C010AF07DFCF3680BB1E278C3
:103F30001A7000232370214605F10C00BDE8F840FB
:103F4000FFF793BEF8BD00002DE9F0410C4617467F
:103F50009846054618B10378FA2B00D141B9284696
:103F60006FF0030101F092F96FF00300BDE8F081FA
:103F70008368C3B15B78832B15D100F0D9FC012293
:103F80000646002100F05CFE304600F02DFD06469E
:103F90006A6A806821460AF045FCF0680028E5D08E
:103FA00007700020E2E705F10C00FFF744FE06462B
:103FB00070B121466A6A0C300AF034FC0024F923FF
:103FC0003370B470F77031462846FFF73AFFE8E7E0
:103FD000B8F1000F10D04146932000F087FE40B1A9
:103FE000074B2846596900F091FCEFF30983C3E9B8
:103FF00002476FF00100B9E76FF00200B6E700BFBB
:10400000B80100202DE9F0410F46154698460446B8
:1040100018B10378FA2B00D141B920466FF00301A3
:1040200001F034F96FF00300BDE8F081FFF7E8FE1E
:10403000064600283AD001462046FFF745FE626A50
:1040400006F10C0138460AF0EDFB0DB1F3782B7048
:10405000002504F10C07357031463846FFF705FEA0
:10406000A3680BB90020DFE73846FFF7E4FD0646FA
:104070000028F7D0204600F05BFC294607460122C5
:1040800000F0DEFD384600F0AFFC626A816807464A
:1040900006F10C000AF0C6FBF9233370B570FB681B
:1040A000F37031462046FFF7CCFEDBE7B8F1000F96
:1040B00010D04146832000F019FE40B1074B204646
:1040C000596900F023FCEFF30983C3E902756FF02F
:1040D0000100A9E76FF00200A6E700BFB8010020C9
:1040E00008B5064B08219A6ED86EFFF7F9FD044B10
:1040F000D864B0FA80F04009404208BD7C6C0108E9
:10410000B80100202DE9F04106460F4690461C46B6
:10411000EFF305834BB196B930466FF0030101F020
:10412000B5F86FF00300BDE8F081FFF7C2FD00288D
:10413000F1D1DFF84CC03046234600DFF3E7337897
:10414000FA2BE9D1002FE7D0002CE5D106F10C00C5
:10415000FFF771FD054680B1726A39460C300AF0EE
:1041600061FBF9232846C5E901762B70AC7085F810
:10417000038000F063FA2046D5E76FF00200D2E733
:10418000493F0008F8B504460F4616461D46EFF3B2
:10419000058343B18CB920466FF0030101F076F836
:1041A0006FF00300F8BDFFF784FD0028F2D1DFF8BF
:1041B00048C020462B4600DFF4E72378FA2BEAD1EB
:1041C000002FE8D0002DE6D12046FFF719FE054666
:1041D00070B100F10C01626A38460AF023FB0EB19F
:1041E000EB7833702846EC6000F028FA0020D9E71D
:1041F0006FF00200D6E700BF05400008EFF3108320
:104200002BB9EFF31180003818BF0120704701204F
:104210007047000070B5A8B38468D0E900566CB14F
:1042200014F0030302D1C2681B2A1AD86FF00801E8
:10423000002001F025F80024204670BDC368002B43
:10424000F4D1124BD3F8940030B9D3F88000012296
:104250001C21FFF77DFC01E0FFF7EDFC044660B197
:104260000123F522A3700023C4E90233C4E9043317
:104270002270E67065602376DEE76FF0040100F0DF
:10428000FFFFD9E705460646DBE700BFB80100207F
:10429000284B70B55D6904460E4635B96FF00701CD
:1042A00000F0EEFF4FF0FF3070BD10B10378F52B3A
:1042B00007D020466FF0030100F0E2FF6FF003002B
:1042C000F2E7037E53B9C0E90353EB6A436103B1DC
:1042D0001861EC62012323760020E5E7C278D1075C
:1042E0000DD5C168A9420AD1FF2B06D16FF00F018D
:1042F00000F0C6FF6FF00200D6E70133EBE7002EB7
:10430000F8D093070AD5E06895F9203090F920207D
:104310009A4203DA80F8203000F01CFB314653202B
:1043200000F0E4FC18B12946204600F0EFFA6FF0E7
:104330000100B9E7B80100202E4B5A6970B5044658
:1043400032B96FF0070100F09BFF4FF0FF3070BDF6
:1043500010B10378F52B07D020466FF0030100F071
:104360008FFF6FF00300F2E7037E33B96FF00E01A9
:1043700000F086FF6FF00200E9E7C168914202D0C9
:104380006FF00D01F4E7013BDBB2037613BB436929
:104390000BB1016919612169F1B14B6192F92130C9
:1043A000D56ADDB982F82030A36883B1204600F0D9
:1043B000BFFA06462A46294600F042FCF36A6361CA
:1043C000C4E9036503B11C610123F4622376002074
:1043D00000F01CFB0020BAE7D362DFE7E978890729
:1043E00006D5A96821B191F920108B42B8BF0B46C0
:1043F0006D69D6E7B80100202DE9F041044600269A
:1044000001270CB9BDE8F081E378D4F814801B07CC
:1044100012D5A36826767BB1204600F089FA0022E7
:104420000546114600F00CFCEB6A6361C4E90356D3
:1044300003B11C61EC6227764446E2E710B4C3780E
:104440009B071DD5C06890F92120C36ADC78A407BA
:1044500009D59C688C4208BF8C6824B194F920402F
:10446000A242B8BF22465B69002BEFD190F9203001
:10447000934205D080F820205DF8044B00F06ABA22
:104480005DF8044B7047000008B50246EFF3058362
:1044900033B100206FF0050100F0F2FE002008BDEE
:1044A000FFF7ACFE0028F4D1DFF808C0104600DFAB
:1044B000F5E700BF1542000808B50246EFF3058393
:1044C0003BB110466FF0050100F0DAFE6FF0050019
:1044D00008BDFFF793FE0028F3D1DFF808C01046AF
:1044E00000DFF5E79142000808B50246EFF30583C7
:1044F0003BB110466FF0050100F0C2FE6FF0050001
:1045000008BDFFF77BFE0028F3D1DFF808C0104696
:1045100000DFF5E73943000810B5D0E85F3F5A1CCB
:10452000914200D80022C0E8542F04B1F5E798B2B8
:1045300010BD000038B51C4C00F056FDE368013397
:10454000E36000F021FA002000F060FA236D03B16F
:104550009847226C32B3A369E16B994203D0D969C1
:10456000E36301B9DA61DA69C2B9237A022B19D19E
:10457000656ABDB1E36B95F9202093F920309A422A
:1045800010D1284600F0DDF9E06B00F0F5F928467F
:1045900000F034FA236CE563EB6103E0013ADA6181
:1045A000002AE2D038BD00BFB801002070B5224C0F
:1045B00004F1560504F15A06B4F85410D5E85F3FEB
:1045C00013B9BFF32F8F04E05A1EC5E8502F00B176
:1045D000F4E79BB25BB33046FFF79EFFE36D53F801
:1045E000200020B30378F13B082BE5D801A252F854
:1045F00023F000BF19460008B94500081F4600080F
:10460000B9450008B94500082346000827460008B8
:10461000B94500082B460008236E9847CCE7636E27
:10462000FBE7A36EF9E7E36EF7E7236FF5E7BDE875
:104630007040002000F0EAB9B801002070B5164CB7
:104640000546B4F8541004F15602D2E85F3F99428F
:1046500002D8BFF32F8F04E0581CC2E8560F06B1F2
:10466000F3E79BB2994205D829460220BDE8704085
:10467000FFF7F1B904F15800FFF74EFFE36D43F87F
:104680002050637A23B9054B4FF080525A6070BDB9
:104690000123A372FBE700BFB801002000ED00E09A
:1046A000EFF310832BB9EFF31180003818BF01200E
:1046B0007047012070470378F12B00D07047C06825
:1046C000F9E7000010B5C469621CD0E904310CD1CF
:1046D00003B1596142691AB113610023436101E0DA
:1046E000074A13630023C36110BD1BB1DA69596126
:1046F0002244DA614269002AEED1014AD362F1E72D
:10470000B801002010B50A4A90F920100123437027
:10471000536A1C321BB193F920408C4205DCC0E97E
:104720000232906003B1D86010BD1A469B68F1E771
:10473000B8010020014B5869704700BFB801002044
:1047400028B10378F12B01D1406B704700207047EE
:10475000084B5A6A012022B9DA6A2AB91B6B33B9AD
:10476000704792680130F6E712690130F5E71B697E
:104770000130F4E7B801002010B5002303808378EE
:104780009A07044608D513F0100F016B0E4B0FD09B
:10479000D3F88400FFF769FAA378DB0712D50A4B38
:1047A000D3F88800214638B1BDE81040FFF75DBA64
:1047B000586FFFF701FAEFE7BDE81040D3F880002B
:1047C000FFF7FAB910BD00BFB801002008B500F02E
:1047D00063FDDFF810C000DF4FF0FF31002000F074
:1047E00049FDFEE7A94C00080246B8B10378F12B59
:1047F00014D10B4B1B6813F0040010D0136B094944
:10480000186888420AD1526B0420904200D3704746
:104810001958B1F1CC3F02D10430F6E700207047BF
:104820007C6C0108A52E5AE210B570B109B3124A8A
:104830000346546943F8044B546A012034B9D46ADE
:104840005CB9126B0AB181420ED810BD8142F6D01C
:1048500043F8044B0130A468F0E78142F1D943F8F2
:10486000044B01302469EBE743F8042B0130126953
:10487000E8E70846E9E700BFB8010020C278D207A0
:10488000034601D4FFF778BF042205494270002295
:10489000C2604A6B826002B1D0604B63704700BF58
:1048A000B8010020930710B502F0010422D400F1F2
:1048B000280384B153E8000F00EA01028A4203D0C2
:1048C000BFF32F8F002005E020EA010243E8002417
:1048D00004B1EFE710BD53E8000F084203D1BFF366
:1048E0002F8F002005E020EA010243E8002404B1F4
:1048F000F1E7EFE7806A01EA00031CB18B4218BFC1
:104900000020E7E7002B08BF0020E3E710B591F98E
:10491000202083681BB193F92040944205DAC1E955
:104920000230816003B1D96010BD18469B68F1E781
:1049300083689A68826002B1D0600022DA6018460B
:104940007047C2682AB18368936003B1DA600023BC
:10495000C360704710B5044664B12378F12B07D0CB
:10496000FFF7EFFF01462046BDE81040FFF7CEBF3E
:10497000E468F1E710BD00000123014643700148DF
:10498000FFF7C4BFD401002038B5164DEC6A44B31C
:10499000E369013BE36123BB6378732B06D009D83D
:1049A000532B0BD003F0DF03432B0DD12046FFF731
:1049B00082FE09E003F0EF03832BF6E72046FFF7C2
:1049C0007AFE2146FFF73AFD2046FFF7BAFFFFF7D0
:1049D000D3FF246924B1E369002BDDD00023636198
:1049E000EC6238BDB801002090F82230826B13F0E1
:1049F000100F0CBF6020202010447047022343702A
:104A0000014B9861704700BFB801002070B5124D8E
:104A100004462E7A696990B9022E0FD16C6A6CB186
:104A200094F9202091F920309A4207DD2046FFF7C3
:104A300088FF0846FFF766FE6670AC6170BD022E07
:104A400005D190F9202091F920309A42F1DC2046DE
:104A5000BDE87040FFF790BFB80100202DE9F04F8E
:104A600085B00391019028B96FF0030100F002FCBA
:104A70000024BEE0002A4AD0966846B1B00702D1B1
:104A8000D368432B06D86FF008010020EEE7D36807
:104A9000002BF8D1D2E90449976944B1610703D1E9
:104AA000B9F1000F40F0B1806FF00A01EDE72FB1CE
:104AB000791E372903D96FF00B01E6E71827B9F102
:104AC000000F40F0A680D2E900B3029366BB564DBA
:104AD000D5F8880008B3FFF7AEF8064600283DD0A9
:104AE0004FF00108DFF840A1002C42D1B9F1000FCE
:104AF0001DD14E4BDAF88400D3F85490B8B1FFF7CB
:104B00009AF80546E0B148F01008344623E0934691
:104B10001446182791460292D9E7D5F88000012261
:104B20004421FFF715F8D8E74FF00008DAE7DAF884
:104B3000740022464946FFF70BF805460028E4D1E9
:104B4000B8F1000F13D0DAF8885031464DB128463D
:104B5000FFF78BF8002548F0020864B96FF00401F4
:104B600093E7DAF88000FFF727F82C46F3E745468D
:104B7000F1E72546344640F2F11222800022C4E9D2
:104B80000222C4E90422C4E90622C4E90922C4E9D4
:104B90000B25A9F14002029BE3702A44019BA2630A
:104BA0007FB2234AE363FD2184F80280C4F804B095
:104BB00084F8207084F821706184C4F834902A60ED
:104BC0001A4A1268530718D4A36B342218460021DE
:104BD00009F03EFF174A4263019A82634FF08072E8
:104BE000C263039A0262144BCAF860302046FFF792
:104BF0000DFF204605B0BDE8F08F29F00302443ACE
:104C0000CC21281D09F024FFDEE7002F7FF450AFF0
:104C1000182719F0070F7FF447AF0849A9F148009A
:104C200088427FF650AF3FE7B80100207C6C010856
:104C3000A52E5AE2CD470008654C0008B7FFFF7F5C
:104C400038B505461446FFF7CFFE01602846FFF74A
:104C500039FD1CB1BDE83840FFF7D8BEBDE838408B
:104C6000FFF78ABE10B54378332B04460CD1416A56
:104C700090F82320FFF716FE014628B120460022B7
:104C8000BDE81040FFF7DCBF10BD10B504468069D9
:104C900018B100221146FFF7D3FF6378232B02BF20
:104CA000A36800229A6110BD70B50F4C267A022EBF
:104CB00018D1636AB3B16569E86AFFF79DFB2846BE
:104CC000FFF7E3FF04F11C00FFF732FE4670A0611E
:104CD000EFF30983AB63002363612846BDE87040AE
:104CE000FFF7CCBD70BD00BFB801002038B51F4C28
:104CF000237A022B35D1636A002B34D063694A1CB6
:104D0000587016D1226B002172B94FF0FF30C3E901
:104D10000421D86159B10B611548FFF709FE022340
:104D20004370A061012038BD11461269ECE723638E
:104D3000F2E7E26A002012B1D569A9420BD2C3E9B9
:104D40000420D96158B10361002AE5D0D0695361CC
:104D5000411AD161E0E71046491B1269EBE7E362B3
:104D6000F2E70020DFE71846DDE700BFB8010020CA
:104D7000D401002038B50D4C0D48A26D0D4D002119
:104D8000FFF76CFE636EA8625BB1984758B9E26D9D
:104D9000E96C206EFFF762FEA864003818BF01209E
:104DA00038BD0120FCE70020FAE700BF7C6C010859
:104DB000E5510008B801002010B50446EFF3058363
:104DC00033B100206FF0050100F054FA002010BD4F
:104DD000FFF766FC0028F4D1DFF808C0204600DFAA
:104DE000F5E700BF5D4A000808B5EFF3058313B18E
:104DF000054B586908BDFFF753FC0028F8D1DFF8D0
:104E00000CC000DFF6E700BFB801002035470008FE
:104E100008B50246EFF305830BB1002008BDFFF78C
:104E20003FFC0028F9D1DFF808C0104600DFF5E7A5
:104E30004147000808B50246EFF305830BB1002097
:104E400008BDFFF72DFC0028F9D1DFF808C0104697
:104E500000DFF5E7E947000808B5EFF305830BB17C
:104E6000002008BDFFF71CFC0028F9D1DFF804C0C2
:104E700000DFF6E75147000808B50246EFF3058367
:104E80000BB1002008BDFFF70BFC0028F9D1DFF8BB
:104E900008C0104600DFF5E72948000830B50C4D82
:104EA0006B6C002213B11C698C420AD9C0E9022341
:104EB00001611BB11C699860611A19612AB1D06047
:104EC00030BD1A46091BDB68ECE76864F8E700BFF1
:104ED000B80100202DE9F041184D6C6C54B32369E2
:104EE0006E69013B23610127236913BBE3680BB1A2
:104EF000A2689A606B640023E86C1A4604F11801FA
:104F0000FFF700F958B1D5E90583214603206B610D
:104F1000FEF7A1FD6B6913B9B04508BF0026E37821
:104F2000012B09D161692046FFF7B8FF6C6C002C9A
:104F3000DAD16E61BDE8F0816770F7E7B801002053
:104F400008B5FFF7CDF818B9034B044A1A6508BD38
:104F50004FF0FF30FBE700BFB8010020D54E00083E
:104F600007B504464FF0FF33002269462046FFF79D
:104F700009F90028F6D1DDE900309847F2E7000092
:104F8000A8B10C4B1B68B3FBF0F00138B0F1807F87
:104F90000DD2094BFF2283F823204FF0E023062295
:104FA0001A61586100209861044B187070474FF0E7
:104FB000FF3070476C03002000ED00E0D01C0020A3
:104FC000074B1A782AB100221A70064B4FF0806204
:104FD0005A604FF0E022136943F0010313617047F8
:104FE000D01C002000ED00E04FF0E0231B6970476B
:104FF0004FF0FF307047000008B5094B094A1A60AE
:10500000094B9B1A094A1360094B0A4A1A600A4B5A
:105010009B1A0A4A136000F051F800F083F800BFB1
:10502000381D0020007C012000800120341D00205C
:10503000A4360020203B0020007C0120A036002068
:105040000E4838B50E4B03600B250E4B45601C24F3
:10505000C4608360FFF718FA0B4B18600B480C4BC9
:10506000C460C0E900350B4B8360FFF70DFA0A4BB3
:105070001860BDE8384008F0F5BF00BF041D0020EF
:10508000506D0108181D0020141D0020D41C0020A4
:105090005D6D0108E81C0020E41C0020FDF706B847
:1050A000024B4FF0FF311868FFF706BA141D0020BD
:1050B000014B1868FFF718BA141D002008B501F05D
:1050C00073FB0C4B0C4998684FF00053C21802F167
:1050D0006042126843F8042B8B42F7D1054B4FF026
:1050E00000529A6003F078FE04F076FFBDE80840B5
:1050F00000F015B800ED00E0940100207047704703
:1051000008B500F043F8FFF7F9FFFFF799FFFFF745
:10511000F6FF02F047FABDE80840FFF7BFBFFEF711
:10512000A5BC0000114C124B23614FF48053636106
:105130004423E3600F4BA360182307B5A3610E4817
:105140000E4B236022460021FFF736FE034628B9A6
:105150000B49009022460B4802F02CFAFEF79EFC09
:105160000023094900931A46F5E700BF402D0020AF
:10517000401D0020642D002001510008776D0108BA
:105180007C6D01081D010180986D01081FB5064B5B
:105190000FCB6C4684E80F002046FFF775F9034BF0
:1051A000186004B010BD00BFB06D0108A82D00202C
:1051B00073B506460C46154602F0F6F958B90634A2
:1051C0002ABF064B064953F82410002300933246A9
:1051D000284602F0EFF902B070BD00BF746F0108FD
:1051E000C86E010808B500F071F8000007B500238B
:1051F000421E00930023042A19D8DFE802F00308B6
:105200000C1014000C490D48012202F0D3F90C498E
:105210000C480222F9E70C490C480322F5E70C4937
:105220000C480422F1E70C490C480522EDE7024640
:105230000B490C48E9E700BFC06D01082501028059
:10524000E16D010826010280066E01082701028037
:105250003B6E010828010280766E01082A01028057
:10526000B66E010800010280014A0146FFF7A0BFA7
:1052700031010180014AFFF79BBF00BF320101806D
:10528000014AFFF795BF00BF33010180014AFFF7D4
:105290008FBF00BF3801018010B5FFF7A5FD034B9C
:1052A0001B6813B1BDE81040184710BDC82D002081
:1052B00008B501F0F1FF02F097F902F0CFF902F022
:1052C000A9F9BDE8084001F0FDBF000008B5024C97
:1052D00023689847FCE700BF5C02002003680122B6
:1052E0001B6900211847036800221B6911461847F3
:1052F0006FF0150070470000C36810B52BB9054961
:1053000005484FF4FD7201F007FFBDE810401B682F
:10531000184700BFE0650108EB65010807B501907B
:1053200001F0BAFF0198012102F0FCFF03B05DF823
:1053300004EB01F0C7BF07B5019001F0ADFF019884
:10534000002102F0EFFF03B05DF804EB01F0BABFFB
:1053500007B5CDE9001001F09FFFDDE9001002F074
:10536000DDFF03B05DF804EB01F0ACBF416830B481
:10537000034671B1D0E9032000F0010402B944B141
:10538000451001EB60000CB149598A58996830BC4E
:10539000104730BC70470000064B10B50446036050
:1053A000806A08B101F0BCFD201DFCF7EBFA204635
:1053B00010BD00BF946F010810B50446FFF7ECFF65
:1053C00020464FF4847102F02DFC204610BD036886
:1053D00070B504460D461B68984704F13000C4F8C8
:1053E000D850294603F096FA236820465B68BDE84A
:1053F000704018477FB506461D4656F8303BCDE94C
:1054000002211B68044698479DF8203083F0010371
:10541000DDE90221009330462B4603F0CDFB2368E3
:1054200006465B6820469847A81B18BF012004B0B9
:1054300070BD7FB506461D4656F8303BCDE90221CA
:105440001B68044698479DF8203083F00103DDE98E
:105450000221009330462B4603F04EFB236806469C
:105460005B6820469847A81B18BF012004B070BD98
:1054700070B590B00D46144600211C2202A809F018
:10548000E7FA012600231A46294602A8009600F0F2
:10549000E5FE1C22002109A809F0DAFA00231A46C9
:1054A0000096214609A800F0D9FE0A9B1A68099BBC
:1054B0001A4203D16FF0010010B070BD039B196850
:1054C000029B194043D109A8FFF742FF09A8FFF743
:1054D00025FF0A24002109A8FFF73AFF099B0C9A2F
:1054E0001B041360052002F0E5FB012109A8FFF76A
:1054F0002FFF0B9B099A1A60052002F0DBFB013C91
:10550000E8D102A8FFF70AFF029B059A1B0413606B
:10551000052002F0CFFB0B9B099A1A60052002F0D0
:10552000C9FB049B029A1A60052002F0C3FB02A883
:10553000FFF701FF09A8FFF7FEFE0A9B1A68099B07
:105540001A42B7D0039B1A68029B1A42B2D00020BD
:10555000B2E710B500210446242240F8041B09F0EC
:1055600077FA204610BD08B5DC30FDF753FFBDE8E3
:10557000084002F0E7BB08B5DC30FDF74BFFBDE8A3
:10558000084002F0FDBB0000F8B51A4B03600D4661
:10559000194B4361002100F130070446C0E90711AF
:1055A000C0E909110161818516468061A82238464B
:1055B00009F04EFA114BC4F8D83004F1DC00FFF7C3
:1055C000C8FF2046FFF7CFFF32462946A4F8045112
:1055D000A4F806612046FFF74BFFB4F90621B4F9A1
:1055E0000411384603F04EFA2046FFF7C4FF204668
:1055F000F8BD00BF946F01086D530008A08601003C
:1056000010B5084B044640F8203B03F033F804F192
:105610004000FCF7B7F904F13000FCF7B3F920467D
:1056200010BD00BFAC6F010810B50446FFF7E8FFDE
:105630002046502102F0F6FA204610BD0346024AE9
:10564000203002F01FBF00BF9156000870B505461C
:105650000E4B45F8043B04460E461C22002128460A
:1056600009F0F6F91022002104F1200009F0F0F908
:105670000023E363E36431462046FFF7DFFF28465B
:10568000314600F0E1FD204670BD00BFAC6F01085F
:10569000012908B502D0022907D008BDC36B002B31
:1056A000FBD03030FFF728FEF7E7C36C002BF4D0B7
:1056B0004030F7E707B5CDE9001001F0EDFDDDE979
:1056C000001003F0ABFC03B05DF804EB01F0FABD91
:1056D00007B5CDE9001001F0DFFDDDE9001003F0B2
:1056E0008BFE03B05DF804EB01F0ECBD07B5CDE92E
:1056F000001001F0D1FDDDE9001003F01DFD03B045
:105700005DF804EB01F0DEBD07B5CDE9001001F056
:10571000C3FDDDE9001003F074FE03B05DF804EB97
:1057200001F0D0BD837E10B504461BB901F05CFFCB
:105730000123A37610BD837E10B504461BB101F092
:1057400069FF0023A37610BD10B5044601F0A4FD47
:10575000E37E4BB9B4F91810204603F089FD2046CA
:10576000FFF7E0FF0123E376BDE8104001F0AABD9A
:1057700010B500230022044601834383C261036203
:10578000FFF7E2FF204610BD10B5044601F084FD8E
:10579000E37E3BB1204603F03BFC2046FFF7CBFF06
:1057A0000023E376BDE8104001F08CBD10B504463F
:1057B000FFF7EAFF204610BD416830B4034671B1DF
:1057C000D0E9032000F0010402B944B1451001EB17
:1057D00060000CB149598A58996830BC104730BCF8
:1057E000704713B5B0F9383044680093B0F93630DB
:1057F000B0F93420B0F93210201D04F0C5F802B021
:1058000010BD0000034B186818B14FF0FF31FEF7D0
:1058100053BE7047A82D002070B5054601F03CFD31
:105820000A4B0B4C1A684FF4947100239A420BDD1B
:1058300001FB03F00659AE4204D1044401F042FDDD
:10584000204670BD0133F1E70024F7E7BC340020A7
:10585000CC2D0020084A08B51368052B04DD074944
:105860000748AF2201F058FC591C1160054A4FF45B
:10587000947000FB032008BDBC340020FB6F0108BE
:1058800003700108CC2D00204368D3F8BC3083425C
:1058900010B5044610D0036F98476068D4E916121B
:1058A0000023043004F08EF96068216E043004F0A7
:1058B00067FA6368C3F8BC4010BDB0F94C300133DF
:1058C00003D0C36B11B1426C13607047826C1B0430
:1058D000FAE738B5036804461B69984794F96550A0
:1058E0006B1C84F8653045B92046FFF7CDFF29468B
:1058F0002046BDE83840FFF7E0BF38BD10B590F84E
:105900006530013B5BB2044680F8653013B9012174
:10591000FFF7D3FF236820465B69BDE810401847B6
:1059200037B504460191FFF7D4FF60680199043050
:1059300004F046FA05462046FFF7E0FF284603B08C
:1059400030BD30B5044687B0CDE904210393FFF79D
:10595000C0FF94F86450606801950A9D0599009510
:10596000DDE90332043004F063FA05462046FFF710
:10597000C5FF284607B030BD70B50646054656F847
:10598000044BF4B9FFF73EFF2C68ACB921466C60BC
:10599000282205F1080009F05BF8AC622C6328228C
:1059A000214605F1340009F053F86C65C5E9174448
:1059B00085F864402E603446064B186808B1FEF73F
:1059C00093FDB44204D0044904488B2201F0A4FBA7
:1059D000204670BDA82D0020966B0108A56B01081C
:1059E0000023082210B5C0E9162303860C4B03667A
:1059F0000446FF23A0F8643001F04EFCE06EFFF790
:105A00000BFF606020B9FFF725FFE36E6060036065
:105A100001F058FC6068C030FFF7AEFF10BD00BF5A
:105A200040420F0038B504461648E386BDF91030F1
:105A30002060002523871448A06004F13C036186A0
:105A4000A28629461C221846C4E90455E460A561D3
:105A5000E561E56208F0FCFF4FF0FF3100F0FBFB71
:105A60000A4BB4F93620B4F934102367B4F9320084
:105A7000A56603F05BFFE0662046FFF7B1FF204616
:105A800038BD00BF34700108B9570008E35700085B
:105A900008B540689430FDF7BDFCBDE8084002F051
:105AA00051B908B540689430FDF7B4FCBDE8084032
:105AB00002F066B910B50D4B03600446FFF7E8FF2E
:105AC0006368D3F8BC20A24204BF0022C3F8BC2004
:105AD0002046FFF7E6FF04F12000FBF753FFE069E3
